{
	"contracts/SolidityByExample/Staking.sol": {
		"TokenForm": {
			"abi": [
				{
					"inputs": [
						{
							"internalType": "contract Range",
							"name": "_range",
							"type": "address"
						},
						{
							"internalType": "contract mRange",
							"name": "_mRange",
							"type": "address"
						}
					],
					"stateMutability": "nonpayable",
					"type": "constructor"
				},
				{
					"inputs": [
						{
							"internalType": "address",
							"name": "",
							"type": "address"
						}
					],
					"name": "hasStaked",
					"outputs": [
						{
							"internalType": "bool",
							"name": "",
							"type": "bool"
						}
					],
					"stateMutability": "view",
					"type": "function"
				},
				{
					"inputs": [
						{
							"internalType": "address",
							"name": "",
							"type": "address"
						}
					],
					"name": "isStaking",
					"outputs": [
						{
							"internalType": "bool",
							"name": "",
							"type": "bool"
						}
					],
					"stateMutability": "view",
					"type": "function"
				},
				{
					"inputs": [],
					"name": "issueTokens",
					"outputs": [],
					"stateMutability": "nonpayable",
					"type": "function"
				},
				{
					"inputs": [],
					"name": "mRangeToken",
					"outputs": [
						{
							"internalType": "contract mRange",
							"name": "",
							"type": "address"
						}
					],
					"stateMutability": "view",
					"type": "function"
				},
				{
					"inputs": [],
					"name": "name",
					"outputs": [
						{
							"internalType": "string",
							"name": "",
							"type": "string"
						}
					],
					"stateMutability": "view",
					"type": "function"
				},
				{
					"inputs": [],
					"name": "owner",
					"outputs": [
						{
							"internalType": "address",
							"name": "",
							"type": "address"
						}
					],
					"stateMutability": "view",
					"type": "function"
				},
				{
					"inputs": [],
					"name": "rangeToken",
					"outputs": [
						{
							"internalType": "contract Range",
							"name": "",
							"type": "address"
						}
					],
					"stateMutability": "view",
					"type": "function"
				},
				{
					"inputs": [
						{
							"internalType": "uint256",
							"name": "_amount",
							"type": "uint256"
						}
					],
					"name": "stakeTokens",
					"outputs": [],
					"stateMutability": "nonpayable",
					"type": "function"
				},
				{
					"inputs": [
						{
							"internalType": "uint256",
							"name": "",
							"type": "uint256"
						}
					],
					"name": "stakers",
					"outputs": [
						{
							"internalType": "address",
							"name": "",
							"type": "address"
						}
					],
					"stateMutability": "view",
					"type": "function"
				},
				{
					"inputs": [
						{
							"internalType": "address",
							"name": "",
							"type": "address"
						}
					],
					"name": "stakingBalance",
					"outputs": [
						{
							"internalType": "uint256",
							"name": "",
							"type": "uint256"
						}
					],
					"stateMutability": "view",
					"type": "function"
				},
				{
					"inputs": [],
					"name": "unstakeTokens",
					"outputs": [],
					"stateMutability": "nonpayable",
					"type": "function"
				}
			],
			"devdoc": {
				"kind": "dev",
				"methods": {},
				"version": 1
			},
			"evm": {
				"assembly": "    /* \"contracts/SolidityByExample/Staking.sol\":130:169  string public name = \"Range Token Farm\" */\n  0xc0\n    /* \"contracts/SolidityByExample/Staking.sol\":108:1978  contract TokenForm {... */\n  0x40\n    /* \"contracts/SolidityByExample/Staking.sol\":130:169  string public name = \"Range Token Farm\" */\n  mstore\n  0x10\n    /* \"contracts/SolidityByExample/Staking.sol\":108:1978  contract TokenForm {... */\n  0x80\n    /* \"contracts/SolidityByExample/Staking.sol\":130:169  string public name = \"Range Token Farm\" */\n  dup2\n  swap1\n  mstore\n  shl(0x80, 0x52616e676520546f6b656e204661726d)\n  0xa0\n  swap1\n  dup2\n  mstore\n  tag_1\n  swap2\n  0x00\n  swap2\n  swap1\n  tag_2\n  jump\t// in\ntag_1:\n  pop\n    /* \"contracts/SolidityByExample/Staking.sol\":415:532  constructor(Range _range, mRange _mRange) {... */\n  callvalue\n  dup1\n  iszero\n  tag_3\n  jumpi\n  0x00\n  dup1\n  revert\ntag_3:\n  pop\n  mload(0x40)\n  sub(codesize, bytecodeSize)\n  dup1\n  bytecodeSize\n  dup4\n  codecopy\n  dup2\n  add\n  0x40\n  dup2\n  swap1\n  mstore\n  tag_4\n  swap2\n  tag_5\n  jump\t// in\ntag_4:\n    /* \"contracts/SolidityByExample/Staking.sol\":462:472  rangeToken */\n  0x02\n    /* \"contracts/SolidityByExample/Staking.sol\":462:481  rangeToken = _range */\n  dup1\n  sload\n  sub(shl(0xa0, 0x01), 0x01)\n  swap4\n  dup5\n  and\n  not(sub(shl(0xa0, 0x01), 0x01))\n  swap2\n  dup3\n  and\n  or\n  swap1\n  swap2\n  sstore\n    /* \"contracts/SolidityByExample/Staking.sol\":485:496  mRangeToken */\n  0x03\n    /* \"contracts/SolidityByExample/Staking.sol\":485:506  mRangeToken = _mRange */\n  dup1\n  sload\n  swap3\n  swap1\n  swap4\n  and\n  swap2\n  dup2\n  and\n  swap2\n  swap1\n  swap2\n  or\n  swap1\n  swap2\n  sstore\n    /* \"contracts/SolidityByExample/Staking.sol\":462:481  rangeToken = _range */\n  0x01\n    /* \"contracts/SolidityByExample/Staking.sol\":510:528  owner = msg.sender */\n  dup1\n  sload\n  swap1\n  swap2\n  and\n    /* \"contracts/SolidityByExample/Staking.sol\":518:528  msg.sender */\n  caller\n    /* \"contracts/SolidityByExample/Staking.sol\":510:528  owner = msg.sender */\n  or\n  swap1\n  sstore\n    /* \"contracts/SolidityByExample/Staking.sol\":108:1978  contract TokenForm {... */\n  jump(tag_21)\ntag_2:\n  dup3\n  dup1\n  sload\n  tag_9\n  swap1\n  tag_10\n  jump\t// in\ntag_9:\n  swap1\n  0x00\n  mstore\n  keccak256(0x00, 0x20)\n  swap1\n  0x1f\n  add\n  0x20\n  swap1\n  div\n  dup2\n  add\n  swap3\n  dup3\n  tag_12\n  jumpi\n  0x00\n  dup6\n  sstore\n  jump(tag_15)\ntag_12:\n  dup3\n  0x1f\n  lt\n  tag_13\n  jumpi\n  dup1\n  mload\n  not(0xff)\n  and\n  dup4\n  dup1\n  add\n  or\n  dup6\n  sstore\n  jump(tag_15)\ntag_13:\n  dup3\n  dup1\n  add\n  0x01\n  add\n  dup6\n  sstore\n  dup3\n  iszero\n  tag_15\n  jumpi\n  swap2\n  dup3\n  add\ntag_14:\n  dup3\n  dup2\n  gt\n  iszero\n  tag_15\n  jumpi\n  dup3\n  mload\n  dup3\n  sstore\n  swap2\n  0x20\n  add\n  swap2\n  swap1\n  0x01\n  add\n  swap1\n  jump(tag_14)\ntag_15:\n  pop\n  tag_16\n  swap3\n  swap2\n  pop\n  tag_17\n  jump\t// in\ntag_16:\n  pop\n  swap1\n  jump\t// out\ntag_17:\ntag_18:\n  dup1\n  dup3\n  gt\n  iszero\n  tag_16\n  jumpi\n  0x00\n  dup2\n  sstore\n  0x01\n  add\n  jump(tag_18)\n    /* \"#utility.yul\":14:152   */\ntag_20:\n  sub(shl(0xa0, 0x01), 0x01)\n    /* \"#utility.yul\":96:127   */\n  dup2\n  and\n    /* \"#utility.yul\":86:128   */\n  dup2\n  eq\n    /* \"#utility.yul\":76:146   */\n  tag_23\n  jumpi\n    /* \"#utility.yul\":142:143   */\n  0x00\n    /* \"#utility.yul\":139:140   */\n  dup1\n    /* \"#utility.yul\":132:144   */\n  revert\n    /* \"#utility.yul\":76:146   */\ntag_23:\n    /* \"#utility.yul\":14:152   */\n  pop\n  jump\t// out\n    /* \"#utility.yul\":157:583   */\ntag_5:\n    /* \"#utility.yul\":263:269   */\n  0x00\n    /* \"#utility.yul\":271:277   */\n  dup1\n    /* \"#utility.yul\":324:326   */\n  0x40\n    /* \"#utility.yul\":312:321   */\n  dup4\n    /* \"#utility.yul\":303:310   */\n  dup6\n    /* \"#utility.yul\":299:322   */\n  sub\n    /* \"#utility.yul\":295:327   */\n  slt\n    /* \"#utility.yul\":292:344   */\n  iszero\n  tag_25\n  jumpi\n    /* \"#utility.yul\":340:341   */\n  0x00\n    /* \"#utility.yul\":337:338   */\n  dup1\n    /* \"#utility.yul\":330:342   */\n  revert\n    /* \"#utility.yul\":292:344   */\ntag_25:\n    /* \"#utility.yul\":372:381   */\n  dup3\n    /* \"#utility.yul\":366:382   */\n  mload\n    /* \"#utility.yul\":391:429   */\n  tag_26\n    /* \"#utility.yul\":423:428   */\n  dup2\n    /* \"#utility.yul\":391:429   */\n  tag_20\n  jump\t// in\ntag_26:\n    /* \"#utility.yul\":498:500   */\n  0x20\n    /* \"#utility.yul\":483:501   */\n  dup5\n  add\n    /* \"#utility.yul\":477:502   */\n  mload\n    /* \"#utility.yul\":448:453   */\n  swap1\n  swap3\n  pop\n    /* \"#utility.yul\":511:551   */\n  tag_27\n    /* \"#utility.yul\":477:502   */\n  dup2\n    /* \"#utility.yul\":511:551   */\n  tag_20\n  jump\t// in\ntag_27:\n    /* \"#utility.yul\":570:577   */\n  dup1\n    /* \"#utility.yul\":560:577   */\n  swap2\n  pop\n  pop\n    /* \"#utility.yul\":157:583   */\n  swap3\n  pop\n  swap3\n  swap1\n  pop\n  jump\t// out\n    /* \"#utility.yul\":588:968   */\ntag_10:\n    /* \"#utility.yul\":667:668   */\n  0x01\n    /* \"#utility.yul\":663:675   */\n  dup2\n  dup2\n  shr\n  swap1\n    /* \"#utility.yul\":710:722   */\n  dup3\n  and\n  dup1\n    /* \"#utility.yul\":731:792   */\n  tag_29\n  jumpi\n    /* \"#utility.yul\":785:789   */\n  0x7f\n    /* \"#utility.yul\":777:783   */\n  dup3\n    /* \"#utility.yul\":773:790   */\n  and\n    /* \"#utility.yul\":763:790   */\n  swap2\n  pop\n    /* \"#utility.yul\":731:792   */\ntag_29:\n    /* \"#utility.yul\":838:840   */\n  0x20\n    /* \"#utility.yul\":830:836   */\n  dup3\n    /* \"#utility.yul\":827:841   */\n  lt\n    /* \"#utility.yul\":807:825   */\n  dup2\n    /* \"#utility.yul\":804:842   */\n  eq\n    /* \"#utility.yul\":801:962   */\n  iszero\n  tag_30\n  jumpi\n    /* \"#utility.yul\":884:894   */\n  0x4e487b71\n    /* \"#utility.yul\":879:882   */\n  0xe0\n    /* \"#utility.yul\":875:895   */\n  shl\n    /* \"#utility.yul\":872:873   */\n  0x00\n    /* \"#utility.yul\":865:896   */\n  mstore\n    /* \"#utility.yul\":919:923   */\n  0x22\n    /* \"#utility.yul\":916:917   */\n  0x04\n    /* \"#utility.yul\":909:924   */\n  mstore\n    /* \"#utility.yul\":947:951   */\n  0x24\n    /* \"#utility.yul\":944:945   */\n  0x00\n    /* \"#utility.yul\":937:952   */\n  revert\n    /* \"#utility.yul\":801:962   */\ntag_30:\n  pop\n    /* \"#utility.yul\":588:968   */\n  swap2\n  swap1\n  pop\n  jump\t// out\ntag_21:\n    /* \"contracts/SolidityByExample/Staking.sol\":108:1978  contract TokenForm {... */\n  dataSize(sub_0)\n  dup1\n  dataOffset(sub_0)\n  0x00\n  codecopy\n  0x00\n  return\nstop\n\nsub_0: assembly {\n        /* \"contracts/SolidityByExample/Staking.sol\":108:1978  contract TokenForm {... */\n      mstore(0x40, 0x80)\n      callvalue\n      dup1\n      iszero\n      tag_1\n      jumpi\n      0x00\n      dup1\n      revert\n    tag_1:\n      pop\n      jumpi(tag_2, lt(calldatasize, 0x04))\n      shr(0xe0, calldataload(0x00))\n      dup1\n      0x7ac3cac8\n      gt\n      tag_14\n      jumpi\n      dup1\n      0x7ac3cac8\n      eq\n      tag_8\n      jumpi\n      dup1\n      0x8da5cb5b\n      eq\n      tag_9\n      jumpi\n      dup1\n      0xa5ce413b\n      eq\n      tag_10\n      jumpi\n      dup1\n      0xc93c8f34\n      eq\n      tag_11\n      jumpi\n      dup1\n      0xce6e10b3\n      eq\n      tag_12\n      jumpi\n      dup1\n      0xfd5e6dd1\n      eq\n      tag_13\n      jumpi\n      0x00\n      dup1\n      revert\n    tag_14:\n      dup1\n      0x06fdde03\n      eq\n      tag_3\n      jumpi\n      dup1\n      0x45bc78ab\n      eq\n      tag_4\n      jumpi\n      dup1\n      0x60ab5852\n      eq\n      tag_5\n      jumpi\n      dup1\n      0x6f49712b\n      eq\n      tag_6\n      jumpi\n      dup1\n      0x7547c7a3\n      eq\n      tag_7\n      jumpi\n    tag_2:\n      0x00\n      dup1\n      revert\n        /* \"contracts/SolidityByExample/Staking.sol\":130:169  string public name = \"Range Token Farm\" */\n    tag_3:\n      tag_15\n      tag_16\n      jump\t// in\n    tag_15:\n      mload(0x40)\n      tag_17\n      swap2\n      swap1\n      tag_18\n      jump\t// in\n    tag_17:\n      mload(0x40)\n      dup1\n      swap2\n      sub\n      swap1\n      return\n        /* \"contracts/SolidityByExample/Staking.sol\":277:323  mapping(address => uint) public stakingBalance */\n    tag_4:\n      tag_19\n      tag_20\n      calldatasize\n      0x04\n      tag_21\n      jump\t// in\n    tag_20:\n      mstore(0x20, 0x05)\n      0x00\n      swap1\n      dup2\n      mstore\n      0x40\n      swap1\n      keccak256\n      sload\n      dup2\n      jump\n    tag_19:\n      mload(0x40)\n        /* \"#utility.yul\":1053:1078   */\n      swap1\n      dup2\n      mstore\n        /* \"#utility.yul\":1041:1043   */\n      0x20\n        /* \"#utility.yul\":1026:1044   */\n      add\n        /* \"contracts/SolidityByExample/Staking.sol\":277:323  mapping(address => uint) public stakingBalance */\n      tag_17\n        /* \"#utility.yul\":907:1084   */\n      jump\n        /* \"contracts/SolidityByExample/Staking.sol\":1616:1976  function issueTokens() public {... */\n    tag_5:\n      tag_25\n      tag_26\n      jump\t// in\n    tag_25:\n      stop\n        /* \"contracts/SolidityByExample/Staking.sol\":370:411  mapping(address => bool) public isStaking */\n    tag_6:\n      tag_27\n      tag_28\n      calldatasize\n      0x04\n      tag_21\n      jump\t// in\n    tag_28:\n      mstore(0x20, 0x07)\n      0x00\n      swap1\n      dup2\n      mstore\n      0x40\n      swap1\n      keccak256\n      sload\n      0xff\n      and\n      dup2\n      jump\n    tag_27:\n      mload(0x40)\n        /* \"#utility.yul\":1254:1268   */\n      swap1\n      iszero\n        /* \"#utility.yul\":1247:1269   */\n      iszero\n        /* \"#utility.yul\":1229:1270   */\n      dup2\n      mstore\n        /* \"#utility.yul\":1217:1219   */\n      0x20\n        /* \"#utility.yul\":1202:1220   */\n      add\n        /* \"contracts/SolidityByExample/Staking.sol\":370:411  mapping(address => bool) public isStaking */\n      tag_17\n        /* \"#utility.yul\":1089:1276   */\n      jump\n        /* \"contracts/SolidityByExample/Staking.sol\":564:1138  function stakeTokens(uint _amount) public {... */\n    tag_7:\n      tag_25\n      tag_33\n      calldatasize\n      0x04\n      tag_34\n      jump\t// in\n    tag_33:\n      tag_35\n      jump\t// in\n        /* \"contracts/SolidityByExample/Staking.sol\":195:218  Range public rangeToken */\n    tag_8:\n      sload(0x02)\n      tag_36\n      swap1\n      sub(shl(0xa0, 0x01), 0x01)\n      and\n      dup2\n      jump\n    tag_36:\n      mload(0x40)\n      sub(shl(0xa0, 0x01), 0x01)\n        /* \"#utility.yul\":1643:1675   */\n      swap1\n      swap2\n      and\n        /* \"#utility.yul\":1625:1676   */\n      dup2\n      mstore\n        /* \"#utility.yul\":1613:1615   */\n      0x20\n        /* \"#utility.yul\":1598:1616   */\n      add\n        /* \"contracts/SolidityByExample/Staking.sol\":195:218  Range public rangeToken */\n      tag_17\n        /* \"#utility.yul\":1466:1682   */\n      jump\n        /* \"contracts/SolidityByExample/Staking.sol\":172:192  address public owner */\n    tag_9:\n      sload(0x01)\n      tag_36\n      swap1\n      sub(shl(0xa0, 0x01), 0x01)\n      and\n      dup2\n      jump\n        /* \"contracts/SolidityByExample/Staking.sol\":1173:1594  function unstakeTokens() public {... */\n    tag_10:\n      tag_25\n      tag_45\n      jump\t// in\n        /* \"contracts/SolidityByExample/Staking.sol\":326:367  mapping(address => bool) public hasStaked */\n    tag_11:\n      tag_27\n      tag_47\n      calldatasize\n      0x04\n      tag_21\n      jump\t// in\n    tag_47:\n      mstore(0x20, 0x06)\n      0x00\n      swap1\n      dup2\n      mstore\n      0x40\n      swap1\n      keccak256\n      sload\n      0xff\n      and\n      dup2\n      jump\n        /* \"contracts/SolidityByExample/Staking.sol\":221:246  mRange public mRangeToken */\n    tag_12:\n      sload(0x03)\n      tag_36\n      swap1\n      sub(shl(0xa0, 0x01), 0x01)\n      and\n      dup2\n      jump\n        /* \"contracts/SolidityByExample/Staking.sol\":250:274  address[] public stakers */\n    tag_13:\n      tag_36\n      tag_55\n      calldatasize\n      0x04\n      tag_34\n      jump\t// in\n    tag_55:\n      tag_56\n      jump\t// in\n        /* \"contracts/SolidityByExample/Staking.sol\":130:169  string public name = \"Range Token Farm\" */\n    tag_16:\n      0x00\n      dup1\n      sload\n      tag_58\n      swap1\n      tag_59\n      jump\t// in\n    tag_58:\n      dup1\n      0x1f\n      add\n      0x20\n      dup1\n      swap2\n      div\n      mul\n      0x20\n      add\n      mload(0x40)\n      swap1\n      dup2\n      add\n      0x40\n      mstore\n      dup1\n      swap3\n      swap2\n      swap1\n      dup2\n      dup2\n      mstore\n      0x20\n      add\n      dup3\n      dup1\n      sload\n      tag_60\n      swap1\n      tag_59\n      jump\t// in\n    tag_60:\n      dup1\n      iszero\n      tag_61\n      jumpi\n      dup1\n      0x1f\n      lt\n      tag_62\n      jumpi\n      0x0100\n      dup1\n      dup4\n      sload\n      div\n      mul\n      dup4\n      mstore\n      swap2\n      0x20\n      add\n      swap2\n      jump(tag_61)\n    tag_62:\n      dup3\n      add\n      swap2\n      swap1\n      0x00\n      mstore\n      keccak256(0x00, 0x20)\n      swap1\n    tag_63:\n      dup2\n      sload\n      dup2\n      mstore\n      swap1\n      0x01\n      add\n      swap1\n      0x20\n      add\n      dup1\n      dup4\n      gt\n      tag_63\n      jumpi\n      dup3\n      swap1\n      sub\n      0x1f\n      and\n      dup3\n      add\n      swap2\n    tag_61:\n      pop\n      pop\n      pop\n      pop\n      pop\n      dup2\n      jump\t// out\n        /* \"contracts/SolidityByExample/Staking.sol\":1616:1976  function issueTokens() public {... */\n    tag_26:\n        /* \"contracts/SolidityByExample/Staking.sol\":1707:1712  owner */\n      and(sub(shl(0xa0, 0x01), 0x01), sload(0x01))\n        /* \"contracts/SolidityByExample/Staking.sol\":1693:1703  msg.sender */\n      caller\n        /* \"contracts/SolidityByExample/Staking.sol\":1693:1712  msg.sender == owner */\n      eq\n        /* \"contracts/SolidityByExample/Staking.sol\":1685:1741  require(msg.sender == owner, \"caller must be the owner\") */\n      tag_65\n      jumpi\n      mload(0x40)\n      shl(0xe5, 0x461bcd)\n      dup2\n      mstore\n        /* \"#utility.yul\":2704:2706   */\n      0x20\n        /* \"contracts/SolidityByExample/Staking.sol\":1685:1741  require(msg.sender == owner, \"caller must be the owner\") */\n      0x04\n      dup3\n      add\n        /* \"#utility.yul\":2686:2707   */\n      mstore\n        /* \"#utility.yul\":2743:2745   */\n      0x18\n        /* \"#utility.yul\":2723:2741   */\n      0x24\n      dup3\n      add\n        /* \"#utility.yul\":2716:2746   */\n      mstore\n        /* \"#utility.yul\":2782:2808   */\n      0x63616c6c6572206d75737420626520746865206f776e65720000000000000000\n        /* \"#utility.yul\":2762:2780   */\n      0x44\n      dup3\n      add\n        /* \"#utility.yul\":2755:2809   */\n      mstore\n        /* \"#utility.yul\":2826:2844   */\n      0x64\n      add\n        /* \"contracts/SolidityByExample/Staking.sol\":1685:1741  require(msg.sender == owner, \"caller must be the owner\") */\n    tag_66:\n      mload(0x40)\n      dup1\n      swap2\n      sub\n      swap1\n      revert\n    tag_65:\n        /* \"contracts/SolidityByExample/Staking.sol\":1783:1789  uint i */\n      0x00\n        /* \"contracts/SolidityByExample/Staking.sol\":1778:1973  for (uint i=0; i<stakers.length; i++) {... */\n    tag_68:\n        /* \"contracts/SolidityByExample/Staking.sol\":1795:1802  stakers */\n      0x04\n        /* \"contracts/SolidityByExample/Staking.sol\":1795:1809  stakers.length */\n      sload\n        /* \"contracts/SolidityByExample/Staking.sol\":1793:1809  i<stakers.length */\n      dup2\n      lt\n        /* \"contracts/SolidityByExample/Staking.sol\":1778:1973  for (uint i=0; i<stakers.length; i++) {... */\n      iszero\n      tag_69\n      jumpi\n        /* \"contracts/SolidityByExample/Staking.sol\":1821:1838  address recipient */\n      0x00\n        /* \"contracts/SolidityByExample/Staking.sol\":1841:1848  stakers */\n      0x04\n        /* \"contracts/SolidityByExample/Staking.sol\":1849:1850  i */\n      dup3\n        /* \"contracts/SolidityByExample/Staking.sol\":1841:1851  stakers[i] */\n      dup2\n      sload\n      dup2\n      lt\n      tag_72\n      jumpi\n      tag_72\n      tag_73\n      jump\t// in\n    tag_72:\n      0x00\n      swap2\n      dup3\n      mstore\n      0x20\n      dup1\n      dup4\n      keccak256\n      swap1\n      swap2\n      add\n      sload\n      sub(shl(0xa0, 0x01), 0x01)\n      and\n        /* \"contracts/SolidityByExample/Staking.sol\":1871:1896  stakingBalance[recipient] */\n      dup1\n      dup4\n      mstore\n        /* \"contracts/SolidityByExample/Staking.sol\":1871:1885  stakingBalance */\n      0x05\n        /* \"contracts/SolidityByExample/Staking.sol\":1871:1896  stakingBalance[recipient] */\n      swap1\n      swap2\n      mstore\n      0x40\n      swap1\n      swap2\n      keccak256\n      sload\n        /* \"contracts/SolidityByExample/Staking.sol\":1841:1851  stakers[i] */\n      swap1\n      swap2\n      pop\n        /* \"contracts/SolidityByExample/Staking.sol\":1904:1915  balance > 0 */\n      dup1\n      iszero\n        /* \"contracts/SolidityByExample/Staking.sol\":1901:1969  if(balance > 0) {... */\n      tag_75\n      jumpi\n        /* \"contracts/SolidityByExample/Staking.sol\":1923:1934  mRangeToken */\n      sload(0x03)\n        /* \"contracts/SolidityByExample/Staking.sol\":1923:1963  mRangeToken.transfer(recipient, balance) */\n      mload(0x40)\n      shl(0xe0, 0xa9059cbb)\n      dup2\n      mstore\n      sub(shl(0xa0, 0x01), 0x01)\n        /* \"#utility.yul\":3179:3211   */\n      dup5\n      dup2\n      and\n        /* \"contracts/SolidityByExample/Staking.sol\":1923:1963  mRangeToken.transfer(recipient, balance) */\n      0x04\n      dup4\n      add\n        /* \"#utility.yul\":3161:3212   */\n      mstore\n        /* \"#utility.yul\":3228:3246   */\n      0x24\n      dup3\n      add\n        /* \"#utility.yul\":3221:3255   */\n      dup5\n      swap1\n      mstore\n        /* \"contracts/SolidityByExample/Staking.sol\":1923:1934  mRangeToken */\n      swap1\n      swap2\n      and\n      swap1\n        /* \"contracts/SolidityByExample/Staking.sol\":1923:1943  mRangeToken.transfer */\n      0xa9059cbb\n      swap1\n        /* \"#utility.yul\":3134:3152   */\n      0x44\n      add\n        /* \"contracts/SolidityByExample/Staking.sol\":1923:1963  mRangeToken.transfer(recipient, balance) */\n      0x20\n      mload(0x40)\n      dup1\n      dup4\n      sub\n      dup2\n      0x00\n      dup8\n      gas\n      call\n      iszero\n      dup1\n      iszero\n      tag_79\n      jumpi\n      returndatasize\n      0x00\n      dup1\n      returndatacopy\n      revert(0x00, returndatasize)\n    tag_79:\n      pop\n      pop\n      pop\n      pop\n      mload(0x40)\n      returndatasize\n      not(0x1f)\n      0x1f\n      dup3\n      add\n      and\n      dup3\n      add\n      dup1\n      0x40\n      mstore\n      pop\n      dup2\n      add\n      swap1\n      tag_80\n      swap2\n      swap1\n      tag_81\n      jump\t// in\n    tag_80:\n      pop\n        /* \"contracts/SolidityByExample/Staking.sol\":1901:1969  if(balance > 0) {... */\n    tag_75:\n        /* \"contracts/SolidityByExample/Staking.sol\":1816:1973  {... */\n      pop\n      pop\n        /* \"contracts/SolidityByExample/Staking.sol\":1811:1814  i++ */\n      dup1\n      dup1\n      tag_82\n      swap1\n      tag_83\n      jump\t// in\n    tag_82:\n      swap2\n      pop\n      pop\n        /* \"contracts/SolidityByExample/Staking.sol\":1778:1973  for (uint i=0; i<stakers.length; i++) {... */\n      jump(tag_68)\n    tag_69:\n      pop\n        /* \"contracts/SolidityByExample/Staking.sol\":1616:1976  function issueTokens() public {... */\n      jump\t// out\n        /* \"contracts/SolidityByExample/Staking.sol\":564:1138  function stakeTokens(uint _amount) public {... */\n    tag_35:\n        /* \"contracts/SolidityByExample/Staking.sol\":663:664  0 */\n      0x00\n        /* \"contracts/SolidityByExample/Staking.sol\":653:660  _amount */\n      dup2\n        /* \"contracts/SolidityByExample/Staking.sol\":653:664  _amount > 0 */\n      gt\n        /* \"contracts/SolidityByExample/Staking.sol\":645:687  require(_amount > 0, \"amount cannot be 0\") */\n      tag_85\n      jumpi\n      mload(0x40)\n      shl(0xe5, 0x461bcd)\n      dup2\n      mstore\n        /* \"#utility.yul\":4022:4024   */\n      0x20\n        /* \"contracts/SolidityByExample/Staking.sol\":645:687  require(_amount > 0, \"amount cannot be 0\") */\n      0x04\n      dup3\n      add\n        /* \"#utility.yul\":4004:4025   */\n      mstore\n        /* \"#utility.yul\":4061:4063   */\n      0x12\n        /* \"#utility.yul\":4041:4059   */\n      0x24\n      dup3\n      add\n        /* \"#utility.yul\":4034:4064   */\n      mstore\n      shl(0x74, 0x0616d6f756e742063616e6e6f74206265203)\n        /* \"#utility.yul\":4080:4098   */\n      0x44\n      dup3\n      add\n        /* \"#utility.yul\":4073:4121   */\n      mstore\n        /* \"#utility.yul\":4138:4156   */\n      0x64\n      add\n        /* \"contracts/SolidityByExample/Staking.sol\":645:687  require(_amount > 0, \"amount cannot be 0\") */\n      tag_66\n        /* \"#utility.yul\":3820:4162   */\n      jump\n        /* \"contracts/SolidityByExample/Staking.sol\":645:687  require(_amount > 0, \"amount cannot be 0\") */\n    tag_85:\n        /* \"contracts/SolidityByExample/Staking.sol\":751:761  rangeToken */\n      sload(0x02)\n        /* \"contracts/SolidityByExample/Staking.sol\":751:810  rangeToken.transferFrom(msg.sender, address(this), _amount) */\n      mload(0x40)\n      shl(0xe0, 0x23b872dd)\n      dup2\n      mstore\n        /* \"contracts/SolidityByExample/Staking.sol\":775:785  msg.sender */\n      caller\n        /* \"contracts/SolidityByExample/Staking.sol\":751:810  rangeToken.transferFrom(msg.sender, address(this), _amount) */\n      0x04\n      dup3\n      add\n        /* \"#utility.yul\":4407:4441   */\n      mstore\n        /* \"contracts/SolidityByExample/Staking.sol\":795:799  this */\n      address\n        /* \"#utility.yul\":4457:4475   */\n      0x24\n      dup3\n      add\n        /* \"#utility.yul\":4450:4493   */\n      mstore\n        /* \"#utility.yul\":4509:4527   */\n      0x44\n      dup2\n      add\n        /* \"#utility.yul\":4502:4536   */\n      dup4\n      swap1\n      mstore\n      sub(shl(0xa0, 0x01), 0x01)\n        /* \"contracts/SolidityByExample/Staking.sol\":751:761  rangeToken */\n      swap1\n      swap2\n      and\n      swap1\n        /* \"contracts/SolidityByExample/Staking.sol\":751:774  rangeToken.transferFrom */\n      0x23b872dd\n      swap1\n        /* \"#utility.yul\":4342:4360   */\n      0x64\n      add\n        /* \"contracts/SolidityByExample/Staking.sol\":751:810  rangeToken.transferFrom(msg.sender, address(this), _amount) */\n      0x20\n      mload(0x40)\n      dup1\n      dup4\n      sub\n      dup2\n      0x00\n      dup8\n      gas\n      call\n      iszero\n      dup1\n      iszero\n      tag_91\n      jumpi\n      returndatasize\n      0x00\n      dup1\n      returndatacopy\n      revert(0x00, returndatasize)\n    tag_91:\n      pop\n      pop\n      pop\n      pop\n      mload(0x40)\n      returndatasize\n      not(0x1f)\n      0x1f\n      dup3\n      add\n      and\n      dup3\n      add\n      dup1\n      0x40\n      mstore\n      pop\n      dup2\n      add\n      swap1\n      tag_92\n      swap2\n      swap1\n      tag_81\n      jump\t// in\n    tag_92:\n      pop\n        /* \"contracts/SolidityByExample/Staking.sol\":887:897  msg.sender */\n      caller\n        /* \"contracts/SolidityByExample/Staking.sol\":872:898  stakingBalance[msg.sender] */\n      0x00\n      swap1\n      dup2\n      mstore\n        /* \"contracts/SolidityByExample/Staking.sol\":872:886  stakingBalance */\n      0x05\n        /* \"contracts/SolidityByExample/Staking.sol\":872:898  stakingBalance[msg.sender] */\n      0x20\n      mstore\n      0x40\n      swap1\n      keccak256\n      sload\n        /* \"contracts/SolidityByExample/Staking.sol\":872:908  stakingBalance[msg.sender] + _amount */\n      tag_93\n      swap1\n        /* \"contracts/SolidityByExample/Staking.sol\":901:908  _amount */\n      dup3\n      swap1\n        /* \"contracts/SolidityByExample/Staking.sol\":872:908  stakingBalance[msg.sender] + _amount */\n      tag_94\n      jump\t// in\n    tag_93:\n        /* \"contracts/SolidityByExample/Staking.sol\":858:868  msg.sender */\n      caller\n        /* \"contracts/SolidityByExample/Staking.sol\":843:869  stakingBalance[msg.sender] */\n      0x00\n      swap1\n      dup2\n      mstore\n        /* \"contracts/SolidityByExample/Staking.sol\":843:857  stakingBalance */\n      0x05\n        /* \"contracts/SolidityByExample/Staking.sol\":843:869  stakingBalance[msg.sender] */\n      0x20\n      swap1\n      dup2\n      mstore\n      0x40\n      dup1\n      dup4\n      keccak256\n        /* \"contracts/SolidityByExample/Staking.sol\":843:908  stakingBalance[msg.sender] = stakingBalance[msg.sender] + _amount */\n      swap4\n      swap1\n      swap4\n      sstore\n        /* \"contracts/SolidityByExample/Staking.sol\":986:995  hasStaked */\n      0x06\n        /* \"contracts/SolidityByExample/Staking.sol\":986:1007  hasStaked[msg.sender] */\n      swap1\n      mstore\n      keccak256\n      sload\n      0xff\n      and\n        /* \"contracts/SolidityByExample/Staking.sol\":982:1043  if(!hasStaked[msg.sender]) {... */\n      tag_95\n      jumpi\n        /* \"contracts/SolidityByExample/Staking.sol\":1014:1021  stakers */\n      0x04\n        /* \"contracts/SolidityByExample/Staking.sol\":1014:1038  stakers.push(msg.sender) */\n      dup1\n      sload\n      0x01\n      dup2\n      add\n      dup3\n      sstore\n      0x00\n      swap2\n      swap1\n      swap2\n      mstore\n      0x8a35acfbc15ff81a39ae7d344fd709f28e8600b4aa8c65c6b64bfe7fe36bd19b\n      add\n      dup1\n      sload\n      not(sub(shl(0xa0, 0x01), 0x01))\n      and\n        /* \"contracts/SolidityByExample/Staking.sol\":1027:1037  msg.sender */\n      caller\n        /* \"contracts/SolidityByExample/Staking.sol\":1014:1038  stakers.push(msg.sender) */\n      or\n      swap1\n      sstore\n        /* \"contracts/SolidityByExample/Staking.sol\":982:1043  if(!hasStaked[msg.sender]) {... */\n    tag_95:\n      pop\n        /* \"contracts/SolidityByExample/Staking.sol\":1083:1093  msg.sender */\n      caller\n        /* \"contracts/SolidityByExample/Staking.sol\":1073:1094  isStaking[msg.sender] */\n      0x00\n      swap1\n      dup2\n      mstore\n        /* \"contracts/SolidityByExample/Staking.sol\":1073:1082  isStaking */\n      0x07\n        /* \"contracts/SolidityByExample/Staking.sol\":1073:1094  isStaking[msg.sender] */\n      0x20\n      swap1\n      dup2\n      mstore\n      0x40\n      dup1\n      dup4\n      keccak256\n        /* \"contracts/SolidityByExample/Staking.sol\":1073:1101  isStaking[msg.sender] = true */\n      dup1\n      sload\n        /* \"contracts/SolidityByExample/Staking.sol\":1097:1101  true */\n      0x01\n      not(0xff)\n        /* \"contracts/SolidityByExample/Staking.sol\":1073:1101  isStaking[msg.sender] = true */\n      swap2\n      dup3\n      and\n      dup2\n      or\n      swap1\n      swap3\n      sstore\n        /* \"contracts/SolidityByExample/Staking.sol\":1105:1114  hasStaked */\n      0x06\n        /* \"contracts/SolidityByExample/Staking.sol\":1105:1126  hasStaked[msg.sender] */\n      swap1\n      swap4\n      mstore\n      swap3\n      keccak256\n        /* \"contracts/SolidityByExample/Staking.sol\":1105:1133  hasStaked[msg.sender] = true */\n      dup1\n      sload\n      swap1\n      swap2\n      and\n      swap1\n      swap2\n      or\n      swap1\n      sstore\n        /* \"contracts/SolidityByExample/Staking.sol\":564:1138  function stakeTokens(uint _amount) public {... */\n      jump\t// out\n        /* \"contracts/SolidityByExample/Staking.sol\":1173:1594  function unstakeTokens() public {... */\n    tag_45:\n        /* \"contracts/SolidityByExample/Staking.sol\":1264:1274  msg.sender */\n      caller\n        /* \"contracts/SolidityByExample/Staking.sol\":1235:1247  uint balance */\n      0x00\n        /* \"contracts/SolidityByExample/Staking.sol\":1249:1275  stakingBalance[msg.sender] */\n      swap1\n      dup2\n      mstore\n        /* \"contracts/SolidityByExample/Staking.sol\":1249:1263  stakingBalance */\n      0x05\n        /* \"contracts/SolidityByExample/Staking.sol\":1249:1275  stakingBalance[msg.sender] */\n      0x20\n      mstore\n      0x40\n      swap1\n      keccak256\n      sload\n        /* \"contracts/SolidityByExample/Staking.sol\":1322:1333  balance > 0 */\n      dup1\n        /* \"contracts/SolidityByExample/Staking.sol\":1314:1365  require(balance > 0, \"staking balance cannot be 0\") */\n      tag_98\n      jumpi\n      mload(0x40)\n      shl(0xe5, 0x461bcd)\n      dup2\n      mstore\n        /* \"#utility.yul\":4882:4884   */\n      0x20\n        /* \"contracts/SolidityByExample/Staking.sol\":1314:1365  require(balance > 0, \"staking balance cannot be 0\") */\n      0x04\n      dup3\n      add\n        /* \"#utility.yul\":4864:4885   */\n      mstore\n        /* \"#utility.yul\":4921:4923   */\n      0x1b\n        /* \"#utility.yul\":4901:4919   */\n      0x24\n      dup3\n      add\n        /* \"#utility.yul\":4894:4924   */\n      mstore\n        /* \"#utility.yul\":4960:4989   */\n      0x7374616b696e672062616c616e63652063616e6e6f7420626520300000000000\n        /* \"#utility.yul\":4940:4958   */\n      0x44\n      dup3\n      add\n        /* \"#utility.yul\":4933:4990   */\n      mstore\n        /* \"#utility.yul\":5007:5025   */\n      0x64\n      add\n        /* \"contracts/SolidityByExample/Staking.sol\":1314:1365  require(balance > 0, \"staking balance cannot be 0\") */\n      tag_66\n        /* \"#utility.yul\":4680:5031   */\n      jump\n        /* \"contracts/SolidityByExample/Staking.sol\":1314:1365  require(balance > 0, \"staking balance cannot be 0\") */\n    tag_98:\n        /* \"contracts/SolidityByExample/Staking.sol\":1429:1439  rangeToken */\n      sload(0x02)\n        /* \"contracts/SolidityByExample/Staking.sol\":1429:1469  rangeToken.transfer(msg.sender, balance) */\n      mload(0x40)\n      shl(0xe0, 0xa9059cbb)\n      dup2\n      mstore\n        /* \"contracts/SolidityByExample/Staking.sol\":1449:1459  msg.sender */\n      caller\n        /* \"contracts/SolidityByExample/Staking.sol\":1429:1469  rangeToken.transfer(msg.sender, balance) */\n      0x04\n      dup3\n      add\n        /* \"#utility.yul\":3161:3212   */\n      mstore\n        /* \"#utility.yul\":3228:3246   */\n      0x24\n      dup2\n      add\n        /* \"#utility.yul\":3221:3255   */\n      dup4\n      swap1\n      mstore\n      sub(shl(0xa0, 0x01), 0x01)\n        /* \"contracts/SolidityByExample/Staking.sol\":1429:1439  rangeToken */\n      swap1\n      swap2\n      and\n      swap1\n        /* \"contracts/SolidityByExample/Staking.sol\":1429:1448  rangeToken.transfer */\n      0xa9059cbb\n      swap1\n        /* \"#utility.yul\":3134:3152   */\n      0x44\n      add\n        /* \"contracts/SolidityByExample/Staking.sol\":1429:1469  rangeToken.transfer(msg.sender, balance) */\n      0x20\n      mload(0x40)\n      dup1\n      dup4\n      sub\n      dup2\n      0x00\n      dup8\n      gas\n      call\n      iszero\n      dup1\n      iszero\n      tag_103\n      jumpi\n      returndatasize\n      0x00\n      dup1\n      returndatacopy\n      revert(0x00, returndatasize)\n    tag_103:\n      pop\n      pop\n      pop\n      pop\n      mload(0x40)\n      returndatasize\n      not(0x1f)\n      0x1f\n      dup3\n      add\n      and\n      dup3\n      add\n      dup1\n      0x40\n      mstore\n      pop\n      dup2\n      add\n      swap1\n      tag_104\n      swap2\n      swap1\n      tag_81\n      jump\t// in\n    tag_104:\n      pop\n      pop\n        /* \"contracts/SolidityByExample/Staking.sol\":1514:1524  msg.sender */\n      caller\n        /* \"contracts/SolidityByExample/Staking.sol\":1528:1529  0 */\n      0x00\n        /* \"contracts/SolidityByExample/Staking.sol\":1499:1525  stakingBalance[msg.sender] */\n      swap1\n      dup2\n      mstore\n        /* \"contracts/SolidityByExample/Staking.sol\":1499:1513  stakingBalance */\n      0x05\n        /* \"contracts/SolidityByExample/Staking.sol\":1499:1525  stakingBalance[msg.sender] */\n      0x20\n      swap1\n      dup2\n      mstore\n      0x40\n      dup1\n      dup4\n      keccak256\n        /* \"contracts/SolidityByExample/Staking.sol\":1499:1529  stakingBalance[msg.sender] = 0 */\n      dup4\n      swap1\n      sstore\n        /* \"contracts/SolidityByExample/Staking.sol\":1560:1569  isStaking */\n      0x07\n        /* \"contracts/SolidityByExample/Staking.sol\":1560:1581  isStaking[msg.sender] */\n      swap1\n      swap2\n      mstore\n      swap1\n      keccak256\n        /* \"contracts/SolidityByExample/Staking.sol\":1560:1589  isStaking[msg.sender] = false */\n      dup1\n      sload\n      not(0xff)\n      and\n      swap1\n      sstore\n        /* \"contracts/SolidityByExample/Staking.sol\":1173:1594  function unstakeTokens() public {... */\n      jump\t// out\n        /* \"contracts/SolidityByExample/Staking.sol\":250:274  address[] public stakers */\n    tag_56:\n      0x04\n      dup2\n      dup2\n      sload\n      dup2\n      lt\n      tag_105\n      jumpi\n      0x00\n      dup1\n      revert\n    tag_105:\n      0x00\n      swap2\n      dup3\n      mstore\n      0x20\n      swap1\n      swap2\n      keccak256\n      add\n      sload\n      sub(shl(0xa0, 0x01), 0x01)\n      and\n      swap1\n      pop\n      dup2\n      jump\t// out\n        /* \"#utility.yul\":14:611   */\n    tag_18:\n        /* \"#utility.yul\":126:130   */\n      0x00\n        /* \"#utility.yul\":155:157   */\n      0x20\n        /* \"#utility.yul\":184:186   */\n      dup1\n        /* \"#utility.yul\":173:182   */\n      dup4\n        /* \"#utility.yul\":166:187   */\n      mstore\n        /* \"#utility.yul\":216:222   */\n      dup4\n        /* \"#utility.yul\":210:223   */\n      mload\n        /* \"#utility.yul\":259:265   */\n      dup1\n        /* \"#utility.yul\":254:256   */\n      dup3\n        /* \"#utility.yul\":243:252   */\n      dup6\n        /* \"#utility.yul\":239:257   */\n      add\n        /* \"#utility.yul\":232:266   */\n      mstore\n        /* \"#utility.yul\":284:285   */\n      0x00\n        /* \"#utility.yul\":294:434   */\n    tag_110:\n        /* \"#utility.yul\":308:314   */\n      dup2\n        /* \"#utility.yul\":305:306   */\n      dup2\n        /* \"#utility.yul\":302:315   */\n      lt\n        /* \"#utility.yul\":294:434   */\n      iszero\n      tag_112\n      jumpi\n        /* \"#utility.yul\":403:417   */\n      dup6\n      dup2\n      add\n        /* \"#utility.yul\":399:422   */\n      dup4\n      add\n        /* \"#utility.yul\":393:423   */\n      mload\n        /* \"#utility.yul\":369:386   */\n      dup6\n      dup3\n      add\n        /* \"#utility.yul\":388:390   */\n      0x40\n        /* \"#utility.yul\":365:391   */\n      add\n        /* \"#utility.yul\":358:424   */\n      mstore\n        /* \"#utility.yul\":323:333   */\n      dup3\n      add\n        /* \"#utility.yul\":294:434   */\n      jump(tag_110)\n    tag_112:\n        /* \"#utility.yul\":452:458   */\n      dup2\n        /* \"#utility.yul\":449:450   */\n      dup2\n        /* \"#utility.yul\":446:459   */\n      gt\n        /* \"#utility.yul\":443:534   */\n      iszero\n      tag_113\n      jumpi\n        /* \"#utility.yul\":522:523   */\n      0x00\n        /* \"#utility.yul\":517:519   */\n      0x40\n        /* \"#utility.yul\":508:514   */\n      dup4\n        /* \"#utility.yul\":497:506   */\n      dup8\n        /* \"#utility.yul\":493:515   */\n      add\n        /* \"#utility.yul\":489:520   */\n      add\n        /* \"#utility.yul\":482:524   */\n      mstore\n        /* \"#utility.yul\":443:534   */\n    tag_113:\n      pop\n        /* \"#utility.yul\":595:597   */\n      0x1f\n        /* \"#utility.yul\":574:589   */\n      add\n      not(0x1f)\n        /* \"#utility.yul\":570:599   */\n      and\n        /* \"#utility.yul\":555:600   */\n      swap3\n      swap1\n      swap3\n      add\n        /* \"#utility.yul\":602:604   */\n      0x40\n        /* \"#utility.yul\":551:605   */\n      add\n      swap4\n        /* \"#utility.yul\":14:611   */\n      swap3\n      pop\n      pop\n      pop\n      jump\t// out\n        /* \"#utility.yul\":616:902   */\n    tag_21:\n        /* \"#utility.yul\":675:681   */\n      0x00\n        /* \"#utility.yul\":728:730   */\n      0x20\n        /* \"#utility.yul\":716:725   */\n      dup3\n        /* \"#utility.yul\":707:714   */\n      dup5\n        /* \"#utility.yul\":703:726   */\n      sub\n        /* \"#utility.yul\":699:731   */\n      slt\n        /* \"#utility.yul\":696:748   */\n      iszero\n      tag_115\n      jumpi\n        /* \"#utility.yul\":744:745   */\n      0x00\n        /* \"#utility.yul\":741:742   */\n      dup1\n        /* \"#utility.yul\":734:746   */\n      revert\n        /* \"#utility.yul\":696:748   */\n    tag_115:\n        /* \"#utility.yul\":770:793   */\n      dup2\n      calldataload\n      sub(shl(0xa0, 0x01), 0x01)\n        /* \"#utility.yul\":822:853   */\n      dup2\n      and\n        /* \"#utility.yul\":812:854   */\n      dup2\n      eq\n        /* \"#utility.yul\":802:872   */\n      tag_116\n      jumpi\n        /* \"#utility.yul\":868:869   */\n      0x00\n        /* \"#utility.yul\":865:866   */\n      dup1\n        /* \"#utility.yul\":858:870   */\n      revert\n        /* \"#utility.yul\":802:872   */\n    tag_116:\n        /* \"#utility.yul\":891:896   */\n      swap4\n        /* \"#utility.yul\":616:902   */\n      swap3\n      pop\n      pop\n      pop\n      jump\t// out\n        /* \"#utility.yul\":1281:1461   */\n    tag_34:\n        /* \"#utility.yul\":1340:1346   */\n      0x00\n        /* \"#utility.yul\":1393:1395   */\n      0x20\n        /* \"#utility.yul\":1381:1390   */\n      dup3\n        /* \"#utility.yul\":1372:1379   */\n      dup5\n        /* \"#utility.yul\":1368:1391   */\n      sub\n        /* \"#utility.yul\":1364:1396   */\n      slt\n        /* \"#utility.yul\":1361:1413   */\n      iszero\n      tag_120\n      jumpi\n        /* \"#utility.yul\":1409:1410   */\n      0x00\n        /* \"#utility.yul\":1406:1407   */\n      dup1\n        /* \"#utility.yul\":1399:1411   */\n      revert\n        /* \"#utility.yul\":1361:1413   */\n    tag_120:\n      pop\n        /* \"#utility.yul\":1432:1455   */\n      calldataload\n      swap2\n        /* \"#utility.yul\":1281:1461   */\n      swap1\n      pop\n      jump\t// out\n        /* \"#utility.yul\":2117:2497   */\n    tag_59:\n        /* \"#utility.yul\":2196:2197   */\n      0x01\n        /* \"#utility.yul\":2192:2204   */\n      dup2\n      dup2\n      shr\n      swap1\n        /* \"#utility.yul\":2239:2251   */\n      dup3\n      and\n      dup1\n        /* \"#utility.yul\":2260:2321   */\n      tag_125\n      jumpi\n        /* \"#utility.yul\":2314:2318   */\n      0x7f\n        /* \"#utility.yul\":2306:2312   */\n      dup3\n        /* \"#utility.yul\":2302:2319   */\n      and\n        /* \"#utility.yul\":2292:2319   */\n      swap2\n      pop\n        /* \"#utility.yul\":2260:2321   */\n    tag_125:\n        /* \"#utility.yul\":2367:2369   */\n      0x20\n        /* \"#utility.yul\":2359:2365   */\n      dup3\n        /* \"#utility.yul\":2356:2370   */\n      lt\n        /* \"#utility.yul\":2336:2354   */\n      dup2\n        /* \"#utility.yul\":2333:2371   */\n      eq\n        /* \"#utility.yul\":2330:2491   */\n      iszero\n      tag_126\n      jumpi\n        /* \"#utility.yul\":2413:2423   */\n      0x4e487b71\n        /* \"#utility.yul\":2408:2411   */\n      0xe0\n        /* \"#utility.yul\":2404:2424   */\n      shl\n        /* \"#utility.yul\":2401:2402   */\n      0x00\n        /* \"#utility.yul\":2394:2425   */\n      mstore\n        /* \"#utility.yul\":2448:2452   */\n      0x22\n        /* \"#utility.yul\":2445:2446   */\n      0x04\n        /* \"#utility.yul\":2438:2453   */\n      mstore\n        /* \"#utility.yul\":2476:2480   */\n      0x24\n        /* \"#utility.yul\":2473:2474   */\n      0x00\n        /* \"#utility.yul\":2466:2481   */\n      revert\n        /* \"#utility.yul\":2330:2491   */\n    tag_126:\n      pop\n        /* \"#utility.yul\":2117:2497   */\n      swap2\n      swap1\n      pop\n      jump\t// out\n        /* \"#utility.yul\":2855:2982   */\n    tag_73:\n        /* \"#utility.yul\":2916:2926   */\n      0x4e487b71\n        /* \"#utility.yul\":2911:2914   */\n      0xe0\n        /* \"#utility.yul\":2907:2927   */\n      shl\n        /* \"#utility.yul\":2904:2905   */\n      0x00\n        /* \"#utility.yul\":2897:2928   */\n      mstore\n        /* \"#utility.yul\":2947:2951   */\n      0x32\n        /* \"#utility.yul\":2944:2945   */\n      0x04\n        /* \"#utility.yul\":2937:2952   */\n      mstore\n        /* \"#utility.yul\":2971:2975   */\n      0x24\n        /* \"#utility.yul\":2968:2969   */\n      0x00\n        /* \"#utility.yul\":2961:2976   */\n      revert\n        /* \"#utility.yul\":3266:3543   */\n    tag_81:\n        /* \"#utility.yul\":3333:3339   */\n      0x00\n        /* \"#utility.yul\":3386:3388   */\n      0x20\n        /* \"#utility.yul\":3374:3383   */\n      dup3\n        /* \"#utility.yul\":3365:3372   */\n      dup5\n        /* \"#utility.yul\":3361:3384   */\n      sub\n        /* \"#utility.yul\":3357:3389   */\n      slt\n        /* \"#utility.yul\":3354:3406   */\n      iszero\n      tag_131\n      jumpi\n        /* \"#utility.yul\":3402:3403   */\n      0x00\n        /* \"#utility.yul\":3399:3400   */\n      dup1\n        /* \"#utility.yul\":3392:3404   */\n      revert\n        /* \"#utility.yul\":3354:3406   */\n    tag_131:\n        /* \"#utility.yul\":3434:3443   */\n      dup2\n        /* \"#utility.yul\":3428:3444   */\n      mload\n        /* \"#utility.yul\":3487:3492   */\n      dup1\n        /* \"#utility.yul\":3480:3493   */\n      iszero\n        /* \"#utility.yul\":3473:3494   */\n      iszero\n        /* \"#utility.yul\":3466:3471   */\n      dup2\n        /* \"#utility.yul\":3463:3495   */\n      eq\n        /* \"#utility.yul\":3453:3513   */\n      tag_116\n      jumpi\n        /* \"#utility.yul\":3509:3510   */\n      0x00\n        /* \"#utility.yul\":3506:3507   */\n      dup1\n        /* \"#utility.yul\":3499:3511   */\n      revert\n        /* \"#utility.yul\":3548:3675   */\n    tag_107:\n        /* \"#utility.yul\":3609:3619   */\n      0x4e487b71\n        /* \"#utility.yul\":3604:3607   */\n      0xe0\n        /* \"#utility.yul\":3600:3620   */\n      shl\n        /* \"#utility.yul\":3597:3598   */\n      0x00\n        /* \"#utility.yul\":3590:3621   */\n      mstore\n        /* \"#utility.yul\":3640:3644   */\n      0x11\n        /* \"#utility.yul\":3637:3638   */\n      0x04\n        /* \"#utility.yul\":3630:3645   */\n      mstore\n        /* \"#utility.yul\":3664:3668   */\n      0x24\n        /* \"#utility.yul\":3661:3662   */\n      0x00\n        /* \"#utility.yul\":3654:3669   */\n      revert\n        /* \"#utility.yul\":3680:3815   */\n    tag_83:\n        /* \"#utility.yul\":3719:3722   */\n      0x00\n      not(0x00)\n        /* \"#utility.yul\":3740:3757   */\n      dup3\n      eq\n        /* \"#utility.yul\":3737:3780   */\n      iszero\n      tag_136\n      jumpi\n        /* \"#utility.yul\":3760:3778   */\n      tag_136\n      tag_107\n      jump\t// in\n    tag_136:\n      pop\n        /* \"#utility.yul\":3807:3808   */\n      0x01\n        /* \"#utility.yul\":3796:3809   */\n      add\n      swap1\n        /* \"#utility.yul\":3680:3815   */\n      jump\t// out\n        /* \"#utility.yul\":4547:4675   */\n    tag_94:\n        /* \"#utility.yul\":4587:4590   */\n      0x00\n        /* \"#utility.yul\":4618:4619   */\n      dup3\n        /* \"#utility.yul\":4614:4620   */\n      not\n        /* \"#utility.yul\":4611:4612   */\n      dup3\n        /* \"#utility.yul\":4608:4621   */\n      gt\n        /* \"#utility.yul\":4605:4644   */\n      iszero\n      tag_141\n      jumpi\n        /* \"#utility.yul\":4624:4642   */\n      tag_141\n      tag_107\n      jump\t// in\n    tag_141:\n      pop\n        /* \"#utility.yul\":4660:4669   */\n      add\n      swap1\n        /* \"#utility.yul\":4547:4675   */\n      jump\t// out\n\n    auxdata: 0xa26469706673582212207210538e568687c76a9389f7a40e620932c7d53c3c02dc042c4dc0e07d06ea2b64736f6c634300080a0033\n}\n",
				"bytecode": {
					"linkReferences": {},
					"object": "60c0604052601060808190526f52616e676520546f6b656e204661726d60801b60a0908152610031916000919061009e565b5034801561003e57600080fd5b506040516109a53803806109a583398101604081905261005d9161014f565b600280546001600160a01b039384166001600160a01b03199182161790915560038054929093169181169190911790915560018054909116331790556101c4565b8280546100aa90610189565b90600052602060002090601f0160209004810192826100cc5760008555610112565b82601f106100e557805160ff1916838001178555610112565b82800160010185558215610112579182015b828111156101125782518255916020019190600101906100f7565b5061011e929150610122565b5090565b5b8082111561011e5760008155600101610123565b6001600160a01b038116811461014c57600080fd5b50565b6000806040838503121561016257600080fd5b825161016d81610137565b602084015190925061017e81610137565b809150509250929050565b600181811c9082168061019d57607f821691505b602082108114156101be57634e487b7160e01b600052602260045260246000fd5b50919050565b6107d2806101d36000396000f3fe608060405234801561001057600080fd5b50600436106100a95760003560e01c80637ac3cac8116100715780637ac3cac81461014a5780638da5cb5b14610175578063a5ce413b14610188578063c93c8f3414610190578063ce6e10b3146101b3578063fd5e6dd1146101c657600080fd5b806306fdde03146100ae57806345bc78ab146100cc57806360ab5852146100fa5780636f49712b146101045780637547c7a314610137575b600080fd5b6100b66101d9565b6040516100c39190610642565b60405180910390f35b6100ec6100da366004610697565b60056020526000908152604090205481565b6040519081526020016100c3565b610102610267565b005b610127610112366004610697565b60076020526000908152604090205460ff1681565b60405190151581526020016100c3565b6101026101453660046106c7565b6103a7565b60025461015d906001600160a01b031681565b6040516001600160a01b0390911681526020016100c3565b60015461015d906001600160a01b031681565b61010261051e565b61012761019e366004610697565b60066020526000908152604090205460ff1681565b60035461015d906001600160a01b031681565b61015d6101d43660046106c7565b610618565b600080546101e6906106e0565b80601f0160208091040260200160405190810160405280929190818152602001828054610212906106e0565b801561025f5780601f106102345761010080835404028352916020019161025f565b820191906000526020600020905b81548152906001019060200180831161024257829003601f168201915b505050505081565b6001546001600160a01b031633146102c65760405162461bcd60e51b815260206004820152601860248201527f63616c6c6572206d75737420626520746865206f776e6572000000000000000060448201526064015b60405180910390fd5b60005b6004548110156103a4576000600482815481106102e8576102e861071b565b60009182526020808320909101546001600160a01b03168083526005909152604090912054909150801561038f5760035460405163a9059cbb60e01b81526001600160a01b038481166004830152602482018490529091169063a9059cbb906044016020604051808303816000875af1158015610369573d6000803e3d6000fd5b505050506040513d601f19601f8201168201806040525081019061038d9190610731565b505b5050808061039c90610769565b9150506102c9565b50565b600081116103ec5760405162461bcd60e51b81526020600482015260126024820152710616d6f756e742063616e6e6f7420626520360741b60448201526064016102bd565b6002546040516323b872dd60e01b8152336004820152306024820152604481018390526001600160a01b03909116906323b872dd906064016020604051808303816000875af1158015610443573d6000803e3d6000fd5b505050506040513d601f19601f820116820180604052508101906104679190610731565b5033600090815260056020526040902054610483908290610784565b3360009081526005602090815260408083209390935560069052205460ff166104e957600480546001810182556000919091527f8a35acfbc15ff81a39ae7d344fd709f28e8600b4aa8c65c6b64bfe7fe36bd19b0180546001600160a01b031916331790555b503360009081526007602090815260408083208054600160ff1991821681179092556006909352922080549091169091179055565b336000908152600560205260409020548061057b5760405162461bcd60e51b815260206004820152601b60248201527f7374616b696e672062616c616e63652063616e6e6f742062652030000000000060448201526064016102bd565b60025460405163a9059cbb60e01b8152336004820152602481018390526001600160a01b039091169063a9059cbb906044016020604051808303816000875af11580156105cc573d6000803e3d6000fd5b505050506040513d601f19601f820116820180604052508101906105f09190610731565b505033600090815260056020908152604080832083905560079091529020805460ff19169055565b6004818154811061062857600080fd5b6000918252602090912001546001600160a01b0316905081565b600060208083528351808285015260005b8181101561066f57858101830151858201604001528201610653565b81811115610681576000604083870101525b50601f01601f1916929092016040019392505050565b6000602082840312156106a957600080fd5b81356001600160a01b03811681146106c057600080fd5b9392505050565b6000602082840312156106d957600080fd5b5035919050565b600181811c908216806106f457607f821691505b6020821081141561071557634e487b7160e01b600052602260045260246000fd5b50919050565b634e487b7160e01b600052603260045260246000fd5b60006020828403121561074357600080fd5b815180151581146106c057600080fd5b634e487b7160e01b600052601160045260246000fd5b600060001982141561077d5761077d610753565b5060010190565b6000821982111561079757610797610753565b50019056fea26469706673582212207210538e568687c76a9389f7a40e620932c7d53c3c02dc042c4dc0e07d06ea2b64736f6c634300080a0033",
					"opcodes": "PUSH1 0xC0 PUSH1 0x40 MSTORE PUSH1 0x10 PUSH1 0x80 DUP2 SWAP1 MSTORE PUSH16 0x52616E676520546F6B656E204661726D PUSH1 0x80 SHL PUSH1 0xA0 SWAP1 DUP2 MSTORE PUSH2 0x31 SWAP2 PUSH1 0x0 SWAP2 SWAP1 PUSH2 0x9E JUMP JUMPDEST POP CALLVALUE DUP1 ISZERO PUSH2 0x3E JUMPI PUSH1 0x0 DUP1 REVERT JUMPDEST POP PUSH1 0x40 MLOAD PUSH2 0x9A5 CODESIZE SUB DUP1 PUSH2 0x9A5 DUP4 CODECOPY DUP2 ADD PUSH1 0x40 DUP2 SWAP1 MSTORE PUSH2 0x5D SWAP2 PUSH2 0x14F JUMP JUMPDEST PUSH1 0x2 DUP1 SLOAD PUSH1 0x1 PUSH1 0x1 PUSH1 0xA0 SHL SUB SWAP4 DUP5 AND PUSH1 0x1 PUSH1 0x1 PUSH1 0xA0 SHL SUB NOT SWAP2 DUP3 AND OR SWAP1 SWAP2 SSTORE PUSH1 0x3 DUP1 SLOAD SWAP3 SWAP1 SWAP4 AND SWAP2 DUP2 AND SWAP2 SWAP1 SWAP2 OR SWAP1 SWAP2 SSTORE PUSH1 0x1 DUP1 SLOAD SWAP1 SWAP2 AND CALLER OR SWAP1 SSTORE PUSH2 0x1C4 JUMP JUMPDEST DUP3 DUP1 SLOAD PUSH2 0xAA SWAP1 PUSH2 0x189 JUMP JUMPDEST SWAP1 PUSH1 0x0 MSTORE PUSH1 0x20 PUSH1 0x0 KECCAK256 SWAP1 PUSH1 0x1F ADD PUSH1 0x20 SWAP1 DIV DUP2 ADD SWAP3 DUP3 PUSH2 0xCC JUMPI PUSH1 0x0 DUP6 SSTORE PUSH2 0x112 JUMP JUMPDEST DUP3 PUSH1 0x1F LT PUSH2 0xE5 JUMPI DUP1 MLOAD PUSH1 0xFF NOT AND DUP4 DUP1 ADD OR DUP6 SSTORE PUSH2 0x112 JUMP JUMPDEST DUP3 DUP1 ADD PUSH1 0x1 ADD DUP6 SSTORE DUP3 ISZERO PUSH2 0x112 JUMPI SWAP2 DUP3 ADD JUMPDEST DUP3 DUP2 GT ISZERO PUSH2 0x112 JUMPI DUP3 MLOAD DUP3 SSTORE SWAP2 PUSH1 0x20 ADD SWAP2 SWAP1 PUSH1 0x1 ADD SWAP1 PUSH2 0xF7 JUMP JUMPDEST POP PUSH2 0x11E SWAP3 SWAP2 POP PUSH2 0x122 JUMP JUMPDEST POP SWAP1 JUMP JUMPDEST JUMPDEST DUP1 DUP3 GT ISZERO PUSH2 0x11E JUMPI PUSH1 0x0 DUP2 SSTORE PUSH1 0x1 ADD PUSH2 0x123 JUMP JUMPDEST PUSH1 0x1 PUSH1 0x1 PUSH1 0xA0 SHL SUB DUP2 AND DUP2 EQ PUSH2 0x14C JUMPI PUSH1 0x0 DUP1 REVERT JUMPDEST POP JUMP JUMPDEST PUSH1 0x0 DUP1 PUSH1 0x40 DUP4 DUP6 SUB SLT ISZERO PUSH2 0x162 JUMPI PUSH1 0x0 DUP1 REVERT JUMPDEST DUP3 MLOAD PUSH2 0x16D DUP2 PUSH2 0x137 JUMP JUMPDEST PUSH1 0x20 DUP5 ADD MLOAD SWAP1 SWAP3 POP PUSH2 0x17E DUP2 PUSH2 0x137 JUMP JUMPDEST DUP1 SWAP2 POP POP SWAP3 POP SWAP3 SWAP1 POP JUMP JUMPDEST PUSH1 0x1 DUP2 DUP2 SHR SWAP1 DUP3 AND DUP1 PUSH2 0x19D JUMPI PUSH1 0x7F DUP3 AND SWAP2 POP JUMPDEST PUSH1 0x20 DUP3 LT DUP2 EQ ISZERO PUSH2 0x1BE JUMPI PUSH4 0x4E487B71 PUSH1 0xE0 SHL PUSH1 0x0 MSTORE PUSH1 0x22 PUSH1 0x4 MSTORE PUSH1 0x24 PUSH1 0x0 REVERT JUMPDEST POP SWAP2 SWAP1 POP JUMP JUMPDEST PUSH2 0x7D2 DUP1 PUSH2 0x1D3 PUSH1 0x0 CODECOPY PUSH1 0x0 RETURN INVALID PUSH1 0x80 PUSH1 0x40 MSTORE CALLVALUE DUP1 ISZERO PUSH2 0x10 JUMPI PUSH1 0x0 DUP1 REVERT JUMPDEST POP PUSH1 0x4 CALLDATASIZE LT PUSH2 0xA9 JUMPI PUSH1 0x0 CALLDATALOAD PUSH1 0xE0 SHR DUP1 PUSH4 0x7AC3CAC8 GT PUSH2 0x71 JUMPI DUP1 PUSH4 0x7AC3CAC8 EQ PUSH2 0x14A JUMPI DUP1 PUSH4 0x8DA5CB5B EQ PUSH2 0x175 JUMPI DUP1 PUSH4 0xA5CE413B EQ PUSH2 0x188 JUMPI DUP1 PUSH4 0xC93C8F34 EQ PUSH2 0x190 JUMPI DUP1 PUSH4 0xCE6E10B3 EQ PUSH2 0x1B3 JUMPI DUP1 PUSH4 0xFD5E6DD1 EQ PUSH2 0x1C6 JUMPI PUSH1 0x0 DUP1 REVERT JUMPDEST DUP1 PUSH4 0x6FDDE03 EQ PUSH2 0xAE JUMPI DUP1 PUSH4 0x45BC78AB EQ PUSH2 0xCC JUMPI DUP1 PUSH4 0x60AB5852 EQ PUSH2 0xFA JUMPI DUP1 PUSH4 0x6F49712B EQ PUSH2 0x104 JUMPI DUP1 PUSH4 0x7547C7A3 EQ PUSH2 0x137 JUMPI JUMPDEST PUSH1 0x0 DUP1 REVERT JUMPDEST PUSH2 0xB6 PUSH2 0x1D9 JUMP JUMPDEST PUSH1 0x40 MLOAD PUSH2 0xC3 SWAP2 SWAP1 PUSH2 0x642 JUMP JUMPDEST PUSH1 0x40 MLOAD DUP1 SWAP2 SUB SWAP1 RETURN JUMPDEST PUSH2 0xEC PUSH2 0xDA CALLDATASIZE PUSH1 0x4 PUSH2 0x697 JUMP JUMPDEST PUSH1 0x5 PUSH1 0x20 MSTORE PUSH1 0x0 SWAP1 DUP2 MSTORE PUSH1 0x40 SWAP1 KECCAK256 SLOAD DUP2 JUMP JUMPDEST PUSH1 0x40 MLOAD SWAP1 DUP2 MSTORE PUSH1 0x20 ADD PUSH2 0xC3 JUMP JUMPDEST PUSH2 0x102 PUSH2 0x267 JUMP JUMPDEST STOP JUMPDEST PUSH2 0x127 PUSH2 0x112 CALLDATASIZE PUSH1 0x4 PUSH2 0x697 JUMP JUMPDEST PUSH1 0x7 PUSH1 0x20 MSTORE PUSH1 0x0 SWAP1 DUP2 MSTORE PUSH1 0x40 SWAP1 KECCAK256 SLOAD PUSH1 0xFF AND DUP2 JUMP JUMPDEST PUSH1 0x40 MLOAD SWAP1 ISZERO ISZERO DUP2 MSTORE PUSH1 0x20 ADD PUSH2 0xC3 JUMP JUMPDEST PUSH2 0x102 PUSH2 0x145 CALLDATASIZE PUSH1 0x4 PUSH2 0x6C7 JUMP JUMPDEST PUSH2 0x3A7 JUMP JUMPDEST PUSH1 0x2 SLOAD PUSH2 0x15D SWAP1 PUSH1 0x1 PUSH1 0x1 PUSH1 0xA0 SHL SUB AND DUP2 JUMP JUMPDEST PUSH1 0x40 MLOAD PUSH1 0x1 PUSH1 0x1 PUSH1 0xA0 SHL SUB SWAP1 SWAP2 AND DUP2 MSTORE PUSH1 0x20 ADD PUSH2 0xC3 JUMP JUMPDEST PUSH1 0x1 SLOAD PUSH2 0x15D SWAP1 PUSH1 0x1 PUSH1 0x1 PUSH1 0xA0 SHL SUB AND DUP2 JUMP JUMPDEST PUSH2 0x102 PUSH2 0x51E JUMP JUMPDEST PUSH2 0x127 PUSH2 0x19E CALLDATASIZE PUSH1 0x4 PUSH2 0x697 JUMP JUMPDEST PUSH1 0x6 PUSH1 0x20 MSTORE PUSH1 0x0 SWAP1 DUP2 MSTORE PUSH1 0x40 SWAP1 KECCAK256 SLOAD PUSH1 0xFF AND DUP2 JUMP JUMPDEST PUSH1 0x3 SLOAD PUSH2 0x15D SWAP1 PUSH1 0x1 PUSH1 0x1 PUSH1 0xA0 SHL SUB AND DUP2 JUMP JUMPDEST PUSH2 0x15D PUSH2 0x1D4 CALLDATASIZE PUSH1 0x4 PUSH2 0x6C7 JUMP JUMPDEST PUSH2 0x618 JUMP JUMPDEST PUSH1 0x0 DUP1 SLOAD PUSH2 0x1E6 SWAP1 PUSH2 0x6E0 JUMP JUMPDEST DUP1 PUSH1 0x1F ADD PUSH1 0x20 DUP1 SWAP2 DIV MUL PUSH1 0x20 ADD PUSH1 0x40 MLOAD SWAP1 DUP2 ADD PUSH1 0x40 MSTORE DUP1 SWAP3 SWAP2 SWAP1 DUP2 DUP2 MSTORE PUSH1 0x20 ADD DUP3 DUP1 SLOAD PUSH2 0x212 SWAP1 PUSH2 0x6E0 JUMP JUMPDEST DUP1 ISZERO PUSH2 0x25F JUMPI DUP1 PUSH1 0x1F LT PUSH2 0x234 JUMPI PUSH2 0x100 DUP1 DUP4 SLOAD DIV MUL DUP4 MSTORE SWAP2 PUSH1 0x20 ADD SWAP2 PUSH2 0x25F JUMP JUMPDEST DUP3 ADD SWAP2 SWAP1 PUSH1 0x0 MSTORE PUSH1 0x20 PUSH1 0x0 KECCAK256 SWAP1 JUMPDEST DUP2 SLOAD DUP2 MSTORE SWAP1 PUSH1 0x1 ADD SWAP1 PUSH1 0x20 ADD DUP1 DUP4 GT PUSH2 0x242 JUMPI DUP3 SWAP1 SUB PUSH1 0x1F AND DUP3 ADD SWAP2 JUMPDEST POP POP POP POP POP DUP2 JUMP JUMPDEST PUSH1 0x1 SLOAD PUSH1 0x1 PUSH1 0x1 PUSH1 0xA0 SHL SUB AND CALLER EQ PUSH2 0x2C6 JUMPI PUSH1 0x40 MLOAD PUSH3 0x461BCD PUSH1 0xE5 SHL DUP2 MSTORE PUSH1 0x20 PUSH1 0x4 DUP3 ADD MSTORE PUSH1 0x18 PUSH1 0x24 DUP3 ADD MSTORE PUSH32 0x63616C6C6572206D75737420626520746865206F776E65720000000000000000 PUSH1 0x44 DUP3 ADD MSTORE PUSH1 0x64 ADD JUMPDEST PUSH1 0x40 MLOAD DUP1 SWAP2 SUB SWAP1 REVERT JUMPDEST PUSH1 0x0 JUMPDEST PUSH1 0x4 SLOAD DUP2 LT ISZERO PUSH2 0x3A4 JUMPI PUSH1 0x0 PUSH1 0x4 DUP3 DUP2 SLOAD DUP2 LT PUSH2 0x2E8 JUMPI PUSH2 0x2E8 PUSH2 0x71B JUMP JUMPDEST PUSH1 0x0 SWAP2 DUP3 MSTORE PUSH1 0x20 DUP1 DUP4 KECCAK256 SWAP1 SWAP2 ADD SLOAD PUSH1 0x1 PUSH1 0x1 PUSH1 0xA0 SHL SUB AND DUP1 DUP4 MSTORE PUSH1 0x5 SWAP1 SWAP2 MSTORE PUSH1 0x40 SWAP1 SWAP2 KECCAK256 SLOAD SWAP1 SWAP2 POP DUP1 ISZERO PUSH2 0x38F JUMPI PUSH1 0x3 SLOAD PUSH1 0x40 MLOAD PUSH4 0xA9059CBB PUSH1 0xE0 SHL DUP2 MSTORE PUSH1 0x1 PUSH1 0x1 PUSH1 0xA0 SHL SUB DUP5 DUP2 AND PUSH1 0x4 DUP4 ADD MSTORE PUSH1 0x24 DUP3 ADD DUP5 SWAP1 MSTORE SWAP1 SWAP2 AND SWAP1 PUSH4 0xA9059CBB SWAP1 PUSH1 0x44 ADD PUSH1 0x20 PUSH1 0x40 MLOAD DUP1 DUP4 SUB DUP2 PUSH1 0x0 DUP8 GAS CALL ISZERO DUP1 ISZERO PUSH2 0x369 JUMPI RETURNDATASIZE PUSH1 0x0 DUP1 RETURNDATACOPY RETURNDATASIZE PUSH1 0x0 REVERT JUMPDEST POP POP POP POP PUSH1 0x40 MLOAD RETURNDATASIZE PUSH1 0x1F NOT PUSH1 0x1F DUP3 ADD AND DUP3 ADD DUP1 PUSH1 0x40 MSTORE POP DUP2 ADD SWAP1 PUSH2 0x38D SWAP2 SWAP1 PUSH2 0x731 JUMP JUMPDEST POP JUMPDEST POP POP DUP1 DUP1 PUSH2 0x39C SWAP1 PUSH2 0x769 JUMP JUMPDEST SWAP2 POP POP PUSH2 0x2C9 JUMP JUMPDEST POP JUMP JUMPDEST PUSH1 0x0 DUP2 GT PUSH2 0x3EC JUMPI PUSH1 0x40 MLOAD PUSH3 0x461BCD PUSH1 0xE5 SHL DUP2 MSTORE PUSH1 0x20 PUSH1 0x4 DUP3 ADD MSTORE PUSH1 0x12 PUSH1 0x24 DUP3 ADD MSTORE PUSH18 0x616D6F756E742063616E6E6F74206265203 PUSH1 0x74 SHL PUSH1 0x44 DUP3 ADD MSTORE PUSH1 0x64 ADD PUSH2 0x2BD JUMP JUMPDEST PUSH1 0x2 SLOAD PUSH1 0x40 MLOAD PUSH4 0x23B872DD PUSH1 0xE0 SHL DUP2 MSTORE CALLER PUSH1 0x4 DUP3 ADD MSTORE ADDRESS PUSH1 0x24 DUP3 ADD MSTORE PUSH1 0x44 DUP2 ADD DUP4 SWAP1 MSTORE PUSH1 0x1 PUSH1 0x1 PUSH1 0xA0 SHL SUB SWAP1 SWAP2 AND SWAP1 PUSH4 0x23B872DD SWAP1 PUSH1 0x64 ADD PUSH1 0x20 PUSH1 0x40 MLOAD DUP1 DUP4 SUB DUP2 PUSH1 0x0 DUP8 GAS CALL ISZERO DUP1 ISZERO PUSH2 0x443 JUMPI RETURNDATASIZE PUSH1 0x0 DUP1 RETURNDATACOPY RETURNDATASIZE PUSH1 0x0 REVERT JUMPDEST POP POP POP POP PUSH1 0x40 MLOAD RETURNDATASIZE PUSH1 0x1F NOT PUSH1 0x1F DUP3 ADD AND DUP3 ADD DUP1 PUSH1 0x40 MSTORE POP DUP2 ADD SWAP1 PUSH2 0x467 SWAP2 SWAP1 PUSH2 0x731 JUMP JUMPDEST POP CALLER PUSH1 0x0 SWAP1 DUP2 MSTORE PUSH1 0x5 PUSH1 0x20 MSTORE PUSH1 0x40 SWAP1 KECCAK256 SLOAD PUSH2 0x483 SWAP1 DUP3 SWAP1 PUSH2 0x784 JUMP JUMPDEST CALLER PUSH1 0x0 SWAP1 DUP2 MSTORE PUSH1 0x5 PUSH1 0x20 SWAP1 DUP2 MSTORE PUSH1 0x40 DUP1 DUP4 KECCAK256 SWAP4 SWAP1 SWAP4 SSTORE PUSH1 0x6 SWAP1 MSTORE KECCAK256 SLOAD PUSH1 0xFF AND PUSH2 0x4E9 JUMPI PUSH1 0x4 DUP1 SLOAD PUSH1 0x1 DUP2 ADD DUP3 SSTORE PUSH1 0x0 SWAP2 SWAP1 SWAP2 MSTORE PUSH32 0x8A35ACFBC15FF81A39AE7D344FD709F28E8600B4AA8C65C6B64BFE7FE36BD19B ADD DUP1 SLOAD PUSH1 0x1 PUSH1 0x1 PUSH1 0xA0 SHL SUB NOT AND CALLER OR SWAP1 SSTORE JUMPDEST POP CALLER PUSH1 0x0 SWAP1 DUP2 MSTORE PUSH1 0x7 PUSH1 0x20 SWAP1 DUP2 MSTORE PUSH1 0x40 DUP1 DUP4 KECCAK256 DUP1 SLOAD PUSH1 0x1 PUSH1 0xFF NOT SWAP2 DUP3 AND DUP2 OR SWAP1 SWAP3 SSTORE PUSH1 0x6 SWAP1 SWAP4 MSTORE SWAP3 KECCAK256 DUP1 SLOAD SWAP1 SWAP2 AND SWAP1 SWAP2 OR SWAP1 SSTORE JUMP JUMPDEST CALLER PUSH1 0x0 SWAP1 DUP2 MSTORE PUSH1 0x5 PUSH1 0x20 MSTORE PUSH1 0x40 SWAP1 KECCAK256 SLOAD DUP1 PUSH2 0x57B JUMPI PUSH1 0x40 MLOAD PUSH3 0x461BCD PUSH1 0xE5 SHL DUP2 MSTORE PUSH1 0x20 PUSH1 0x4 DUP3 ADD MSTORE PUSH1 0x1B PUSH1 0x24 DUP3 ADD MSTORE PUSH32 0x7374616B696E672062616C616E63652063616E6E6F7420626520300000000000 PUSH1 0x44 DUP3 ADD MSTORE PUSH1 0x64 ADD PUSH2 0x2BD JUMP JUMPDEST PUSH1 0x2 SLOAD PUSH1 0x40 MLOAD PUSH4 0xA9059CBB PUSH1 0xE0 SHL DUP2 MSTORE CALLER PUSH1 0x4 DUP3 ADD MSTORE PUSH1 0x24 DUP2 ADD DUP4 SWAP1 MSTORE PUSH1 0x1 PUSH1 0x1 PUSH1 0xA0 SHL SUB SWAP1 SWAP2 AND SWAP1 PUSH4 0xA9059CBB SWAP1 PUSH1 0x44 ADD PUSH1 0x20 PUSH1 0x40 MLOAD DUP1 DUP4 SUB DUP2 PUSH1 0x0 DUP8 GAS CALL ISZERO DUP1 ISZERO PUSH2 0x5CC JUMPI RETURNDATASIZE PUSH1 0x0 DUP1 RETURNDATACOPY RETURNDATASIZE PUSH1 0x0 REVERT JUMPDEST POP POP POP POP PUSH1 0x40 MLOAD RETURNDATASIZE PUSH1 0x1F NOT PUSH1 0x1F DUP3 ADD AND DUP3 ADD DUP1 PUSH1 0x40 MSTORE POP DUP2 ADD SWAP1 PUSH2 0x5F0 SWAP2 SWAP1 PUSH2 0x731 JUMP JUMPDEST POP POP CALLER PUSH1 0x0 SWAP1 DUP2 MSTORE PUSH1 0x5 PUSH1 0x20 SWAP1 DUP2 MSTORE PUSH1 0x40 DUP1 DUP4 KECCAK256 DUP4 SWAP1 SSTORE PUSH1 0x7 SWAP1 SWAP2 MSTORE SWAP1 KECCAK256 DUP1 SLOAD PUSH1 0xFF NOT AND SWAP1 SSTORE JUMP JUMPDEST PUSH1 0x4 DUP2 DUP2 SLOAD DUP2 LT PUSH2 0x628 JUMPI PUSH1 0x0 DUP1 REVERT JUMPDEST PUSH1 0x0 SWAP2 DUP3 MSTORE PUSH1 0x20 SWAP1 SWAP2 KECCAK256 ADD SLOAD PUSH1 0x1 PUSH1 0x1 PUSH1 0xA0 SHL SUB AND SWAP1 POP DUP2 JUMP JUMPDEST PUSH1 0x0 PUSH1 0x20 DUP1 DUP4 MSTORE DUP4 MLOAD DUP1 DUP3 DUP6 ADD MSTORE PUSH1 0x0 JUMPDEST DUP2 DUP2 LT ISZERO PUSH2 0x66F JUMPI DUP6 DUP2 ADD DUP4 ADD MLOAD DUP6 DUP3 ADD PUSH1 0x40 ADD MSTORE DUP3 ADD PUSH2 0x653 JUMP JUMPDEST DUP2 DUP2 GT ISZERO PUSH2 0x681 JUMPI PUSH1 0x0 PUSH1 0x40 DUP4 DUP8 ADD ADD MSTORE JUMPDEST POP PUSH1 0x1F ADD PUSH1 0x1F NOT AND SWAP3 SWAP1 SWAP3 ADD PUSH1 0x40 ADD SWAP4 SWAP3 POP POP POP JUMP JUMPDEST PUSH1 0x0 PUSH1 0x20 DUP3 DUP5 SUB SLT ISZERO PUSH2 0x6A9 JUMPI PUSH1 0x0 DUP1 REVERT JUMPDEST DUP2 CALLDATALOAD PUSH1 0x1 PUSH1 0x1 PUSH1 0xA0 SHL SUB DUP2 AND DUP2 EQ PUSH2 0x6C0 JUMPI PUSH1 0x0 DUP1 REVERT JUMPDEST SWAP4 SWAP3 POP POP POP JUMP JUMPDEST PUSH1 0x0 PUSH1 0x20 DUP3 DUP5 SUB SLT ISZERO PUSH2 0x6D9 JUMPI PUSH1 0x0 DUP1 REVERT JUMPDEST POP CALLDATALOAD SWAP2 SWAP1 POP JUMP JUMPDEST PUSH1 0x1 DUP2 DUP2 SHR SWAP1 DUP3 AND DUP1 PUSH2 0x6F4 JUMPI PUSH1 0x7F DUP3 AND SWAP2 POP JUMPDEST PUSH1 0x20 DUP3 LT DUP2 EQ ISZERO PUSH2 0x715 JUMPI PUSH4 0x4E487B71 PUSH1 0xE0 SHL PUSH1 0x0 MSTORE PUSH1 0x22 PUSH1 0x4 MSTORE PUSH1 0x24 PUSH1 0x0 REVERT JUMPDEST POP SWAP2 SWAP1 POP JUMP JUMPDEST PUSH4 0x4E487B71 PUSH1 0xE0 SHL PUSH1 0x0 MSTORE PUSH1 0x32 PUSH1 0x4 MSTORE PUSH1 0x24 PUSH1 0x0 REVERT JUMPDEST PUSH1 0x0 PUSH1 0x20 DUP3 DUP5 SUB SLT ISZERO PUSH2 0x743 JUMPI PUSH1 0x0 DUP1 REVERT JUMPDEST DUP2 MLOAD DUP1 ISZERO ISZERO DUP2 EQ PUSH2 0x6C0 JUMPI PUSH1 0x0 DUP1 REVERT JUMPDEST PUSH4 0x4E487B71 PUSH1 0xE0 SHL PUSH1 0x0 MSTORE PUSH1 0x11 PUSH1 0x4 MSTORE PUSH1 0x24 PUSH1 0x0 REVERT JUMPDEST PUSH1 0x0 PUSH1 0x0 NOT DUP3 EQ ISZERO PUSH2 0x77D JUMPI PUSH2 0x77D PUSH2 0x753 JUMP JUMPDEST POP PUSH1 0x1 ADD SWAP1 JUMP JUMPDEST PUSH1 0x0 DUP3 NOT DUP3 GT ISZERO PUSH2 0x797 JUMPI PUSH2 0x797 PUSH2 0x753 JUMP JUMPDEST POP ADD SWAP1 JUMP INVALID LOG2 PUSH5 0x6970667358 0x22 SLT KECCAK256 PUSH19 0x10538E568687C76A9389F7A40E620932C7D53C EXTCODECOPY MUL 0xDC DIV 0x2C 0x4D 0xC0 0xE0 PUSH30 0x6EA2B64736F6C634300080A003300000000000000000000000000000000 "
				},
				"gasEstimates": {
					"creation": {
						"codeDepositCost": "400400",
						"executionCost": "infinite",
						"totalCost": "infinite"
					},
					"external": {
						"hasStaked(address)": "2562",
						"isStaking(address)": "2563",
						"issueTokens()": "infinite",
						"mRangeToken()": "2425",
						"name()": "infinite",
						"owner()": "2359",
						"rangeToken()": "2337",
						"stakeTokens(uint256)": "infinite",
						"stakers(uint256)": "4724",
						"stakingBalance(address)": "2507",
						"unstakeTokens()": "infinite"
					}
				},
				"methodIdentifiers": {
					"hasStaked(address)": "c93c8f34",
					"isStaking(address)": "6f49712b",
					"issueTokens()": "60ab5852",
					"mRangeToken()": "ce6e10b3",
					"name()": "06fdde03",
					"owner()": "8da5cb5b",
					"rangeToken()": "7ac3cac8",
					"stakeTokens(uint256)": "7547c7a3",
					"stakers(uint256)": "fd5e6dd1",
					"stakingBalance(address)": "45bc78ab",
					"unstakeTokens()": "a5ce413b"
				}
			},
			"userdoc": {
				"kind": "user",
				"methods": {},
				"version": 1
			}
		}
	}
}