{
	"contracts/SolidityByExample/MyStake.sol": {
		"Mystake": {
			"abi": [
				{
					"inputs": [
						{
							"internalType": "address",
							"name": "_stakingToken",
							"type": "address"
						},
						{
							"internalType": "address",
							"name": "_rewardsToken",
							"type": "address"
						}
					],
					"stateMutability": "nonpayable",
					"type": "constructor"
				},
				{
					"inputs": [],
					"name": "goldToken",
					"outputs": [
						{
							"internalType": "contract GoldToken",
							"name": "",
							"type": "address"
						}
					],
					"stateMutability": "view",
					"type": "function"
				},
				{
					"inputs": [],
					"name": "silverToken",
					"outputs": [
						{
							"internalType": "contract SilverToken",
							"name": "",
							"type": "address"
						}
					],
					"stateMutability": "view",
					"type": "function"
				},
				{
					"inputs": [
						{
							"internalType": "uint256",
							"name": "_amount",
							"type": "uint256"
						}
					],
					"name": "stakeTokens",
					"outputs": [],
					"stateMutability": "nonpayable",
					"type": "function"
				}
			],
			"devdoc": {
				"kind": "dev",
				"methods": {},
				"version": 1
			},
			"evm": {
				"assembly": "    /* \"contracts/SolidityByExample/MyStake.sol\":62:481  contract Mystake {... */\n  mstore(0x40, 0x80)\n    /* \"contracts/SolidityByExample/MyStake.sol\":154:315  constructor(address _stakingToken, address _rewardsToken) {... */\n  callvalue\n  dup1\n  iszero\n  tag_1\n  jumpi\n  0x00\n  dup1\n  revert\ntag_1:\n  pop\n  mload(0x40)\n  sub(codesize, bytecodeSize)\n  dup1\n  bytecodeSize\n  dup4\n  codecopy\n  dup2\n  add\n  0x40\n  dup2\n  swap1\n  mstore\n  tag_2\n  swap2\n  tag_3\n  jump\t// in\ntag_2:\n    /* \"contracts/SolidityByExample/MyStake.sol\":222:231  goldToken */\n  0x01\n    /* \"contracts/SolidityByExample/MyStake.sol\":222:258  goldToken = GoldToken(_stakingToken) */\n  dup1\n  sload\n  sub(shl(0xa0, 0x01), 0x01)\n  swap4\n  dup5\n  and\n  not(sub(shl(0xa0, 0x01), 0x01))\n  swap2\n  dup3\n  and\n  or\n  swap1\n  swap2\n  sstore\n    /* \"contracts/SolidityByExample/MyStake.sol\":222:231  goldToken */\n  0x00\n    /* \"contracts/SolidityByExample/MyStake.sol\":268:308  silverToken = SilverToken(_rewardsToken) */\n  dup1\n  sload\n  swap3\n  swap1\n  swap4\n  and\n  swap2\n  and\n  or\n  swap1\n  sstore\n    /* \"contracts/SolidityByExample/MyStake.sol\":62:481  contract Mystake {... */\n  jump(tag_8)\n    /* \"#utility.yul\":14:191   */\ntag_7:\n    /* \"#utility.yul\":93:106   */\n  dup1\n  mload\n  sub(shl(0xa0, 0x01), 0x01)\n    /* \"#utility.yul\":135:166   */\n  dup2\n  and\n    /* \"#utility.yul\":125:167   */\n  dup2\n  eq\n    /* \"#utility.yul\":115:185   */\n  tag_10\n  jumpi\n    /* \"#utility.yul\":181:182   */\n  0x00\n    /* \"#utility.yul\":178:179   */\n  dup1\n    /* \"#utility.yul\":171:183   */\n  revert\n    /* \"#utility.yul\":115:185   */\ntag_10:\n    /* \"#utility.yul\":14:191   */\n  swap2\n  swap1\n  pop\n  jump\t// out\n    /* \"#utility.yul\":196:489   */\ntag_3:\n    /* \"#utility.yul\":275:281   */\n  0x00\n    /* \"#utility.yul\":283:289   */\n  dup1\n    /* \"#utility.yul\":336:338   */\n  0x40\n    /* \"#utility.yul\":324:333   */\n  dup4\n    /* \"#utility.yul\":315:322   */\n  dup6\n    /* \"#utility.yul\":311:334   */\n  sub\n    /* \"#utility.yul\":307:339   */\n  slt\n    /* \"#utility.yul\":304:356   */\n  iszero\n  tag_12\n  jumpi\n    /* \"#utility.yul\":352:353   */\n  0x00\n    /* \"#utility.yul\":349:350   */\n  dup1\n    /* \"#utility.yul\":342:354   */\n  revert\n    /* \"#utility.yul\":304:356   */\ntag_12:\n    /* \"#utility.yul\":375:415   */\n  tag_13\n    /* \"#utility.yul\":405:414   */\n  dup4\n    /* \"#utility.yul\":375:415   */\n  tag_7\n  jump\t// in\ntag_13:\n    /* \"#utility.yul\":365:415   */\n  swap2\n  pop\n    /* \"#utility.yul\":434:483   */\n  tag_14\n    /* \"#utility.yul\":479:481   */\n  0x20\n    /* \"#utility.yul\":468:477   */\n  dup5\n    /* \"#utility.yul\":464:482   */\n  add\n    /* \"#utility.yul\":434:483   */\n  tag_7\n  jump\t// in\ntag_14:\n    /* \"#utility.yul\":424:483   */\n  swap1\n  pop\n    /* \"#utility.yul\":196:489   */\n  swap3\n  pop\n  swap3\n  swap1\n  pop\n  jump\t// out\ntag_8:\n    /* \"contracts/SolidityByExample/MyStake.sol\":62:481  contract Mystake {... */\n  dataSize(sub_0)\n  dup1\n  dataOffset(sub_0)\n  0x00\n  codecopy\n  0x00\n  return\nstop\n\nsub_0: assembly {\n        /* \"contracts/SolidityByExample/MyStake.sol\":62:481  contract Mystake {... */\n      mstore(0x40, 0x80)\n      callvalue\n      dup1\n      iszero\n      tag_1\n      jumpi\n      0x00\n      dup1\n      revert\n    tag_1:\n      pop\n      jumpi(tag_2, lt(calldatasize, 0x04))\n      shr(0xe0, calldataload(0x00))\n      dup1\n      0x7547c7a3\n      eq\n      tag_3\n      jumpi\n      dup1\n      0x94002b57\n      eq\n      tag_4\n      jumpi\n      dup1\n      0xc34fe1dd\n      eq\n      tag_5\n      jumpi\n    tag_2:\n      0x00\n      dup1\n      revert\n        /* \"contracts/SolidityByExample/MyStake.sol\":320:478  function stakeTokens(uint _amount) public {... */\n    tag_3:\n      tag_6\n      tag_7\n      calldatasize\n      0x04\n      tag_8\n      jump\t// in\n    tag_7:\n      tag_9\n      jump\t// in\n    tag_6:\n      stop\n        /* \"contracts/SolidityByExample/MyStake.sol\":121:147  GoldToken public goldToken */\n    tag_4:\n      sload(0x01)\n      tag_10\n      swap1\n      sub(shl(0xa0, 0x01), 0x01)\n      and\n      dup2\n      jump\n    tag_10:\n      mload(0x40)\n      sub(shl(0xa0, 0x01), 0x01)\n        /* \"#utility.yul\":380:412   */\n      swap1\n      swap2\n      and\n        /* \"#utility.yul\":362:413   */\n      dup2\n      mstore\n        /* \"#utility.yul\":350:352   */\n      0x20\n        /* \"#utility.yul\":335:353   */\n      add\n        /* \"contracts/SolidityByExample/MyStake.sol\":121:147  GoldToken public goldToken */\n      mload(0x40)\n      dup1\n      swap2\n      sub\n      swap1\n      return\n        /* \"contracts/SolidityByExample/MyStake.sol\":85:115  SilverToken public silverToken */\n    tag_5:\n      sload(0x00)\n      tag_10\n      swap1\n      sub(shl(0xa0, 0x01), 0x01)\n      and\n      dup2\n      jump\n        /* \"contracts/SolidityByExample/MyStake.sol\":320:478  function stakeTokens(uint _amount) public {... */\n    tag_9:\n        /* \"contracts/SolidityByExample/MyStake.sol\":385:386  0 */\n      0x00\n        /* \"contracts/SolidityByExample/MyStake.sol\":375:382  _amount */\n      dup2\n        /* \"contracts/SolidityByExample/MyStake.sol\":375:386  _amount > 0 */\n      gt\n        /* \"contracts/SolidityByExample/MyStake.sol\":367:409  require(_amount > 0, \"amount cannot be 0\") */\n      tag_19\n      jumpi\n      mload(0x40)\n      shl(0xe5, 0x461bcd)\n      dup2\n      mstore\n        /* \"#utility.yul\":853:855   */\n      0x20\n        /* \"contracts/SolidityByExample/MyStake.sol\":367:409  require(_amount > 0, \"amount cannot be 0\") */\n      0x04\n      dup3\n      add\n        /* \"#utility.yul\":835:856   */\n      mstore\n        /* \"#utility.yul\":892:894   */\n      0x12\n        /* \"#utility.yul\":872:890   */\n      0x24\n      dup3\n      add\n        /* \"#utility.yul\":865:895   */\n      mstore\n      shl(0x74, 0x0616d6f756e742063616e6e6f74206265203)\n        /* \"#utility.yul\":911:929   */\n      0x44\n      dup3\n      add\n        /* \"#utility.yul\":904:952   */\n      mstore\n        /* \"#utility.yul\":969:987   */\n      0x64\n      add\n        /* \"contracts/SolidityByExample/MyStake.sol\":367:409  require(_amount > 0, \"amount cannot be 0\") */\n      mload(0x40)\n      dup1\n      swap2\n      sub\n      swap1\n      revert\n    tag_19:\n        /* \"contracts/SolidityByExample/MyStake.sol\":414:423  goldToken */\n      sload(0x01)\n        /* \"contracts/SolidityByExample/MyStake.sol\":414:472  goldToken.transferFrom(msg.sender, address(this), _amount) */\n      mload(0x40)\n      shl(0xe0, 0x23b872dd)\n      dup2\n      mstore\n        /* \"contracts/SolidityByExample/MyStake.sol\":437:447  msg.sender */\n      caller\n        /* \"contracts/SolidityByExample/MyStake.sol\":414:472  goldToken.transferFrom(msg.sender, address(this), _amount) */\n      0x04\n      dup3\n      add\n        /* \"#utility.yul\":1238:1272   */\n      mstore\n        /* \"contracts/SolidityByExample/MyStake.sol\":457:461  this */\n      address\n        /* \"#utility.yul\":1288:1306   */\n      0x24\n      dup3\n      add\n        /* \"#utility.yul\":1281:1324   */\n      mstore\n        /* \"#utility.yul\":1340:1358   */\n      0x44\n      dup2\n      add\n        /* \"#utility.yul\":1333:1367   */\n      dup4\n      swap1\n      mstore\n      sub(shl(0xa0, 0x01), 0x01)\n        /* \"contracts/SolidityByExample/MyStake.sol\":414:423  goldToken */\n      swap1\n      swap2\n      and\n      swap1\n        /* \"contracts/SolidityByExample/MyStake.sol\":414:436  goldToken.transferFrom */\n      0x23b872dd\n      swap1\n        /* \"#utility.yul\":1173:1191   */\n      0x64\n      add\n        /* \"contracts/SolidityByExample/MyStake.sol\":414:472  goldToken.transferFrom(msg.sender, address(this), _amount) */\n      0x20\n      mload(0x40)\n      dup1\n      dup4\n      sub\n      dup2\n      0x00\n      dup8\n      gas\n      call\n      iszero\n      dup1\n      iszero\n      tag_25\n      jumpi\n      returndatasize\n      0x00\n      dup1\n      returndatacopy\n      revert(0x00, returndatasize)\n    tag_25:\n      pop\n      pop\n      pop\n      pop\n      mload(0x40)\n      returndatasize\n      not(0x1f)\n      0x1f\n      dup3\n      add\n      and\n      dup3\n      add\n      dup1\n      0x40\n      mstore\n      pop\n      dup2\n      add\n      swap1\n      tag_26\n      swap2\n      swap1\n      tag_27\n      jump\t// in\n    tag_26:\n      pop\n        /* \"contracts/SolidityByExample/MyStake.sol\":320:478  function stakeTokens(uint _amount) public {... */\n      pop\n      jump\t// out\n        /* \"#utility.yul\":14:194   */\n    tag_8:\n        /* \"#utility.yul\":73:79   */\n      0x00\n        /* \"#utility.yul\":126:128   */\n      0x20\n        /* \"#utility.yul\":114:123   */\n      dup3\n        /* \"#utility.yul\":105:112   */\n      dup5\n        /* \"#utility.yul\":101:124   */\n      sub\n        /* \"#utility.yul\":97:129   */\n      slt\n        /* \"#utility.yul\":94:146   */\n      iszero\n      tag_30\n      jumpi\n        /* \"#utility.yul\":142:143   */\n      0x00\n        /* \"#utility.yul\":139:140   */\n      dup1\n        /* \"#utility.yul\":132:144   */\n      revert\n        /* \"#utility.yul\":94:146   */\n    tag_30:\n      pop\n        /* \"#utility.yul\":165:188   */\n      calldataload\n      swap2\n        /* \"#utility.yul\":14:194   */\n      swap1\n      pop\n      jump\t// out\n        /* \"#utility.yul\":1378:1655   */\n    tag_27:\n        /* \"#utility.yul\":1445:1451   */\n      0x00\n        /* \"#utility.yul\":1498:1500   */\n      0x20\n        /* \"#utility.yul\":1486:1495   */\n      dup3\n        /* \"#utility.yul\":1477:1484   */\n      dup5\n        /* \"#utility.yul\":1473:1496   */\n      sub\n        /* \"#utility.yul\":1469:1501   */\n      slt\n        /* \"#utility.yul\":1466:1518   */\n      iszero\n      tag_36\n      jumpi\n        /* \"#utility.yul\":1514:1515   */\n      0x00\n        /* \"#utility.yul\":1511:1512   */\n      dup1\n        /* \"#utility.yul\":1504:1516   */\n      revert\n        /* \"#utility.yul\":1466:1518   */\n    tag_36:\n        /* \"#utility.yul\":1546:1555   */\n      dup2\n        /* \"#utility.yul\":1540:1556   */\n      mload\n        /* \"#utility.yul\":1599:1604   */\n      dup1\n        /* \"#utility.yul\":1592:1605   */\n      iszero\n        /* \"#utility.yul\":1585:1606   */\n      iszero\n        /* \"#utility.yul\":1578:1583   */\n      dup2\n        /* \"#utility.yul\":1575:1607   */\n      eq\n        /* \"#utility.yul\":1565:1625   */\n      tag_37\n      jumpi\n        /* \"#utility.yul\":1621:1622   */\n      0x00\n        /* \"#utility.yul\":1618:1619   */\n      dup1\n        /* \"#utility.yul\":1611:1623   */\n      revert\n        /* \"#utility.yul\":1565:1625   */\n    tag_37:\n        /* \"#utility.yul\":1644:1649   */\n      swap4\n        /* \"#utility.yul\":1378:1655   */\n      swap3\n      pop\n      pop\n      pop\n      jump\t// out\n\n    auxdata: 0xa2646970667358221220f8d600f6c09387035643efc5f90dfdf184960ffc508b31767b73eef8cf119f2264736f6c634300080a0033\n}\n",
				"bytecode": {
					"linkReferences": {},
					"object": "608060405234801561001057600080fd5b5060405161029b38038061029b83398101604081905261002f9161007c565b600180546001600160a01b039384166001600160a01b031991821617909155600080549290931691161790556100af565b80516001600160a01b038116811461007757600080fd5b919050565b6000806040838503121561008f57600080fd5b61009883610060565b91506100a660208401610060565b90509250929050565b6101dd806100be6000396000f3fe608060405234801561001057600080fd5b50600436106100415760003560e01c80637547c7a31461004657806394002b571461005b578063c34fe1dd1461008a575b600080fd5b610059610054366004610165565b61009d565b005b60015461006e906001600160a01b031681565b6040516001600160a01b03909116815260200160405180910390f35b60005461006e906001600160a01b031681565b600081116100e65760405162461bcd60e51b81526020600482015260126024820152710616d6f756e742063616e6e6f7420626520360741b604482015260640160405180910390fd5b6001546040516323b872dd60e01b8152336004820152306024820152604481018390526001600160a01b03909116906323b872dd906064016020604051808303816000875af115801561013d573d6000803e3d6000fd5b505050506040513d601f19601f82011682018060405250810190610161919061017e565b5050565b60006020828403121561017757600080fd5b5035919050565b60006020828403121561019057600080fd5b815180151581146101a057600080fd5b939250505056fea2646970667358221220f8d600f6c09387035643efc5f90dfdf184960ffc508b31767b73eef8cf119f2264736f6c634300080a0033",
					"opcodes": "PUSH1 0x80 PUSH1 0x40 MSTORE CALLVALUE DUP1 ISZERO PUSH2 0x10 JUMPI PUSH1 0x0 DUP1 REVERT JUMPDEST POP PUSH1 0x40 MLOAD PUSH2 0x29B CODESIZE SUB DUP1 PUSH2 0x29B DUP4 CODECOPY DUP2 ADD PUSH1 0x40 DUP2 SWAP1 MSTORE PUSH2 0x2F SWAP2 PUSH2 0x7C JUMP JUMPDEST PUSH1 0x1 DUP1 SLOAD PUSH1 0x1 PUSH1 0x1 PUSH1 0xA0 SHL SUB SWAP4 DUP5 AND PUSH1 0x1 PUSH1 0x1 PUSH1 0xA0 SHL SUB NOT SWAP2 DUP3 AND OR SWAP1 SWAP2 SSTORE PUSH1 0x0 DUP1 SLOAD SWAP3 SWAP1 SWAP4 AND SWAP2 AND OR SWAP1 SSTORE PUSH2 0xAF JUMP JUMPDEST DUP1 MLOAD PUSH1 0x1 PUSH1 0x1 PUSH1 0xA0 SHL SUB DUP2 AND DUP2 EQ PUSH2 0x77 JUMPI PUSH1 0x0 DUP1 REVERT JUMPDEST SWAP2 SWAP1 POP JUMP JUMPDEST PUSH1 0x0 DUP1 PUSH1 0x40 DUP4 DUP6 SUB SLT ISZERO PUSH2 0x8F JUMPI PUSH1 0x0 DUP1 REVERT JUMPDEST PUSH2 0x98 DUP4 PUSH2 0x60 JUMP JUMPDEST SWAP2 POP PUSH2 0xA6 PUSH1 0x20 DUP5 ADD PUSH2 0x60 JUMP JUMPDEST SWAP1 POP SWAP3 POP SWAP3 SWAP1 POP JUMP JUMPDEST PUSH2 0x1DD DUP1 PUSH2 0xBE PUSH1 0x0 CODECOPY PUSH1 0x0 RETURN INVALID PUSH1 0x80 PUSH1 0x40 MSTORE CALLVALUE DUP1 ISZERO PUSH2 0x10 JUMPI PUSH1 0x0 DUP1 REVERT JUMPDEST POP PUSH1 0x4 CALLDATASIZE LT PUSH2 0x41 JUMPI PUSH1 0x0 CALLDATALOAD PUSH1 0xE0 SHR DUP1 PUSH4 0x7547C7A3 EQ PUSH2 0x46 JUMPI DUP1 PUSH4 0x94002B57 EQ PUSH2 0x5B JUMPI DUP1 PUSH4 0xC34FE1DD EQ PUSH2 0x8A JUMPI JUMPDEST PUSH1 0x0 DUP1 REVERT JUMPDEST PUSH2 0x59 PUSH2 0x54 CALLDATASIZE PUSH1 0x4 PUSH2 0x165 JUMP JUMPDEST PUSH2 0x9D JUMP JUMPDEST STOP JUMPDEST PUSH1 0x1 SLOAD PUSH2 0x6E SWAP1 PUSH1 0x1 PUSH1 0x1 PUSH1 0xA0 SHL SUB AND DUP2 JUMP JUMPDEST PUSH1 0x40 MLOAD PUSH1 0x1 PUSH1 0x1 PUSH1 0xA0 SHL SUB SWAP1 SWAP2 AND DUP2 MSTORE PUSH1 0x20 ADD PUSH1 0x40 MLOAD DUP1 SWAP2 SUB SWAP1 RETURN JUMPDEST PUSH1 0x0 SLOAD PUSH2 0x6E SWAP1 PUSH1 0x1 PUSH1 0x1 PUSH1 0xA0 SHL SUB AND DUP2 JUMP JUMPDEST PUSH1 0x0 DUP2 GT PUSH2 0xE6 JUMPI PUSH1 0x40 MLOAD PUSH3 0x461BCD PUSH1 0xE5 SHL DUP2 MSTORE PUSH1 0x20 PUSH1 0x4 DUP3 ADD MSTORE PUSH1 0x12 PUSH1 0x24 DUP3 ADD MSTORE PUSH18 0x616D6F756E742063616E6E6F74206265203 PUSH1 0x74 SHL PUSH1 0x44 DUP3 ADD MSTORE PUSH1 0x64 ADD PUSH1 0x40 MLOAD DUP1 SWAP2 SUB SWAP1 REVERT JUMPDEST PUSH1 0x1 SLOAD PUSH1 0x40 MLOAD PUSH4 0x23B872DD PUSH1 0xE0 SHL DUP2 MSTORE CALLER PUSH1 0x4 DUP3 ADD MSTORE ADDRESS PUSH1 0x24 DUP3 ADD MSTORE PUSH1 0x44 DUP2 ADD DUP4 SWAP1 MSTORE PUSH1 0x1 PUSH1 0x1 PUSH1 0xA0 SHL SUB SWAP1 SWAP2 AND SWAP1 PUSH4 0x23B872DD SWAP1 PUSH1 0x64 ADD PUSH1 0x20 PUSH1 0x40 MLOAD DUP1 DUP4 SUB DUP2 PUSH1 0x0 DUP8 GAS CALL ISZERO DUP1 ISZERO PUSH2 0x13D JUMPI RETURNDATASIZE PUSH1 0x0 DUP1 RETURNDATACOPY RETURNDATASIZE PUSH1 0x0 REVERT JUMPDEST POP POP POP POP PUSH1 0x40 MLOAD RETURNDATASIZE PUSH1 0x1F NOT PUSH1 0x1F DUP3 ADD AND DUP3 ADD DUP1 PUSH1 0x40 MSTORE POP DUP2 ADD SWAP1 PUSH2 0x161 SWAP2 SWAP1 PUSH2 0x17E JUMP JUMPDEST POP POP JUMP JUMPDEST PUSH1 0x0 PUSH1 0x20 DUP3 DUP5 SUB SLT ISZERO PUSH2 0x177 JUMPI PUSH1 0x0 DUP1 REVERT JUMPDEST POP CALLDATALOAD SWAP2 SWAP1 POP JUMP JUMPDEST PUSH1 0x0 PUSH1 0x20 DUP3 DUP5 SUB SLT ISZERO PUSH2 0x190 JUMPI PUSH1 0x0 DUP1 REVERT JUMPDEST DUP2 MLOAD DUP1 ISZERO ISZERO DUP2 EQ PUSH2 0x1A0 JUMPI PUSH1 0x0 DUP1 REVERT JUMPDEST SWAP4 SWAP3 POP POP POP JUMP INVALID LOG2 PUSH5 0x6970667358 0x22 SLT KECCAK256 0xF8 0xD6 STOP 0xF6 0xC0 SWAP4 DUP8 SUB JUMP NUMBER 0xEF 0xC5 0xF9 0xD REVERT CALL DUP5 SWAP7 0xF 0xFC POP DUP12 BALANCE PUSH23 0x7B73EEF8CF119F2264736F6C634300080A003300000000 "
				},
				"gasEstimates": {
					"creation": {
						"codeDepositCost": "95400",
						"executionCost": "infinite",
						"totalCost": "infinite"
					},
					"external": {
						"goldToken()": "2325",
						"silverToken()": "2347",
						"stakeTokens(uint256)": "infinite"
					}
				},
				"methodIdentifiers": {
					"goldToken()": "94002b57",
					"silverToken()": "c34fe1dd",
					"stakeTokens(uint256)": "7547c7a3"
				}
			},
			"userdoc": {
				"kind": "user",
				"methods": {},
				"version": 1
			}
		}
	}
}