{
	"Staking_flat.sol": {
		"TokenForm": {
			"abi": [
				{
					"inputs": [
						{
							"internalType": "contract Range",
							"name": "_range",
							"type": "address"
						},
						{
							"internalType": "contract mRange",
							"name": "_mRange",
							"type": "address"
						}
					],
					"stateMutability": "nonpayable",
					"type": "constructor"
				},
				{
					"inputs": [
						{
							"internalType": "address",
							"name": "",
							"type": "address"
						}
					],
					"name": "hasStaked",
					"outputs": [
						{
							"internalType": "bool",
							"name": "",
							"type": "bool"
						}
					],
					"stateMutability": "view",
					"type": "function"
				},
				{
					"inputs": [
						{
							"internalType": "address",
							"name": "",
							"type": "address"
						}
					],
					"name": "isStaking",
					"outputs": [
						{
							"internalType": "bool",
							"name": "",
							"type": "bool"
						}
					],
					"stateMutability": "view",
					"type": "function"
				},
				{
					"inputs": [],
					"name": "issueTokens",
					"outputs": [],
					"stateMutability": "nonpayable",
					"type": "function"
				},
				{
					"inputs": [],
					"name": "mRangeToken",
					"outputs": [
						{
							"internalType": "contract mRange",
							"name": "",
							"type": "address"
						}
					],
					"stateMutability": "view",
					"type": "function"
				},
				{
					"inputs": [],
					"name": "name",
					"outputs": [
						{
							"internalType": "string",
							"name": "",
							"type": "string"
						}
					],
					"stateMutability": "view",
					"type": "function"
				},
				{
					"inputs": [],
					"name": "owner",
					"outputs": [
						{
							"internalType": "address",
							"name": "",
							"type": "address"
						}
					],
					"stateMutability": "view",
					"type": "function"
				},
				{
					"inputs": [],
					"name": "rangeToken",
					"outputs": [
						{
							"internalType": "contract Range",
							"name": "",
							"type": "address"
						}
					],
					"stateMutability": "view",
					"type": "function"
				},
				{
					"inputs": [
						{
							"internalType": "uint256",
							"name": "_amount",
							"type": "uint256"
						}
					],
					"name": "stakeTokens",
					"outputs": [],
					"stateMutability": "nonpayable",
					"type": "function"
				},
				{
					"inputs": [
						{
							"internalType": "uint256",
							"name": "",
							"type": "uint256"
						}
					],
					"name": "stakers",
					"outputs": [
						{
							"internalType": "address",
							"name": "",
							"type": "address"
						}
					],
					"stateMutability": "view",
					"type": "function"
				},
				{
					"inputs": [
						{
							"internalType": "address",
							"name": "",
							"type": "address"
						}
					],
					"name": "stakingBalance",
					"outputs": [
						{
							"internalType": "uint256",
							"name": "",
							"type": "uint256"
						}
					],
					"stateMutability": "view",
					"type": "function"
				},
				{
					"inputs": [],
					"name": "unstakeTokens",
					"outputs": [],
					"stateMutability": "nonpayable",
					"type": "function"
				}
			],
			"devdoc": {
				"kind": "dev",
				"methods": {},
				"version": 1
			},
			"evm": {
				"assembly": "    /* \"Staking_flat.sol\":3856:5726  contract TokenForm {... */\n  mstore(0x40, 0x80)\n    /* \"Staking_flat.sol\":3878:3917  string public name = \"Range Token Farm\" */\n  mload(0x40)\n  dup1\n  0x40\n  add\n  0x40\n  mstore\n  dup1\n  0x10\n  dup2\n  mstore\n  0x20\n  add\n  0x52616e676520546f6b656e204661726d00000000000000000000000000000000\n  dup2\n  mstore\n  pop\n  0x00\n  swap1\n  dup1\n  mload\n  swap1\n  0x20\n  add\n  swap1\n  tag_1\n  swap3\n  swap2\n  swap1\n  tag_2\n  jump\t// in\ntag_1:\n  pop\n    /* \"Staking_flat.sol\":4163:4280  constructor(Range _range, mRange _mRange) {... */\n  callvalue\n  dup1\n  iszero\n  tag_3\n  jumpi\n  0x00\n  dup1\n  revert\ntag_3:\n  pop\n  mload(0x40)\n  sub(codesize, bytecodeSize)\n  dup1\n  bytecodeSize\n  dup4\n  codecopy\n  dup2\n  dup2\n  add\n  0x40\n  mstore\n  dup2\n  add\n  swap1\n  tag_4\n  swap2\n  swap1\n  tag_5\n  jump\t// in\ntag_4:\n    /* \"Staking_flat.sol\":4223:4229  _range */\n  dup2\n    /* \"Staking_flat.sol\":4210:4220  rangeToken */\n  0x02\n  0x00\n    /* \"Staking_flat.sol\":4210:4229  rangeToken = _range */\n  0x0100\n  exp\n  dup2\n  sload\n  dup2\n  0xffffffffffffffffffffffffffffffffffffffff\n  mul\n  not\n  and\n  swap1\n  dup4\n  0xffffffffffffffffffffffffffffffffffffffff\n  and\n  mul\n  or\n  swap1\n  sstore\n  pop\n    /* \"Staking_flat.sol\":4247:4254  _mRange */\n  dup1\n    /* \"Staking_flat.sol\":4233:4244  mRangeToken */\n  0x03\n  0x00\n    /* \"Staking_flat.sol\":4233:4254  mRangeToken = _mRange */\n  0x0100\n  exp\n  dup2\n  sload\n  dup2\n  0xffffffffffffffffffffffffffffffffffffffff\n  mul\n  not\n  and\n  swap1\n  dup4\n  0xffffffffffffffffffffffffffffffffffffffff\n  and\n  mul\n  or\n  swap1\n  sstore\n  pop\n    /* \"Staking_flat.sol\":4266:4276  msg.sender */\n  caller\n    /* \"Staking_flat.sol\":4258:4263  owner */\n  0x01\n  0x00\n    /* \"Staking_flat.sol\":4258:4276  owner = msg.sender */\n  0x0100\n  exp\n  dup2\n  sload\n  dup2\n  0xffffffffffffffffffffffffffffffffffffffff\n  mul\n  not\n  and\n  swap1\n  dup4\n  0xffffffffffffffffffffffffffffffffffffffff\n  and\n  mul\n  or\n  swap1\n  sstore\n  pop\n    /* \"Staking_flat.sol\":4163:4280  constructor(Range _range, mRange _mRange) {... */\n  pop\n  pop\n    /* \"Staking_flat.sol\":3856:5726  contract TokenForm {... */\n  jump(tag_8)\ntag_2:\n  dup3\n  dup1\n  sload\n  tag_9\n  swap1\n  tag_10\n  jump\t// in\ntag_9:\n  swap1\n  0x00\n  mstore\n  keccak256(0x00, 0x20)\n  swap1\n  0x1f\n  add\n  0x20\n  swap1\n  div\n  dup2\n  add\n  swap3\n  dup3\n  tag_12\n  jumpi\n  0x00\n  dup6\n  sstore\n  jump(tag_11)\ntag_12:\n  dup3\n  0x1f\n  lt\n  tag_13\n  jumpi\n  dup1\n  mload\n  not(0xff)\n  and\n  dup4\n  dup1\n  add\n  or\n  dup6\n  sstore\n  jump(tag_11)\ntag_13:\n  dup3\n  dup1\n  add\n  0x01\n  add\n  dup6\n  sstore\n  dup3\n  iszero\n  tag_11\n  jumpi\n  swap2\n  dup3\n  add\ntag_14:\n  dup3\n  dup2\n  gt\n  iszero\n  tag_15\n  jumpi\n  dup3\n  mload\n  dup3\n  sstore\n  swap2\n  0x20\n  add\n  swap2\n  swap1\n  0x01\n  add\n  swap1\n  jump(tag_14)\ntag_15:\ntag_11:\n  pop\n  swap1\n  pop\n  tag_16\n  swap2\n  swap1\n  tag_17\n  jump\t// in\ntag_16:\n  pop\n  swap1\n  jump\t// out\ntag_17:\ntag_18:\n  dup1\n  dup3\n  gt\n  iszero\n  tag_19\n  jumpi\n  0x00\n  dup2\n  0x00\n  swap1\n  sstore\n  pop\n  0x01\n  add\n  jump(tag_18)\ntag_19:\n  pop\n  swap1\n  jump\t// out\n    /* \"#utility.yul\":88:205   */\ntag_21:\n    /* \"#utility.yul\":197:198   */\n  0x00\n    /* \"#utility.yul\":194:195   */\n  dup1\n    /* \"#utility.yul\":187:199   */\n  revert\n    /* \"#utility.yul\":334:460   */\ntag_23:\n    /* \"#utility.yul\":371:378   */\n  0x00\n    /* \"#utility.yul\":411:453   */\n  0xffffffffffffffffffffffffffffffffffffffff\n    /* \"#utility.yul\":404:409   */\n  dup3\n    /* \"#utility.yul\":400:454   */\n  and\n    /* \"#utility.yul\":389:454   */\n  swap1\n  pop\n    /* \"#utility.yul\":334:460   */\n  swap2\n  swap1\n  pop\n  jump\t// out\n    /* \"#utility.yul\":466:562   */\ntag_24:\n    /* \"#utility.yul\":503:510   */\n  0x00\n    /* \"#utility.yul\":532:556   */\n  tag_38\n    /* \"#utility.yul\":550:555   */\n  dup3\n    /* \"#utility.yul\":532:556   */\n  tag_23\n  jump\t// in\ntag_38:\n    /* \"#utility.yul\":521:556   */\n  swap1\n  pop\n    /* \"#utility.yul\":466:562   */\n  swap2\n  swap1\n  pop\n  jump\t// out\n    /* \"#utility.yul\":568:677   */\ntag_25:\n    /* \"#utility.yul\":618:625   */\n  0x00\n    /* \"#utility.yul\":647:671   */\n  tag_40\n    /* \"#utility.yul\":665:670   */\n  dup3\n    /* \"#utility.yul\":647:671   */\n  tag_24\n  jump\t// in\ntag_40:\n    /* \"#utility.yul\":636:671   */\n  swap1\n  pop\n    /* \"#utility.yul\":568:677   */\n  swap2\n  swap1\n  pop\n  jump\t// out\n    /* \"#utility.yul\":683:831   */\ntag_26:\n    /* \"#utility.yul\":769:806   */\n  tag_42\n    /* \"#utility.yul\":800:805   */\n  dup2\n    /* \"#utility.yul\":769:806   */\n  tag_25\n  jump\t// in\ntag_42:\n    /* \"#utility.yul\":762:767   */\n  dup2\n    /* \"#utility.yul\":759:807   */\n  eq\n    /* \"#utility.yul\":749:825   */\n  tag_43\n  jumpi\n    /* \"#utility.yul\":821:822   */\n  0x00\n    /* \"#utility.yul\":818:819   */\n  dup1\n    /* \"#utility.yul\":811:823   */\n  revert\n    /* \"#utility.yul\":749:825   */\ntag_43:\n    /* \"#utility.yul\":683:831   */\n  pop\n  jump\t// out\n    /* \"#utility.yul\":837:1006   */\ntag_27:\n    /* \"#utility.yul\":907:912   */\n  0x00\n    /* \"#utility.yul\":938:944   */\n  dup2\n    /* \"#utility.yul\":932:945   */\n  mload\n    /* \"#utility.yul\":923:945   */\n  swap1\n  pop\n    /* \"#utility.yul\":954:1000   */\n  tag_45\n    /* \"#utility.yul\":994:999   */\n  dup2\n    /* \"#utility.yul\":954:1000   */\n  tag_26\n  jump\t// in\ntag_45:\n    /* \"#utility.yul\":837:1006   */\n  swap3\n  swap2\n  pop\n  pop\n  jump\t// out\n    /* \"#utility.yul\":1012:1122   */\ntag_28:\n    /* \"#utility.yul\":1063:1070   */\n  0x00\n    /* \"#utility.yul\":1092:1116   */\n  tag_47\n    /* \"#utility.yul\":1110:1115   */\n  dup3\n    /* \"#utility.yul\":1092:1116   */\n  tag_24\n  jump\t// in\ntag_47:\n    /* \"#utility.yul\":1081:1116   */\n  swap1\n  pop\n    /* \"#utility.yul\":1012:1122   */\n  swap2\n  swap1\n  pop\n  jump\t// out\n    /* \"#utility.yul\":1128:1278   */\ntag_29:\n    /* \"#utility.yul\":1215:1253   */\n  tag_49\n    /* \"#utility.yul\":1247:1252   */\n  dup2\n    /* \"#utility.yul\":1215:1253   */\n  tag_28\n  jump\t// in\ntag_49:\n    /* \"#utility.yul\":1208:1213   */\n  dup2\n    /* \"#utility.yul\":1205:1254   */\n  eq\n    /* \"#utility.yul\":1195:1272   */\n  tag_50\n  jumpi\n    /* \"#utility.yul\":1268:1269   */\n  0x00\n    /* \"#utility.yul\":1265:1266   */\n  dup1\n    /* \"#utility.yul\":1258:1270   */\n  revert\n    /* \"#utility.yul\":1195:1272   */\ntag_50:\n    /* \"#utility.yul\":1128:1278   */\n  pop\n  jump\t// out\n    /* \"#utility.yul\":1284:1455   */\ntag_30:\n    /* \"#utility.yul\":1355:1360   */\n  0x00\n    /* \"#utility.yul\":1386:1392   */\n  dup2\n    /* \"#utility.yul\":1380:1393   */\n  mload\n    /* \"#utility.yul\":1371:1393   */\n  swap1\n  pop\n    /* \"#utility.yul\":1402:1449   */\n  tag_52\n    /* \"#utility.yul\":1443:1448   */\n  dup2\n    /* \"#utility.yul\":1402:1449   */\n  tag_29\n  jump\t// in\ntag_52:\n    /* \"#utility.yul\":1284:1455   */\n  swap3\n  swap2\n  pop\n  pop\n  jump\t// out\n    /* \"#utility.yul\":1461:2022   */\ntag_5:\n    /* \"#utility.yul\":1567:1573   */\n  0x00\n    /* \"#utility.yul\":1575:1581   */\n  dup1\n    /* \"#utility.yul\":1624:1626   */\n  0x40\n    /* \"#utility.yul\":1612:1621   */\n  dup4\n    /* \"#utility.yul\":1603:1610   */\n  dup6\n    /* \"#utility.yul\":1599:1622   */\n  sub\n    /* \"#utility.yul\":1595:1627   */\n  slt\n    /* \"#utility.yul\":1592:1711   */\n  iszero\n  tag_54\n  jumpi\n    /* \"#utility.yul\":1630:1709   */\n  tag_55\n  tag_21\n  jump\t// in\ntag_55:\n    /* \"#utility.yul\":1592:1711   */\ntag_54:\n    /* \"#utility.yul\":1750:1751   */\n  0x00\n    /* \"#utility.yul\":1775:1852   */\n  tag_56\n    /* \"#utility.yul\":1844:1851   */\n  dup6\n    /* \"#utility.yul\":1835:1841   */\n  dup3\n    /* \"#utility.yul\":1824:1833   */\n  dup7\n    /* \"#utility.yul\":1820:1842   */\n  add\n    /* \"#utility.yul\":1775:1852   */\n  tag_27\n  jump\t// in\ntag_56:\n    /* \"#utility.yul\":1765:1852   */\n  swap3\n  pop\n    /* \"#utility.yul\":1721:1862   */\n  pop\n    /* \"#utility.yul\":1901:1903   */\n  0x20\n    /* \"#utility.yul\":1927:2005   */\n  tag_57\n    /* \"#utility.yul\":1997:2004   */\n  dup6\n    /* \"#utility.yul\":1988:1994   */\n  dup3\n    /* \"#utility.yul\":1977:1986   */\n  dup7\n    /* \"#utility.yul\":1973:1995   */\n  add\n    /* \"#utility.yul\":1927:2005   */\n  tag_30\n  jump\t// in\ntag_57:\n    /* \"#utility.yul\":1917:2005   */\n  swap2\n  pop\n    /* \"#utility.yul\":1872:2015   */\n  pop\n    /* \"#utility.yul\":1461:2022   */\n  swap3\n  pop\n  swap3\n  swap1\n  pop\n  jump\t// out\n    /* \"#utility.yul\":2028:2208   */\ntag_31:\n    /* \"#utility.yul\":2076:2153   */\n  0x4e487b7100000000000000000000000000000000000000000000000000000000\n    /* \"#utility.yul\":2073:2074   */\n  0x00\n    /* \"#utility.yul\":2066:2154   */\n  mstore\n    /* \"#utility.yul\":2173:2177   */\n  0x22\n    /* \"#utility.yul\":2170:2171   */\n  0x04\n    /* \"#utility.yul\":2163:2178   */\n  mstore\n    /* \"#utility.yul\":2197:2201   */\n  0x24\n    /* \"#utility.yul\":2194:2195   */\n  0x00\n    /* \"#utility.yul\":2187:2202   */\n  revert\n    /* \"#utility.yul\":2214:2534   */\ntag_10:\n    /* \"#utility.yul\":2258:2264   */\n  0x00\n    /* \"#utility.yul\":2295:2296   */\n  0x02\n    /* \"#utility.yul\":2289:2293   */\n  dup3\n    /* \"#utility.yul\":2285:2297   */\n  div\n    /* \"#utility.yul\":2275:2297   */\n  swap1\n  pop\n    /* \"#utility.yul\":2342:2343   */\n  0x01\n    /* \"#utility.yul\":2336:2340   */\n  dup3\n    /* \"#utility.yul\":2332:2344   */\n  and\n    /* \"#utility.yul\":2363:2381   */\n  dup1\n    /* \"#utility.yul\":2353:2434   */\n  tag_60\n  jumpi\n    /* \"#utility.yul\":2419:2423   */\n  0x7f\n    /* \"#utility.yul\":2411:2417   */\n  dup3\n    /* \"#utility.yul\":2407:2424   */\n  and\n    /* \"#utility.yul\":2397:2424   */\n  swap2\n  pop\n    /* \"#utility.yul\":2353:2434   */\ntag_60:\n    /* \"#utility.yul\":2481:2483   */\n  0x20\n    /* \"#utility.yul\":2473:2479   */\n  dup3\n    /* \"#utility.yul\":2470:2484   */\n  lt\n    /* \"#utility.yul\":2450:2468   */\n  dup2\n    /* \"#utility.yul\":2447:2485   */\n  eq\n    /* \"#utility.yul\":2444:2528   */\n  iszero\n  tag_61\n  jumpi\n    /* \"#utility.yul\":2500:2518   */\n  tag_62\n  tag_31\n  jump\t// in\ntag_62:\n    /* \"#utility.yul\":2444:2528   */\ntag_61:\n    /* \"#utility.yul\":2265:2534   */\n  pop\n    /* \"#utility.yul\":2214:2534   */\n  swap2\n  swap1\n  pop\n  jump\t// out\n    /* \"Staking_flat.sol\":3856:5726  contract TokenForm {... */\ntag_8:\n  dataSize(sub_0)\n  dup1\n  dataOffset(sub_0)\n  0x00\n  codecopy\n  0x00\n  return\nstop\n\nsub_0: assembly {\n        /* \"Staking_flat.sol\":3856:5726  contract TokenForm {... */\n      mstore(0x40, 0x80)\n      callvalue\n      dup1\n      iszero\n      tag_1\n      jumpi\n      0x00\n      dup1\n      revert\n    tag_1:\n      pop\n      jumpi(tag_2, lt(calldatasize, 0x04))\n      shr(0xe0, calldataload(0x00))\n      dup1\n      0x7ac3cac8\n      gt\n      tag_14\n      jumpi\n      dup1\n      0x7ac3cac8\n      eq\n      tag_8\n      jumpi\n      dup1\n      0x8da5cb5b\n      eq\n      tag_9\n      jumpi\n      dup1\n      0xa5ce413b\n      eq\n      tag_10\n      jumpi\n      dup1\n      0xc93c8f34\n      eq\n      tag_11\n      jumpi\n      dup1\n      0xce6e10b3\n      eq\n      tag_12\n      jumpi\n      dup1\n      0xfd5e6dd1\n      eq\n      tag_13\n      jumpi\n      jump(tag_2)\n    tag_14:\n      dup1\n      0x06fdde03\n      eq\n      tag_3\n      jumpi\n      dup1\n      0x45bc78ab\n      eq\n      tag_4\n      jumpi\n      dup1\n      0x60ab5852\n      eq\n      tag_5\n      jumpi\n      dup1\n      0x6f49712b\n      eq\n      tag_6\n      jumpi\n      dup1\n      0x7547c7a3\n      eq\n      tag_7\n      jumpi\n    tag_2:\n      0x00\n      dup1\n      revert\n        /* \"Staking_flat.sol\":3878:3917  string public name = \"Range Token Farm\" */\n    tag_3:\n      tag_15\n      tag_16\n      jump\t// in\n    tag_15:\n      mload(0x40)\n      tag_17\n      swap2\n      swap1\n      tag_18\n      jump\t// in\n    tag_17:\n      mload(0x40)\n      dup1\n      swap2\n      sub\n      swap1\n      return\n        /* \"Staking_flat.sol\":4025:4071  mapping(address => uint) public stakingBalance */\n    tag_4:\n      tag_19\n      0x04\n      dup1\n      calldatasize\n      sub\n      dup2\n      add\n      swap1\n      tag_20\n      swap2\n      swap1\n      tag_21\n      jump\t// in\n    tag_20:\n      tag_22\n      jump\t// in\n    tag_19:\n      mload(0x40)\n      tag_23\n      swap2\n      swap1\n      tag_24\n      jump\t// in\n    tag_23:\n      mload(0x40)\n      dup1\n      swap2\n      sub\n      swap1\n      return\n        /* \"Staking_flat.sol\":5364:5724  function issueTokens() public {... */\n    tag_5:\n      tag_25\n      tag_26\n      jump\t// in\n    tag_25:\n      stop\n        /* \"Staking_flat.sol\":4118:4159  mapping(address => bool) public isStaking */\n    tag_6:\n      tag_27\n      0x04\n      dup1\n      calldatasize\n      sub\n      dup2\n      add\n      swap1\n      tag_28\n      swap2\n      swap1\n      tag_21\n      jump\t// in\n    tag_28:\n      tag_29\n      jump\t// in\n    tag_27:\n      mload(0x40)\n      tag_30\n      swap2\n      swap1\n      tag_31\n      jump\t// in\n    tag_30:\n      mload(0x40)\n      dup1\n      swap2\n      sub\n      swap1\n      return\n        /* \"Staking_flat.sol\":4312:4886  function stakeTokens(uint _amount) public {... */\n    tag_7:\n      tag_32\n      0x04\n      dup1\n      calldatasize\n      sub\n      dup2\n      add\n      swap1\n      tag_33\n      swap2\n      swap1\n      tag_34\n      jump\t// in\n    tag_33:\n      tag_35\n      jump\t// in\n    tag_32:\n      stop\n        /* \"Staking_flat.sol\":3943:3966  Range public rangeToken */\n    tag_8:\n      tag_36\n      tag_37\n      jump\t// in\n    tag_36:\n      mload(0x40)\n      tag_38\n      swap2\n      swap1\n      tag_39\n      jump\t// in\n    tag_38:\n      mload(0x40)\n      dup1\n      swap2\n      sub\n      swap1\n      return\n        /* \"Staking_flat.sol\":3920:3940  address public owner */\n    tag_9:\n      tag_40\n      tag_41\n      jump\t// in\n    tag_40:\n      mload(0x40)\n      tag_42\n      swap2\n      swap1\n      tag_43\n      jump\t// in\n    tag_42:\n      mload(0x40)\n      dup1\n      swap2\n      sub\n      swap1\n      return\n        /* \"Staking_flat.sol\":4921:5342  function unstakeTokens() public {... */\n    tag_10:\n      tag_44\n      tag_45\n      jump\t// in\n    tag_44:\n      stop\n        /* \"Staking_flat.sol\":4074:4115  mapping(address => bool) public hasStaked */\n    tag_11:\n      tag_46\n      0x04\n      dup1\n      calldatasize\n      sub\n      dup2\n      add\n      swap1\n      tag_47\n      swap2\n      swap1\n      tag_21\n      jump\t// in\n    tag_47:\n      tag_48\n      jump\t// in\n    tag_46:\n      mload(0x40)\n      tag_49\n      swap2\n      swap1\n      tag_31\n      jump\t// in\n    tag_49:\n      mload(0x40)\n      dup1\n      swap2\n      sub\n      swap1\n      return\n        /* \"Staking_flat.sol\":3969:3994  mRange public mRangeToken */\n    tag_12:\n      tag_50\n      tag_51\n      jump\t// in\n    tag_50:\n      mload(0x40)\n      tag_52\n      swap2\n      swap1\n      tag_53\n      jump\t// in\n    tag_52:\n      mload(0x40)\n      dup1\n      swap2\n      sub\n      swap1\n      return\n        /* \"Staking_flat.sol\":3998:4022  address[] public stakers */\n    tag_13:\n      tag_54\n      0x04\n      dup1\n      calldatasize\n      sub\n      dup2\n      add\n      swap1\n      tag_55\n      swap2\n      swap1\n      tag_34\n      jump\t// in\n    tag_55:\n      tag_56\n      jump\t// in\n    tag_54:\n      mload(0x40)\n      tag_57\n      swap2\n      swap1\n      tag_43\n      jump\t// in\n    tag_57:\n      mload(0x40)\n      dup1\n      swap2\n      sub\n      swap1\n      return\n        /* \"Staking_flat.sol\":3878:3917  string public name = \"Range Token Farm\" */\n    tag_16:\n      0x00\n      dup1\n      sload\n      tag_58\n      swap1\n      tag_59\n      jump\t// in\n    tag_58:\n      dup1\n      0x1f\n      add\n      0x20\n      dup1\n      swap2\n      div\n      mul\n      0x20\n      add\n      mload(0x40)\n      swap1\n      dup2\n      add\n      0x40\n      mstore\n      dup1\n      swap3\n      swap2\n      swap1\n      dup2\n      dup2\n      mstore\n      0x20\n      add\n      dup3\n      dup1\n      sload\n      tag_60\n      swap1\n      tag_59\n      jump\t// in\n    tag_60:\n      dup1\n      iszero\n      tag_61\n      jumpi\n      dup1\n      0x1f\n      lt\n      tag_62\n      jumpi\n      0x0100\n      dup1\n      dup4\n      sload\n      div\n      mul\n      dup4\n      mstore\n      swap2\n      0x20\n      add\n      swap2\n      jump(tag_61)\n    tag_62:\n      dup3\n      add\n      swap2\n      swap1\n      0x00\n      mstore\n      keccak256(0x00, 0x20)\n      swap1\n    tag_63:\n      dup2\n      sload\n      dup2\n      mstore\n      swap1\n      0x01\n      add\n      swap1\n      0x20\n      add\n      dup1\n      dup4\n      gt\n      tag_63\n      jumpi\n      dup3\n      swap1\n      sub\n      0x1f\n      and\n      dup3\n      add\n      swap2\n    tag_61:\n      pop\n      pop\n      pop\n      pop\n      pop\n      dup2\n      jump\t// out\n        /* \"Staking_flat.sol\":4025:4071  mapping(address => uint) public stakingBalance */\n    tag_22:\n      mstore(0x20, 0x05)\n      dup1\n      0x00\n      mstore\n      keccak256(0x00, 0x40)\n      0x00\n      swap2\n      pop\n      swap1\n      pop\n      sload\n      dup2\n      jump\t// out\n        /* \"Staking_flat.sol\":5364:5724  function issueTokens() public {... */\n    tag_26:\n        /* \"Staking_flat.sol\":5455:5460  owner */\n      0x01\n      0x00\n      swap1\n      sload\n      swap1\n      0x0100\n      exp\n      swap1\n      div\n      0xffffffffffffffffffffffffffffffffffffffff\n      and\n        /* \"Staking_flat.sol\":5441:5460  msg.sender == owner */\n      0xffffffffffffffffffffffffffffffffffffffff\n      and\n        /* \"Staking_flat.sol\":5441:5451  msg.sender */\n      caller\n        /* \"Staking_flat.sol\":5441:5460  msg.sender == owner */\n      0xffffffffffffffffffffffffffffffffffffffff\n      and\n      eq\n        /* \"Staking_flat.sol\":5433:5489  require(msg.sender == owner, \"caller must be the owner\") */\n      tag_65\n      jumpi\n      mload(0x40)\n      0x08c379a000000000000000000000000000000000000000000000000000000000\n      dup2\n      mstore\n      0x04\n      add\n      tag_66\n      swap1\n      tag_67\n      jump\t// in\n    tag_66:\n      mload(0x40)\n      dup1\n      swap2\n      sub\n      swap1\n      revert\n    tag_65:\n        /* \"Staking_flat.sol\":5531:5537  uint i */\n      0x00\n        /* \"Staking_flat.sol\":5526:5721  for (uint i=0; i<stakers.length; i++) {... */\n    tag_68:\n        /* \"Staking_flat.sol\":5543:5550  stakers */\n      0x04\n        /* \"Staking_flat.sol\":5543:5557  stakers.length */\n      dup1\n      sload\n      swap1\n      pop\n        /* \"Staking_flat.sol\":5541:5542  i */\n      dup2\n        /* \"Staking_flat.sol\":5541:5557  i<stakers.length */\n      lt\n        /* \"Staking_flat.sol\":5526:5721  for (uint i=0; i<stakers.length; i++) {... */\n      iszero\n      tag_69\n      jumpi\n        /* \"Staking_flat.sol\":5569:5586  address recipient */\n      0x00\n        /* \"Staking_flat.sol\":5589:5596  stakers */\n      0x04\n        /* \"Staking_flat.sol\":5597:5598  i */\n      dup3\n        /* \"Staking_flat.sol\":5589:5599  stakers[i] */\n      dup2\n      sload\n      dup2\n      lt\n      tag_71\n      jumpi\n      tag_72\n      tag_73\n      jump\t// in\n    tag_72:\n    tag_71:\n      swap1\n      0x00\n      mstore\n      keccak256(0x00, 0x20)\n      add\n      0x00\n      swap1\n      sload\n      swap1\n      0x0100\n      exp\n      swap1\n      div\n      0xffffffffffffffffffffffffffffffffffffffff\n      and\n        /* \"Staking_flat.sol\":5569:5599  address recipient = stakers[i] */\n      swap1\n      pop\n        /* \"Staking_flat.sol\":5604:5616  uint balance */\n      0x00\n        /* \"Staking_flat.sol\":5619:5633  stakingBalance */\n      0x05\n        /* \"Staking_flat.sol\":5619:5644  stakingBalance[recipient] */\n      0x00\n        /* \"Staking_flat.sol\":5634:5643  recipient */\n      dup4\n        /* \"Staking_flat.sol\":5619:5644  stakingBalance[recipient] */\n      0xffffffffffffffffffffffffffffffffffffffff\n      and\n      0xffffffffffffffffffffffffffffffffffffffff\n      and\n      dup2\n      mstore\n      0x20\n      add\n      swap1\n      dup2\n      mstore\n      0x20\n      add\n      0x00\n      keccak256\n      sload\n        /* \"Staking_flat.sol\":5604:5644  uint balance = stakingBalance[recipient] */\n      swap1\n      pop\n        /* \"Staking_flat.sol\":5662:5663  0 */\n      0x00\n        /* \"Staking_flat.sol\":5652:5659  balance */\n      dup2\n        /* \"Staking_flat.sol\":5652:5663  balance > 0 */\n      gt\n        /* \"Staking_flat.sol\":5649:5717  if(balance > 0) {... */\n      iszero\n      tag_75\n      jumpi\n        /* \"Staking_flat.sol\":5671:5682  mRangeToken */\n      0x03\n      0x00\n      swap1\n      sload\n      swap1\n      0x0100\n      exp\n      swap1\n      div\n      0xffffffffffffffffffffffffffffffffffffffff\n      and\n        /* \"Staking_flat.sol\":5671:5691  mRangeToken.transfer */\n      0xffffffffffffffffffffffffffffffffffffffff\n      and\n      0xa9059cbb\n        /* \"Staking_flat.sol\":5692:5701  recipient */\n      dup4\n        /* \"Staking_flat.sol\":5703:5710  balance */\n      dup4\n        /* \"Staking_flat.sol\":5671:5711  mRangeToken.transfer(recipient, balance) */\n      mload(0x40)\n      dup4\n      0xffffffff\n      and\n      0xe0\n      shl\n      dup2\n      mstore\n      0x04\n      add\n      tag_76\n      swap3\n      swap2\n      swap1\n      tag_77\n      jump\t// in\n    tag_76:\n      0x20\n      mload(0x40)\n      dup1\n      dup4\n      sub\n      dup2\n      0x00\n      dup8\n      gas\n      call\n      iszero\n      dup1\n      iszero\n      tag_79\n      jumpi\n      returndatasize\n      0x00\n      dup1\n      returndatacopy\n      revert(0x00, returndatasize)\n    tag_79:\n      pop\n      pop\n      pop\n      pop\n      mload(0x40)\n      returndatasize\n      not(0x1f)\n      0x1f\n      dup3\n      add\n      and\n      dup3\n      add\n      dup1\n      0x40\n      mstore\n      pop\n      dup2\n      add\n      swap1\n      tag_80\n      swap2\n      swap1\n      tag_81\n      jump\t// in\n    tag_80:\n      pop\n        /* \"Staking_flat.sol\":5649:5717  if(balance > 0) {... */\n    tag_75:\n        /* \"Staking_flat.sol\":5564:5721  {... */\n      pop\n      pop\n        /* \"Staking_flat.sol\":5559:5562  i++ */\n      dup1\n      dup1\n      tag_82\n      swap1\n      tag_83\n      jump\t// in\n    tag_82:\n      swap2\n      pop\n      pop\n        /* \"Staking_flat.sol\":5526:5721  for (uint i=0; i<stakers.length; i++) {... */\n      jump(tag_68)\n    tag_69:\n      pop\n        /* \"Staking_flat.sol\":5364:5724  function issueTokens() public {... */\n      jump\t// out\n        /* \"Staking_flat.sol\":4118:4159  mapping(address => bool) public isStaking */\n    tag_29:\n      mstore(0x20, 0x07)\n      dup1\n      0x00\n      mstore\n      keccak256(0x00, 0x40)\n      0x00\n      swap2\n      pop\n      sload\n      swap1\n      0x0100\n      exp\n      swap1\n      div\n      0xff\n      and\n      dup2\n      jump\t// out\n        /* \"Staking_flat.sol\":4312:4886  function stakeTokens(uint _amount) public {... */\n    tag_35:\n        /* \"Staking_flat.sol\":4411:4412  0 */\n      0x00\n        /* \"Staking_flat.sol\":4401:4408  _amount */\n      dup2\n        /* \"Staking_flat.sol\":4401:4412  _amount > 0 */\n      gt\n        /* \"Staking_flat.sol\":4393:4435  require(_amount > 0, \"amount cannot be 0\") */\n      tag_85\n      jumpi\n      mload(0x40)\n      0x08c379a000000000000000000000000000000000000000000000000000000000\n      dup2\n      mstore\n      0x04\n      add\n      tag_86\n      swap1\n      tag_87\n      jump\t// in\n    tag_86:\n      mload(0x40)\n      dup1\n      swap2\n      sub\n      swap1\n      revert\n    tag_85:\n        /* \"Staking_flat.sol\":4499:4509  rangeToken */\n      0x02\n      0x00\n      swap1\n      sload\n      swap1\n      0x0100\n      exp\n      swap1\n      div\n      0xffffffffffffffffffffffffffffffffffffffff\n      and\n        /* \"Staking_flat.sol\":4499:4522  rangeToken.transferFrom */\n      0xffffffffffffffffffffffffffffffffffffffff\n      and\n      0x23b872dd\n        /* \"Staking_flat.sol\":4523:4533  msg.sender */\n      caller\n        /* \"Staking_flat.sol\":4543:4547  this */\n      address\n        /* \"Staking_flat.sol\":4550:4557  _amount */\n      dup5\n        /* \"Staking_flat.sol\":4499:4558  rangeToken.transferFrom(msg.sender, address(this), _amount) */\n      mload(0x40)\n      dup5\n      0xffffffff\n      and\n      0xe0\n      shl\n      dup2\n      mstore\n      0x04\n      add\n      tag_88\n      swap4\n      swap3\n      swap2\n      swap1\n      tag_89\n      jump\t// in\n    tag_88:\n      0x20\n      mload(0x40)\n      dup1\n      dup4\n      sub\n      dup2\n      0x00\n      dup8\n      gas\n      call\n      iszero\n      dup1\n      iszero\n      tag_91\n      jumpi\n      returndatasize\n      0x00\n      dup1\n      returndatacopy\n      revert(0x00, returndatasize)\n    tag_91:\n      pop\n      pop\n      pop\n      pop\n      mload(0x40)\n      returndatasize\n      not(0x1f)\n      0x1f\n      dup3\n      add\n      and\n      dup3\n      add\n      dup1\n      0x40\n      mstore\n      pop\n      dup2\n      add\n      swap1\n      tag_92\n      swap2\n      swap1\n      tag_81\n      jump\t// in\n    tag_92:\n      pop\n        /* \"Staking_flat.sol\":4649:4656  _amount */\n      dup1\n        /* \"Staking_flat.sol\":4620:4634  stakingBalance */\n      0x05\n        /* \"Staking_flat.sol\":4620:4646  stakingBalance[msg.sender] */\n      0x00\n        /* \"Staking_flat.sol\":4635:4645  msg.sender */\n      caller\n        /* \"Staking_flat.sol\":4620:4646  stakingBalance[msg.sender] */\n      0xffffffffffffffffffffffffffffffffffffffff\n      and\n      0xffffffffffffffffffffffffffffffffffffffff\n      and\n      dup2\n      mstore\n      0x20\n      add\n      swap1\n      dup2\n      mstore\n      0x20\n      add\n      0x00\n      keccak256\n      sload\n        /* \"Staking_flat.sol\":4620:4656  stakingBalance[msg.sender] + _amount */\n      tag_93\n      swap2\n      swap1\n      tag_94\n      jump\t// in\n    tag_93:\n        /* \"Staking_flat.sol\":4591:4605  stakingBalance */\n      0x05\n        /* \"Staking_flat.sol\":4591:4617  stakingBalance[msg.sender] */\n      0x00\n        /* \"Staking_flat.sol\":4606:4616  msg.sender */\n      caller\n        /* \"Staking_flat.sol\":4591:4617  stakingBalance[msg.sender] */\n      0xffffffffffffffffffffffffffffffffffffffff\n      and\n      0xffffffffffffffffffffffffffffffffffffffff\n      and\n      dup2\n      mstore\n      0x20\n      add\n      swap1\n      dup2\n      mstore\n      0x20\n      add\n      0x00\n      keccak256\n        /* \"Staking_flat.sol\":4591:4656  stakingBalance[msg.sender] = stakingBalance[msg.sender] + _amount */\n      dup2\n      swap1\n      sstore\n      pop\n        /* \"Staking_flat.sol\":4734:4743  hasStaked */\n      0x06\n        /* \"Staking_flat.sol\":4734:4755  hasStaked[msg.sender] */\n      0x00\n        /* \"Staking_flat.sol\":4744:4754  msg.sender */\n      caller\n        /* \"Staking_flat.sol\":4734:4755  hasStaked[msg.sender] */\n      0xffffffffffffffffffffffffffffffffffffffff\n      and\n      0xffffffffffffffffffffffffffffffffffffffff\n      and\n      dup2\n      mstore\n      0x20\n      add\n      swap1\n      dup2\n      mstore\n      0x20\n      add\n      0x00\n      keccak256\n      0x00\n      swap1\n      sload\n      swap1\n      0x0100\n      exp\n      swap1\n      div\n      0xff\n      and\n        /* \"Staking_flat.sol\":4730:4791  if(!hasStaked[msg.sender]) {... */\n      tag_95\n      jumpi\n        /* \"Staking_flat.sol\":4762:4769  stakers */\n      0x04\n        /* \"Staking_flat.sol\":4775:4785  msg.sender */\n      caller\n        /* \"Staking_flat.sol\":4762:4786  stakers.push(msg.sender) */\n      swap1\n      dup1\n      0x01\n      dup2\n      sload\n      add\n      dup1\n      dup3\n      sstore\n      dup1\n      swap2\n      pop\n      pop\n      0x01\n      swap1\n      sub\n      swap1\n      0x00\n      mstore\n      keccak256(0x00, 0x20)\n      add\n      0x00\n      swap1\n      swap2\n      swap1\n      swap2\n      swap1\n      swap2\n      0x0100\n      exp\n      dup2\n      sload\n      dup2\n      0xffffffffffffffffffffffffffffffffffffffff\n      mul\n      not\n      and\n      swap1\n      dup4\n      0xffffffffffffffffffffffffffffffffffffffff\n      and\n      mul\n      or\n      swap1\n      sstore\n      pop\n        /* \"Staking_flat.sol\":4730:4791  if(!hasStaked[msg.sender]) {... */\n    tag_95:\n        /* \"Staking_flat.sol\":4845:4849  true */\n      0x01\n        /* \"Staking_flat.sol\":4821:4830  isStaking */\n      0x07\n        /* \"Staking_flat.sol\":4821:4842  isStaking[msg.sender] */\n      0x00\n        /* \"Staking_flat.sol\":4831:4841  msg.sender */\n      caller\n        /* \"Staking_flat.sol\":4821:4842  isStaking[msg.sender] */\n      0xffffffffffffffffffffffffffffffffffffffff\n      and\n      0xffffffffffffffffffffffffffffffffffffffff\n      and\n      dup2\n      mstore\n      0x20\n      add\n      swap1\n      dup2\n      mstore\n      0x20\n      add\n      0x00\n      keccak256\n      0x00\n        /* \"Staking_flat.sol\":4821:4849  isStaking[msg.sender] = true */\n      0x0100\n      exp\n      dup2\n      sload\n      dup2\n      0xff\n      mul\n      not\n      and\n      swap1\n      dup4\n      iszero\n      iszero\n      mul\n      or\n      swap1\n      sstore\n      pop\n        /* \"Staking_flat.sol\":4877:4881  true */\n      0x01\n        /* \"Staking_flat.sol\":4853:4862  hasStaked */\n      0x06\n        /* \"Staking_flat.sol\":4853:4874  hasStaked[msg.sender] */\n      0x00\n        /* \"Staking_flat.sol\":4863:4873  msg.sender */\n      caller\n        /* \"Staking_flat.sol\":4853:4874  hasStaked[msg.sender] */\n      0xffffffffffffffffffffffffffffffffffffffff\n      and\n      0xffffffffffffffffffffffffffffffffffffffff\n      and\n      dup2\n      mstore\n      0x20\n      add\n      swap1\n      dup2\n      mstore\n      0x20\n      add\n      0x00\n      keccak256\n      0x00\n        /* \"Staking_flat.sol\":4853:4881  hasStaked[msg.sender] = true */\n      0x0100\n      exp\n      dup2\n      sload\n      dup2\n      0xff\n      mul\n      not\n      and\n      swap1\n      dup4\n      iszero\n      iszero\n      mul\n      or\n      swap1\n      sstore\n      pop\n        /* \"Staking_flat.sol\":4312:4886  function stakeTokens(uint _amount) public {... */\n      pop\n      jump\t// out\n        /* \"Staking_flat.sol\":3943:3966  Range public rangeToken */\n    tag_37:\n      0x02\n      0x00\n      swap1\n      sload\n      swap1\n      0x0100\n      exp\n      swap1\n      div\n      0xffffffffffffffffffffffffffffffffffffffff\n      and\n      dup2\n      jump\t// out\n        /* \"Staking_flat.sol\":3920:3940  address public owner */\n    tag_41:\n      0x01\n      0x00\n      swap1\n      sload\n      swap1\n      0x0100\n      exp\n      swap1\n      div\n      0xffffffffffffffffffffffffffffffffffffffff\n      and\n      dup2\n      jump\t// out\n        /* \"Staking_flat.sol\":4921:5342  function unstakeTokens() public {... */\n    tag_45:\n        /* \"Staking_flat.sol\":4983:4995  uint balance */\n      0x00\n        /* \"Staking_flat.sol\":4997:5011  stakingBalance */\n      0x05\n        /* \"Staking_flat.sol\":4997:5023  stakingBalance[msg.sender] */\n      0x00\n        /* \"Staking_flat.sol\":5012:5022  msg.sender */\n      caller\n        /* \"Staking_flat.sol\":4997:5023  stakingBalance[msg.sender] */\n      0xffffffffffffffffffffffffffffffffffffffff\n      and\n      0xffffffffffffffffffffffffffffffffffffffff\n      and\n      dup2\n      mstore\n      0x20\n      add\n      swap1\n      dup2\n      mstore\n      0x20\n      add\n      0x00\n      keccak256\n      sload\n        /* \"Staking_flat.sol\":4983:5023  uint balance =stakingBalance[msg.sender] */\n      swap1\n      pop\n        /* \"Staking_flat.sol\":5080:5081  0 */\n      0x00\n        /* \"Staking_flat.sol\":5070:5077  balance */\n      dup2\n        /* \"Staking_flat.sol\":5070:5081  balance > 0 */\n      gt\n        /* \"Staking_flat.sol\":5062:5113  require(balance > 0, \"staking balance cannot be 0\") */\n      tag_98\n      jumpi\n      mload(0x40)\n      0x08c379a000000000000000000000000000000000000000000000000000000000\n      dup2\n      mstore\n      0x04\n      add\n      tag_99\n      swap1\n      tag_100\n      jump\t// in\n    tag_99:\n      mload(0x40)\n      dup1\n      swap2\n      sub\n      swap1\n      revert\n    tag_98:\n        /* \"Staking_flat.sol\":5177:5187  rangeToken */\n      0x02\n      0x00\n      swap1\n      sload\n      swap1\n      0x0100\n      exp\n      swap1\n      div\n      0xffffffffffffffffffffffffffffffffffffffff\n      and\n        /* \"Staking_flat.sol\":5177:5196  rangeToken.transfer */\n      0xffffffffffffffffffffffffffffffffffffffff\n      and\n      0xa9059cbb\n        /* \"Staking_flat.sol\":5197:5207  msg.sender */\n      caller\n        /* \"Staking_flat.sol\":5209:5216  balance */\n      dup4\n        /* \"Staking_flat.sol\":5177:5217  rangeToken.transfer(msg.sender, balance) */\n      mload(0x40)\n      dup4\n      0xffffffff\n      and\n      0xe0\n      shl\n      dup2\n      mstore\n      0x04\n      add\n      tag_101\n      swap3\n      swap2\n      swap1\n      tag_77\n      jump\t// in\n    tag_101:\n      0x20\n      mload(0x40)\n      dup1\n      dup4\n      sub\n      dup2\n      0x00\n      dup8\n      gas\n      call\n      iszero\n      dup1\n      iszero\n      tag_103\n      jumpi\n      returndatasize\n      0x00\n      dup1\n      returndatacopy\n      revert(0x00, returndatasize)\n    tag_103:\n      pop\n      pop\n      pop\n      pop\n      mload(0x40)\n      returndatasize\n      not(0x1f)\n      0x1f\n      dup3\n      add\n      and\n      dup3\n      add\n      dup1\n      0x40\n      mstore\n      pop\n      dup2\n      add\n      swap1\n      tag_104\n      swap2\n      swap1\n      tag_81\n      jump\t// in\n    tag_104:\n      pop\n        /* \"Staking_flat.sol\":5276:5277  0 */\n      0x00\n        /* \"Staking_flat.sol\":5247:5261  stakingBalance */\n      0x05\n        /* \"Staking_flat.sol\":5247:5273  stakingBalance[msg.sender] */\n      0x00\n        /* \"Staking_flat.sol\":5262:5272  msg.sender */\n      caller\n        /* \"Staking_flat.sol\":5247:5273  stakingBalance[msg.sender] */\n      0xffffffffffffffffffffffffffffffffffffffff\n      and\n      0xffffffffffffffffffffffffffffffffffffffff\n      and\n      dup2\n      mstore\n      0x20\n      add\n      swap1\n      dup2\n      mstore\n      0x20\n      add\n      0x00\n      keccak256\n        /* \"Staking_flat.sol\":5247:5277  stakingBalance[msg.sender] = 0 */\n      dup2\n      swap1\n      sstore\n      pop\n        /* \"Staking_flat.sol\":5332:5337  false */\n      0x00\n        /* \"Staking_flat.sol\":5308:5317  isStaking */\n      0x07\n        /* \"Staking_flat.sol\":5308:5329  isStaking[msg.sender] */\n      0x00\n        /* \"Staking_flat.sol\":5318:5328  msg.sender */\n      caller\n        /* \"Staking_flat.sol\":5308:5329  isStaking[msg.sender] */\n      0xffffffffffffffffffffffffffffffffffffffff\n      and\n      0xffffffffffffffffffffffffffffffffffffffff\n      and\n      dup2\n      mstore\n      0x20\n      add\n      swap1\n      dup2\n      mstore\n      0x20\n      add\n      0x00\n      keccak256\n      0x00\n        /* \"Staking_flat.sol\":5308:5337  isStaking[msg.sender] = false */\n      0x0100\n      exp\n      dup2\n      sload\n      dup2\n      0xff\n      mul\n      not\n      and\n      swap1\n      dup4\n      iszero\n      iszero\n      mul\n      or\n      swap1\n      sstore\n      pop\n        /* \"Staking_flat.sol\":4953:5342  {... */\n      pop\n        /* \"Staking_flat.sol\":4921:5342  function unstakeTokens() public {... */\n      jump\t// out\n        /* \"Staking_flat.sol\":4074:4115  mapping(address => bool) public hasStaked */\n    tag_48:\n      mstore(0x20, 0x06)\n      dup1\n      0x00\n      mstore\n      keccak256(0x00, 0x40)\n      0x00\n      swap2\n      pop\n      sload\n      swap1\n      0x0100\n      exp\n      swap1\n      div\n      0xff\n      and\n      dup2\n      jump\t// out\n        /* \"Staking_flat.sol\":3969:3994  mRange public mRangeToken */\n    tag_51:\n      0x03\n      0x00\n      swap1\n      sload\n      swap1\n      0x0100\n      exp\n      swap1\n      div\n      0xffffffffffffffffffffffffffffffffffffffff\n      and\n      dup2\n      jump\t// out\n        /* \"Staking_flat.sol\":3998:4022  address[] public stakers */\n    tag_56:\n      0x04\n      dup2\n      dup2\n      sload\n      dup2\n      lt\n      tag_105\n      jumpi\n      0x00\n      dup1\n      revert\n    tag_105:\n      swap1\n      0x00\n      mstore\n      keccak256(0x00, 0x20)\n      add\n      0x00\n      swap2\n      pop\n      sload\n      swap1\n      0x0100\n      exp\n      swap1\n      div\n      0xffffffffffffffffffffffffffffffffffffffff\n      and\n      dup2\n      jump\t// out\n        /* \"#utility.yul\":7:106   */\n    tag_107:\n        /* \"#utility.yul\":59:65   */\n      0x00\n        /* \"#utility.yul\":93:98   */\n      dup2\n        /* \"#utility.yul\":87:99   */\n      mload\n        /* \"#utility.yul\":77:99   */\n      swap1\n      pop\n        /* \"#utility.yul\":7:106   */\n      swap2\n      swap1\n      pop\n      jump\t// out\n        /* \"#utility.yul\":112:281   */\n    tag_108:\n        /* \"#utility.yul\":196:207   */\n      0x00\n        /* \"#utility.yul\":230:236   */\n      dup3\n        /* \"#utility.yul\":225:228   */\n      dup3\n        /* \"#utility.yul\":218:237   */\n      mstore\n        /* \"#utility.yul\":270:274   */\n      0x20\n        /* \"#utility.yul\":265:268   */\n      dup3\n        /* \"#utility.yul\":261:275   */\n      add\n        /* \"#utility.yul\":246:275   */\n      swap1\n      pop\n        /* \"#utility.yul\":112:281   */\n      swap3\n      swap2\n      pop\n      pop\n      jump\t// out\n        /* \"#utility.yul\":287:594   */\n    tag_109:\n        /* \"#utility.yul\":355:356   */\n      0x00\n        /* \"#utility.yul\":365:478   */\n    tag_147:\n        /* \"#utility.yul\":379:385   */\n      dup4\n        /* \"#utility.yul\":376:377   */\n      dup2\n        /* \"#utility.yul\":373:386   */\n      lt\n        /* \"#utility.yul\":365:478   */\n      iszero\n      tag_149\n      jumpi\n        /* \"#utility.yul\":464:465   */\n      dup1\n        /* \"#utility.yul\":459:462   */\n      dup3\n        /* \"#utility.yul\":455:466   */\n      add\n        /* \"#utility.yul\":449:467   */\n      mload\n        /* \"#utility.yul\":445:446   */\n      dup2\n        /* \"#utility.yul\":440:443   */\n      dup5\n        /* \"#utility.yul\":436:447   */\n      add\n        /* \"#utility.yul\":429:468   */\n      mstore\n        /* \"#utility.yul\":401:403   */\n      0x20\n        /* \"#utility.yul\":398:399   */\n      dup2\n        /* \"#utility.yul\":394:404   */\n      add\n        /* \"#utility.yul\":389:404   */\n      swap1\n      pop\n        /* \"#utility.yul\":365:478   */\n      jump(tag_147)\n    tag_149:\n        /* \"#utility.yul\":496:502   */\n      dup4\n        /* \"#utility.yul\":493:494   */\n      dup2\n        /* \"#utility.yul\":490:503   */\n      gt\n        /* \"#utility.yul\":487:588   */\n      iszero\n      tag_150\n      jumpi\n        /* \"#utility.yul\":576:577   */\n      0x00\n        /* \"#utility.yul\":567:573   */\n      dup5\n        /* \"#utility.yul\":562:565   */\n      dup5\n        /* \"#utility.yul\":558:574   */\n      add\n        /* \"#utility.yul\":551:578   */\n      mstore\n        /* \"#utility.yul\":487:588   */\n    tag_150:\n        /* \"#utility.yul\":336:594   */\n      pop\n        /* \"#utility.yul\":287:594   */\n      pop\n      pop\n      pop\n      jump\t// out\n        /* \"#utility.yul\":600:702   */\n    tag_110:\n        /* \"#utility.yul\":641:647   */\n      0x00\n        /* \"#utility.yul\":692:694   */\n      0x1f\n        /* \"#utility.yul\":688:695   */\n      not\n        /* \"#utility.yul\":683:685   */\n      0x1f\n        /* \"#utility.yul\":676:681   */\n      dup4\n        /* \"#utility.yul\":672:686   */\n      add\n        /* \"#utility.yul\":668:696   */\n      and\n        /* \"#utility.yul\":658:696   */\n      swap1\n      pop\n        /* \"#utility.yul\":600:702   */\n      swap2\n      swap1\n      pop\n      jump\t// out\n        /* \"#utility.yul\":708:1072   */\n    tag_111:\n        /* \"#utility.yul\":796:799   */\n      0x00\n        /* \"#utility.yul\":824:863   */\n      tag_153\n        /* \"#utility.yul\":857:862   */\n      dup3\n        /* \"#utility.yul\":824:863   */\n      tag_107\n      jump\t// in\n    tag_153:\n        /* \"#utility.yul\":879:950   */\n      tag_154\n        /* \"#utility.yul\":943:949   */\n      dup2\n        /* \"#utility.yul\":938:941   */\n      dup6\n        /* \"#utility.yul\":879:950   */\n      tag_108\n      jump\t// in\n    tag_154:\n        /* \"#utility.yul\":872:950   */\n      swap4\n      pop\n        /* \"#utility.yul\":959:1011   */\n      tag_155\n        /* \"#utility.yul\":1004:1010   */\n      dup2\n        /* \"#utility.yul\":999:1002   */\n      dup6\n        /* \"#utility.yul\":992:996   */\n      0x20\n        /* \"#utility.yul\":985:990   */\n      dup7\n        /* \"#utility.yul\":981:997   */\n      add\n        /* \"#utility.yul\":959:1011   */\n      tag_109\n      jump\t// in\n    tag_155:\n        /* \"#utility.yul\":1036:1065   */\n      tag_156\n        /* \"#utility.yul\":1058:1064   */\n      dup2\n        /* \"#utility.yul\":1036:1065   */\n      tag_110\n      jump\t// in\n    tag_156:\n        /* \"#utility.yul\":1031:1034   */\n      dup5\n        /* \"#utility.yul\":1027:1066   */\n      add\n        /* \"#utility.yul\":1020:1066   */\n      swap2\n      pop\n        /* \"#utility.yul\":800:1072   */\n      pop\n        /* \"#utility.yul\":708:1072   */\n      swap3\n      swap2\n      pop\n      pop\n      jump\t// out\n        /* \"#utility.yul\":1078:1391   */\n    tag_18:\n        /* \"#utility.yul\":1191:1195   */\n      0x00\n        /* \"#utility.yul\":1229:1231   */\n      0x20\n        /* \"#utility.yul\":1218:1227   */\n      dup3\n        /* \"#utility.yul\":1214:1232   */\n      add\n        /* \"#utility.yul\":1206:1232   */\n      swap1\n      pop\n        /* \"#utility.yul\":1278:1287   */\n      dup2\n        /* \"#utility.yul\":1272:1276   */\n      dup2\n        /* \"#utility.yul\":1268:1288   */\n      sub\n        /* \"#utility.yul\":1264:1265   */\n      0x00\n        /* \"#utility.yul\":1253:1262   */\n      dup4\n        /* \"#utility.yul\":1249:1266   */\n      add\n        /* \"#utility.yul\":1242:1289   */\n      mstore\n        /* \"#utility.yul\":1306:1384   */\n      tag_158\n        /* \"#utility.yul\":1379:1383   */\n      dup2\n        /* \"#utility.yul\":1370:1376   */\n      dup5\n        /* \"#utility.yul\":1306:1384   */\n      tag_111\n      jump\t// in\n    tag_158:\n        /* \"#utility.yul\":1298:1384   */\n      swap1\n      pop\n        /* \"#utility.yul\":1078:1391   */\n      swap3\n      swap2\n      pop\n      pop\n      jump\t// out\n        /* \"#utility.yul\":1478:1595   */\n    tag_113:\n        /* \"#utility.yul\":1587:1588   */\n      0x00\n        /* \"#utility.yul\":1584:1585   */\n      dup1\n        /* \"#utility.yul\":1577:1589   */\n      revert\n        /* \"#utility.yul\":1724:1850   */\n    tag_115:\n        /* \"#utility.yul\":1761:1768   */\n      0x00\n        /* \"#utility.yul\":1801:1843   */\n      0xffffffffffffffffffffffffffffffffffffffff\n        /* \"#utility.yul\":1794:1799   */\n      dup3\n        /* \"#utility.yul\":1790:1844   */\n      and\n        /* \"#utility.yul\":1779:1844   */\n      swap1\n      pop\n        /* \"#utility.yul\":1724:1850   */\n      swap2\n      swap1\n      pop\n      jump\t// out\n        /* \"#utility.yul\":1856:1952   */\n    tag_116:\n        /* \"#utility.yul\":1893:1900   */\n      0x00\n        /* \"#utility.yul\":1922:1946   */\n      tag_164\n        /* \"#utility.yul\":1940:1945   */\n      dup3\n        /* \"#utility.yul\":1922:1946   */\n      tag_115\n      jump\t// in\n    tag_164:\n        /* \"#utility.yul\":1911:1946   */\n      swap1\n      pop\n        /* \"#utility.yul\":1856:1952   */\n      swap2\n      swap1\n      pop\n      jump\t// out\n        /* \"#utility.yul\":1958:2080   */\n    tag_117:\n        /* \"#utility.yul\":2031:2055   */\n      tag_166\n        /* \"#utility.yul\":2049:2054   */\n      dup2\n        /* \"#utility.yul\":2031:2055   */\n      tag_116\n      jump\t// in\n    tag_166:\n        /* \"#utility.yul\":2024:2029   */\n      dup2\n        /* \"#utility.yul\":2021:2056   */\n      eq\n        /* \"#utility.yul\":2011:2074   */\n      tag_167\n      jumpi\n        /* \"#utility.yul\":2070:2071   */\n      0x00\n        /* \"#utility.yul\":2067:2068   */\n      dup1\n        /* \"#utility.yul\":2060:2072   */\n      revert\n        /* \"#utility.yul\":2011:2074   */\n    tag_167:\n        /* \"#utility.yul\":1958:2080   */\n      pop\n      jump\t// out\n        /* \"#utility.yul\":2086:2225   */\n    tag_118:\n        /* \"#utility.yul\":2132:2137   */\n      0x00\n        /* \"#utility.yul\":2170:2176   */\n      dup2\n        /* \"#utility.yul\":2157:2177   */\n      calldataload\n        /* \"#utility.yul\":2148:2177   */\n      swap1\n      pop\n        /* \"#utility.yul\":2186:2219   */\n      tag_169\n        /* \"#utility.yul\":2213:2218   */\n      dup2\n        /* \"#utility.yul\":2186:2219   */\n      tag_117\n      jump\t// in\n    tag_169:\n        /* \"#utility.yul\":2086:2225   */\n      swap3\n      swap2\n      pop\n      pop\n      jump\t// out\n        /* \"#utility.yul\":2231:2560   */\n    tag_21:\n        /* \"#utility.yul\":2290:2296   */\n      0x00\n        /* \"#utility.yul\":2339:2341   */\n      0x20\n        /* \"#utility.yul\":2327:2336   */\n      dup3\n        /* \"#utility.yul\":2318:2325   */\n      dup5\n        /* \"#utility.yul\":2314:2337   */\n      sub\n        /* \"#utility.yul\":2310:2342   */\n      slt\n        /* \"#utility.yul\":2307:2426   */\n      iszero\n      tag_171\n      jumpi\n        /* \"#utility.yul\":2345:2424   */\n      tag_172\n      tag_113\n      jump\t// in\n    tag_172:\n        /* \"#utility.yul\":2307:2426   */\n    tag_171:\n        /* \"#utility.yul\":2465:2466   */\n      0x00\n        /* \"#utility.yul\":2490:2543   */\n      tag_173\n        /* \"#utility.yul\":2535:2542   */\n      dup5\n        /* \"#utility.yul\":2526:2532   */\n      dup3\n        /* \"#utility.yul\":2515:2524   */\n      dup6\n        /* \"#utility.yul\":2511:2533   */\n      add\n        /* \"#utility.yul\":2490:2543   */\n      tag_118\n      jump\t// in\n    tag_173:\n        /* \"#utility.yul\":2480:2543   */\n      swap2\n      pop\n        /* \"#utility.yul\":2436:2553   */\n      pop\n        /* \"#utility.yul\":2231:2560   */\n      swap3\n      swap2\n      pop\n      pop\n      jump\t// out\n        /* \"#utility.yul\":2566:2643   */\n    tag_119:\n        /* \"#utility.yul\":2603:2610   */\n      0x00\n        /* \"#utility.yul\":2632:2637   */\n      dup2\n        /* \"#utility.yul\":2621:2637   */\n      swap1\n      pop\n        /* \"#utility.yul\":2566:2643   */\n      swap2\n      swap1\n      pop\n      jump\t// out\n        /* \"#utility.yul\":2649:2767   */\n    tag_120:\n        /* \"#utility.yul\":2736:2760   */\n      tag_176\n        /* \"#utility.yul\":2754:2759   */\n      dup2\n        /* \"#utility.yul\":2736:2760   */\n      tag_119\n      jump\t// in\n    tag_176:\n        /* \"#utility.yul\":2731:2734   */\n      dup3\n        /* \"#utility.yul\":2724:2761   */\n      mstore\n        /* \"#utility.yul\":2649:2767   */\n      pop\n      pop\n      jump\t// out\n        /* \"#utility.yul\":2773:2995   */\n    tag_24:\n        /* \"#utility.yul\":2866:2870   */\n      0x00\n        /* \"#utility.yul\":2904:2906   */\n      0x20\n        /* \"#utility.yul\":2893:2902   */\n      dup3\n        /* \"#utility.yul\":2889:2907   */\n      add\n        /* \"#utility.yul\":2881:2907   */\n      swap1\n      pop\n        /* \"#utility.yul\":2917:2988   */\n      tag_178\n        /* \"#utility.yul\":2985:2986   */\n      0x00\n        /* \"#utility.yul\":2974:2983   */\n      dup4\n        /* \"#utility.yul\":2970:2987   */\n      add\n        /* \"#utility.yul\":2961:2967   */\n      dup5\n        /* \"#utility.yul\":2917:2988   */\n      tag_120\n      jump\t// in\n    tag_178:\n        /* \"#utility.yul\":2773:2995   */\n      swap3\n      swap2\n      pop\n      pop\n      jump\t// out\n        /* \"#utility.yul\":3001:3091   */\n    tag_121:\n        /* \"#utility.yul\":3035:3042   */\n      0x00\n        /* \"#utility.yul\":3078:3083   */\n      dup2\n        /* \"#utility.yul\":3071:3084   */\n      iszero\n        /* \"#utility.yul\":3064:3085   */\n      iszero\n        /* \"#utility.yul\":3053:3085   */\n      swap1\n      pop\n        /* \"#utility.yul\":3001:3091   */\n      swap2\n      swap1\n      pop\n      jump\t// out\n        /* \"#utility.yul\":3097:3206   */\n    tag_122:\n        /* \"#utility.yul\":3178:3199   */\n      tag_181\n        /* \"#utility.yul\":3193:3198   */\n      dup2\n        /* \"#utility.yul\":3178:3199   */\n      tag_121\n      jump\t// in\n    tag_181:\n        /* \"#utility.yul\":3173:3176   */\n      dup3\n        /* \"#utility.yul\":3166:3200   */\n      mstore\n        /* \"#utility.yul\":3097:3206   */\n      pop\n      pop\n      jump\t// out\n        /* \"#utility.yul\":3212:3422   */\n    tag_31:\n        /* \"#utility.yul\":3299:3303   */\n      0x00\n        /* \"#utility.yul\":3337:3339   */\n      0x20\n        /* \"#utility.yul\":3326:3335   */\n      dup3\n        /* \"#utility.yul\":3322:3340   */\n      add\n        /* \"#utility.yul\":3314:3340   */\n      swap1\n      pop\n        /* \"#utility.yul\":3350:3415   */\n      tag_183\n        /* \"#utility.yul\":3412:3413   */\n      0x00\n        /* \"#utility.yul\":3401:3410   */\n      dup4\n        /* \"#utility.yul\":3397:3414   */\n      add\n        /* \"#utility.yul\":3388:3394   */\n      dup5\n        /* \"#utility.yul\":3350:3415   */\n      tag_122\n      jump\t// in\n    tag_183:\n        /* \"#utility.yul\":3212:3422   */\n      swap3\n      swap2\n      pop\n      pop\n      jump\t// out\n        /* \"#utility.yul\":3428:3550   */\n    tag_123:\n        /* \"#utility.yul\":3501:3525   */\n      tag_185\n        /* \"#utility.yul\":3519:3524   */\n      dup2\n        /* \"#utility.yul\":3501:3525   */\n      tag_119\n      jump\t// in\n    tag_185:\n        /* \"#utility.yul\":3494:3499   */\n      dup2\n        /* \"#utility.yul\":3491:3526   */\n      eq\n        /* \"#utility.yul\":3481:3544   */\n      tag_186\n      jumpi\n        /* \"#utility.yul\":3540:3541   */\n      0x00\n        /* \"#utility.yul\":3537:3538   */\n      dup1\n        /* \"#utility.yul\":3530:3542   */\n      revert\n        /* \"#utility.yul\":3481:3544   */\n    tag_186:\n        /* \"#utility.yul\":3428:3550   */\n      pop\n      jump\t// out\n        /* \"#utility.yul\":3556:3695   */\n    tag_124:\n        /* \"#utility.yul\":3602:3607   */\n      0x00\n        /* \"#utility.yul\":3640:3646   */\n      dup2\n        /* \"#utility.yul\":3627:3647   */\n      calldataload\n        /* \"#utility.yul\":3618:3647   */\n      swap1\n      pop\n        /* \"#utility.yul\":3656:3689   */\n      tag_188\n        /* \"#utility.yul\":3683:3688   */\n      dup2\n        /* \"#utility.yul\":3656:3689   */\n      tag_123\n      jump\t// in\n    tag_188:\n        /* \"#utility.yul\":3556:3695   */\n      swap3\n      swap2\n      pop\n      pop\n      jump\t// out\n        /* \"#utility.yul\":3701:4030   */\n    tag_34:\n        /* \"#utility.yul\":3760:3766   */\n      0x00\n        /* \"#utility.yul\":3809:3811   */\n      0x20\n        /* \"#utility.yul\":3797:3806   */\n      dup3\n        /* \"#utility.yul\":3788:3795   */\n      dup5\n        /* \"#utility.yul\":3784:3807   */\n      sub\n        /* \"#utility.yul\":3780:3812   */\n      slt\n        /* \"#utility.yul\":3777:3896   */\n      iszero\n      tag_190\n      jumpi\n        /* \"#utility.yul\":3815:3894   */\n      tag_191\n      tag_113\n      jump\t// in\n    tag_191:\n        /* \"#utility.yul\":3777:3896   */\n    tag_190:\n        /* \"#utility.yul\":3935:3936   */\n      0x00\n        /* \"#utility.yul\":3960:4013   */\n      tag_192\n        /* \"#utility.yul\":4005:4012   */\n      dup5\n        /* \"#utility.yul\":3996:4002   */\n      dup3\n        /* \"#utility.yul\":3985:3994   */\n      dup6\n        /* \"#utility.yul\":3981:4003   */\n      add\n        /* \"#utility.yul\":3960:4013   */\n      tag_124\n      jump\t// in\n    tag_192:\n        /* \"#utility.yul\":3950:4013   */\n      swap2\n      pop\n        /* \"#utility.yul\":3906:4023   */\n      pop\n        /* \"#utility.yul\":3701:4030   */\n      swap3\n      swap2\n      pop\n      pop\n      jump\t// out\n        /* \"#utility.yul\":4036:4096   */\n    tag_125:\n        /* \"#utility.yul\":4064:4067   */\n      0x00\n        /* \"#utility.yul\":4085:4090   */\n      dup2\n        /* \"#utility.yul\":4078:4090   */\n      swap1\n      pop\n        /* \"#utility.yul\":4036:4096   */\n      swap2\n      swap1\n      pop\n      jump\t// out\n        /* \"#utility.yul\":4102:4244   */\n    tag_126:\n        /* \"#utility.yul\":4152:4161   */\n      0x00\n        /* \"#utility.yul\":4185:4238   */\n      tag_195\n        /* \"#utility.yul\":4203:4237   */\n      tag_196\n        /* \"#utility.yul\":4212:4236   */\n      tag_197\n        /* \"#utility.yul\":4230:4235   */\n      dup5\n        /* \"#utility.yul\":4212:4236   */\n      tag_115\n      jump\t// in\n    tag_197:\n        /* \"#utility.yul\":4203:4237   */\n      tag_125\n      jump\t// in\n    tag_196:\n        /* \"#utility.yul\":4185:4238   */\n      tag_115\n      jump\t// in\n    tag_195:\n        /* \"#utility.yul\":4172:4238   */\n      swap1\n      pop\n        /* \"#utility.yul\":4102:4244   */\n      swap2\n      swap1\n      pop\n      jump\t// out\n        /* \"#utility.yul\":4250:4376   */\n    tag_127:\n        /* \"#utility.yul\":4300:4309   */\n      0x00\n        /* \"#utility.yul\":4333:4370   */\n      tag_199\n        /* \"#utility.yul\":4364:4369   */\n      dup3\n        /* \"#utility.yul\":4333:4370   */\n      tag_126\n      jump\t// in\n    tag_199:\n        /* \"#utility.yul\":4320:4370   */\n      swap1\n      pop\n        /* \"#utility.yul\":4250:4376   */\n      swap2\n      swap1\n      pop\n      jump\t// out\n        /* \"#utility.yul\":4382:4521   */\n    tag_128:\n        /* \"#utility.yul\":4445:4454   */\n      0x00\n        /* \"#utility.yul\":4478:4515   */\n      tag_201\n        /* \"#utility.yul\":4509:4514   */\n      dup3\n        /* \"#utility.yul\":4478:4515   */\n      tag_127\n      jump\t// in\n    tag_201:\n        /* \"#utility.yul\":4465:4515   */\n      swap1\n      pop\n        /* \"#utility.yul\":4382:4521   */\n      swap2\n      swap1\n      pop\n      jump\t// out\n        /* \"#utility.yul\":4527:4684   */\n    tag_129:\n        /* \"#utility.yul\":4627:4677   */\n      tag_203\n        /* \"#utility.yul\":4671:4676   */\n      dup2\n        /* \"#utility.yul\":4627:4677   */\n      tag_128\n      jump\t// in\n    tag_203:\n        /* \"#utility.yul\":4622:4625   */\n      dup3\n        /* \"#utility.yul\":4615:4678   */\n      mstore\n        /* \"#utility.yul\":4527:4684   */\n      pop\n      pop\n      jump\t// out\n        /* \"#utility.yul\":4690:4938   */\n    tag_39:\n        /* \"#utility.yul\":4796:4800   */\n      0x00\n        /* \"#utility.yul\":4834:4836   */\n      0x20\n        /* \"#utility.yul\":4823:4832   */\n      dup3\n        /* \"#utility.yul\":4819:4837   */\n      add\n        /* \"#utility.yul\":4811:4837   */\n      swap1\n      pop\n        /* \"#utility.yul\":4847:4931   */\n      tag_205\n        /* \"#utility.yul\":4928:4929   */\n      0x00\n        /* \"#utility.yul\":4917:4926   */\n      dup4\n        /* \"#utility.yul\":4913:4930   */\n      add\n        /* \"#utility.yul\":4904:4910   */\n      dup5\n        /* \"#utility.yul\":4847:4931   */\n      tag_129\n      jump\t// in\n    tag_205:\n        /* \"#utility.yul\":4690:4938   */\n      swap3\n      swap2\n      pop\n      pop\n      jump\t// out\n        /* \"#utility.yul\":4944:5062   */\n    tag_130:\n        /* \"#utility.yul\":5031:5055   */\n      tag_207\n        /* \"#utility.yul\":5049:5054   */\n      dup2\n        /* \"#utility.yul\":5031:5055   */\n      tag_116\n      jump\t// in\n    tag_207:\n        /* \"#utility.yul\":5026:5029   */\n      dup3\n        /* \"#utility.yul\":5019:5056   */\n      mstore\n        /* \"#utility.yul\":4944:5062   */\n      pop\n      pop\n      jump\t// out\n        /* \"#utility.yul\":5068:5290   */\n    tag_43:\n        /* \"#utility.yul\":5161:5165   */\n      0x00\n        /* \"#utility.yul\":5199:5201   */\n      0x20\n        /* \"#utility.yul\":5188:5197   */\n      dup3\n        /* \"#utility.yul\":5184:5202   */\n      add\n        /* \"#utility.yul\":5176:5202   */\n      swap1\n      pop\n        /* \"#utility.yul\":5212:5283   */\n      tag_209\n        /* \"#utility.yul\":5280:5281   */\n      0x00\n        /* \"#utility.yul\":5269:5278   */\n      dup4\n        /* \"#utility.yul\":5265:5282   */\n      add\n        /* \"#utility.yul\":5256:5262   */\n      dup5\n        /* \"#utility.yul\":5212:5283   */\n      tag_130\n      jump\t// in\n    tag_209:\n        /* \"#utility.yul\":5068:5290   */\n      swap3\n      swap2\n      pop\n      pop\n      jump\t// out\n        /* \"#utility.yul\":5296:5436   */\n    tag_131:\n        /* \"#utility.yul\":5360:5369   */\n      0x00\n        /* \"#utility.yul\":5393:5430   */\n      tag_211\n        /* \"#utility.yul\":5424:5429   */\n      dup3\n        /* \"#utility.yul\":5393:5430   */\n      tag_127\n      jump\t// in\n    tag_211:\n        /* \"#utility.yul\":5380:5430   */\n      swap1\n      pop\n        /* \"#utility.yul\":5296:5436   */\n      swap2\n      swap1\n      pop\n      jump\t// out\n        /* \"#utility.yul\":5442:5601   */\n    tag_132:\n        /* \"#utility.yul\":5543:5594   */\n      tag_213\n        /* \"#utility.yul\":5588:5593   */\n      dup2\n        /* \"#utility.yul\":5543:5594   */\n      tag_131\n      jump\t// in\n    tag_213:\n        /* \"#utility.yul\":5538:5541   */\n      dup3\n        /* \"#utility.yul\":5531:5595   */\n      mstore\n        /* \"#utility.yul\":5442:5601   */\n      pop\n      pop\n      jump\t// out\n        /* \"#utility.yul\":5607:5857   */\n    tag_53:\n        /* \"#utility.yul\":5714:5718   */\n      0x00\n        /* \"#utility.yul\":5752:5754   */\n      0x20\n        /* \"#utility.yul\":5741:5750   */\n      dup3\n        /* \"#utility.yul\":5737:5755   */\n      add\n        /* \"#utility.yul\":5729:5755   */\n      swap1\n      pop\n        /* \"#utility.yul\":5765:5850   */\n      tag_215\n        /* \"#utility.yul\":5847:5848   */\n      0x00\n        /* \"#utility.yul\":5836:5845   */\n      dup4\n        /* \"#utility.yul\":5832:5849   */\n      add\n        /* \"#utility.yul\":5823:5829   */\n      dup5\n        /* \"#utility.yul\":5765:5850   */\n      tag_132\n      jump\t// in\n    tag_215:\n        /* \"#utility.yul\":5607:5857   */\n      swap3\n      swap2\n      pop\n      pop\n      jump\t// out\n        /* \"#utility.yul\":5863:6043   */\n    tag_133:\n        /* \"#utility.yul\":5911:5988   */\n      0x4e487b7100000000000000000000000000000000000000000000000000000000\n        /* \"#utility.yul\":5908:5909   */\n      0x00\n        /* \"#utility.yul\":5901:5989   */\n      mstore\n        /* \"#utility.yul\":6008:6012   */\n      0x22\n        /* \"#utility.yul\":6005:6006   */\n      0x04\n        /* \"#utility.yul\":5998:6013   */\n      mstore\n        /* \"#utility.yul\":6032:6036   */\n      0x24\n        /* \"#utility.yul\":6029:6030   */\n      0x00\n        /* \"#utility.yul\":6022:6037   */\n      revert\n        /* \"#utility.yul\":6049:6369   */\n    tag_59:\n        /* \"#utility.yul\":6093:6099   */\n      0x00\n        /* \"#utility.yul\":6130:6131   */\n      0x02\n        /* \"#utility.yul\":6124:6128   */\n      dup3\n        /* \"#utility.yul\":6120:6132   */\n      div\n        /* \"#utility.yul\":6110:6132   */\n      swap1\n      pop\n        /* \"#utility.yul\":6177:6178   */\n      0x01\n        /* \"#utility.yul\":6171:6175   */\n      dup3\n        /* \"#utility.yul\":6167:6179   */\n      and\n        /* \"#utility.yul\":6198:6216   */\n      dup1\n        /* \"#utility.yul\":6188:6269   */\n      tag_218\n      jumpi\n        /* \"#utility.yul\":6254:6258   */\n      0x7f\n        /* \"#utility.yul\":6246:6252   */\n      dup3\n        /* \"#utility.yul\":6242:6259   */\n      and\n        /* \"#utility.yul\":6232:6259   */\n      swap2\n      pop\n        /* \"#utility.yul\":6188:6269   */\n    tag_218:\n        /* \"#utility.yul\":6316:6318   */\n      0x20\n        /* \"#utility.yul\":6308:6314   */\n      dup3\n        /* \"#utility.yul\":6305:6319   */\n      lt\n        /* \"#utility.yul\":6285:6303   */\n      dup2\n        /* \"#utility.yul\":6282:6320   */\n      eq\n        /* \"#utility.yul\":6279:6363   */\n      iszero\n      tag_219\n      jumpi\n        /* \"#utility.yul\":6335:6353   */\n      tag_220\n      tag_133\n      jump\t// in\n    tag_220:\n        /* \"#utility.yul\":6279:6363   */\n    tag_219:\n        /* \"#utility.yul\":6100:6369   */\n      pop\n        /* \"#utility.yul\":6049:6369   */\n      swap2\n      swap1\n      pop\n      jump\t// out\n        /* \"#utility.yul\":6375:6549   */\n    tag_134:\n        /* \"#utility.yul\":6515:6541   */\n      0x63616c6c6572206d75737420626520746865206f776e65720000000000000000\n        /* \"#utility.yul\":6511:6512   */\n      0x00\n        /* \"#utility.yul\":6503:6509   */\n      dup3\n        /* \"#utility.yul\":6499:6513   */\n      add\n        /* \"#utility.yul\":6492:6542   */\n      mstore\n        /* \"#utility.yul\":6375:6549   */\n      pop\n      jump\t// out\n        /* \"#utility.yul\":6555:6921   */\n    tag_135:\n        /* \"#utility.yul\":6697:6700   */\n      0x00\n        /* \"#utility.yul\":6718:6785   */\n      tag_223\n        /* \"#utility.yul\":6782:6784   */\n      0x18\n        /* \"#utility.yul\":6777:6780   */\n      dup4\n        /* \"#utility.yul\":6718:6785   */\n      tag_108\n      jump\t// in\n    tag_223:\n        /* \"#utility.yul\":6711:6785   */\n      swap2\n      pop\n        /* \"#utility.yul\":6794:6887   */\n      tag_224\n        /* \"#utility.yul\":6883:6886   */\n      dup3\n        /* \"#utility.yul\":6794:6887   */\n      tag_134\n      jump\t// in\n    tag_224:\n        /* \"#utility.yul\":6912:6914   */\n      0x20\n        /* \"#utility.yul\":6907:6910   */\n      dup3\n        /* \"#utility.yul\":6903:6915   */\n      add\n        /* \"#utility.yul\":6896:6915   */\n      swap1\n      pop\n        /* \"#utility.yul\":6555:6921   */\n      swap2\n      swap1\n      pop\n      jump\t// out\n        /* \"#utility.yul\":6927:7346   */\n    tag_67:\n        /* \"#utility.yul\":7093:7097   */\n      0x00\n        /* \"#utility.yul\":7131:7133   */\n      0x20\n        /* \"#utility.yul\":7120:7129   */\n      dup3\n        /* \"#utility.yul\":7116:7134   */\n      add\n        /* \"#utility.yul\":7108:7134   */\n      swap1\n      pop\n        /* \"#utility.yul\":7180:7189   */\n      dup2\n        /* \"#utility.yul\":7174:7178   */\n      dup2\n        /* \"#utility.yul\":7170:7190   */\n      sub\n        /* \"#utility.yul\":7166:7167   */\n      0x00\n        /* \"#utility.yul\":7155:7164   */\n      dup4\n        /* \"#utility.yul\":7151:7168   */\n      add\n        /* \"#utility.yul\":7144:7191   */\n      mstore\n        /* \"#utility.yul\":7208:7339   */\n      tag_226\n        /* \"#utility.yul\":7334:7338   */\n      dup2\n        /* \"#utility.yul\":7208:7339   */\n      tag_135\n      jump\t// in\n    tag_226:\n        /* \"#utility.yul\":7200:7339   */\n      swap1\n      pop\n        /* \"#utility.yul\":6927:7346   */\n      swap2\n      swap1\n      pop\n      jump\t// out\n        /* \"#utility.yul\":7352:7532   */\n    tag_73:\n        /* \"#utility.yul\":7400:7477   */\n      0x4e487b7100000000000000000000000000000000000000000000000000000000\n        /* \"#utility.yul\":7397:7398   */\n      0x00\n        /* \"#utility.yul\":7390:7478   */\n      mstore\n        /* \"#utility.yul\":7497:7501   */\n      0x32\n        /* \"#utility.yul\":7494:7495   */\n      0x04\n        /* \"#utility.yul\":7487:7502   */\n      mstore\n        /* \"#utility.yul\":7521:7525   */\n      0x24\n        /* \"#utility.yul\":7518:7519   */\n      0x00\n        /* \"#utility.yul\":7511:7526   */\n      revert\n        /* \"#utility.yul\":7538:7870   */\n    tag_77:\n        /* \"#utility.yul\":7659:7663   */\n      0x00\n        /* \"#utility.yul\":7697:7699   */\n      0x40\n        /* \"#utility.yul\":7686:7695   */\n      dup3\n        /* \"#utility.yul\":7682:7700   */\n      add\n        /* \"#utility.yul\":7674:7700   */\n      swap1\n      pop\n        /* \"#utility.yul\":7710:7781   */\n      tag_229\n        /* \"#utility.yul\":7778:7779   */\n      0x00\n        /* \"#utility.yul\":7767:7776   */\n      dup4\n        /* \"#utility.yul\":7763:7780   */\n      add\n        /* \"#utility.yul\":7754:7760   */\n      dup6\n        /* \"#utility.yul\":7710:7781   */\n      tag_130\n      jump\t// in\n    tag_229:\n        /* \"#utility.yul\":7791:7863   */\n      tag_230\n        /* \"#utility.yul\":7859:7861   */\n      0x20\n        /* \"#utility.yul\":7848:7857   */\n      dup4\n        /* \"#utility.yul\":7844:7862   */\n      add\n        /* \"#utility.yul\":7835:7841   */\n      dup5\n        /* \"#utility.yul\":7791:7863   */\n      tag_120\n      jump\t// in\n    tag_230:\n        /* \"#utility.yul\":7538:7870   */\n      swap4\n      swap3\n      pop\n      pop\n      pop\n      jump\t// out\n        /* \"#utility.yul\":7876:7992   */\n    tag_136:\n        /* \"#utility.yul\":7946:7967   */\n      tag_232\n        /* \"#utility.yul\":7961:7966   */\n      dup2\n        /* \"#utility.yul\":7946:7967   */\n      tag_121\n      jump\t// in\n    tag_232:\n        /* \"#utility.yul\":7939:7944   */\n      dup2\n        /* \"#utility.yul\":7936:7968   */\n      eq\n        /* \"#utility.yul\":7926:7986   */\n      tag_233\n      jumpi\n        /* \"#utility.yul\":7982:7983   */\n      0x00\n        /* \"#utility.yul\":7979:7980   */\n      dup1\n        /* \"#utility.yul\":7972:7984   */\n      revert\n        /* \"#utility.yul\":7926:7986   */\n    tag_233:\n        /* \"#utility.yul\":7876:7992   */\n      pop\n      jump\t// out\n        /* \"#utility.yul\":7998:8135   */\n    tag_137:\n        /* \"#utility.yul\":8052:8057   */\n      0x00\n        /* \"#utility.yul\":8083:8089   */\n      dup2\n        /* \"#utility.yul\":8077:8090   */\n      mload\n        /* \"#utility.yul\":8068:8090   */\n      swap1\n      pop\n        /* \"#utility.yul\":8099:8129   */\n      tag_235\n        /* \"#utility.yul\":8123:8128   */\n      dup2\n        /* \"#utility.yul\":8099:8129   */\n      tag_136\n      jump\t// in\n    tag_235:\n        /* \"#utility.yul\":7998:8135   */\n      swap3\n      swap2\n      pop\n      pop\n      jump\t// out\n        /* \"#utility.yul\":8141:8486   */\n    tag_81:\n        /* \"#utility.yul\":8208:8214   */\n      0x00\n        /* \"#utility.yul\":8257:8259   */\n      0x20\n        /* \"#utility.yul\":8245:8254   */\n      dup3\n        /* \"#utility.yul\":8236:8243   */\n      dup5\n        /* \"#utility.yul\":8232:8255   */\n      sub\n        /* \"#utility.yul\":8228:8260   */\n      slt\n        /* \"#utility.yul\":8225:8344   */\n      iszero\n      tag_237\n      jumpi\n        /* \"#utility.yul\":8263:8342   */\n      tag_238\n      tag_113\n      jump\t// in\n    tag_238:\n        /* \"#utility.yul\":8225:8344   */\n    tag_237:\n        /* \"#utility.yul\":8383:8384   */\n      0x00\n        /* \"#utility.yul\":8408:8469   */\n      tag_239\n        /* \"#utility.yul\":8461:8468   */\n      dup5\n        /* \"#utility.yul\":8452:8458   */\n      dup3\n        /* \"#utility.yul\":8441:8450   */\n      dup6\n        /* \"#utility.yul\":8437:8459   */\n      add\n        /* \"#utility.yul\":8408:8469   */\n      tag_137\n      jump\t// in\n    tag_239:\n        /* \"#utility.yul\":8398:8469   */\n      swap2\n      pop\n        /* \"#utility.yul\":8354:8479   */\n      pop\n        /* \"#utility.yul\":8141:8486   */\n      swap3\n      swap2\n      pop\n      pop\n      jump\t// out\n        /* \"#utility.yul\":8492:8672   */\n    tag_138:\n        /* \"#utility.yul\":8540:8617   */\n      0x4e487b7100000000000000000000000000000000000000000000000000000000\n        /* \"#utility.yul\":8537:8538   */\n      0x00\n        /* \"#utility.yul\":8530:8618   */\n      mstore\n        /* \"#utility.yul\":8637:8641   */\n      0x11\n        /* \"#utility.yul\":8634:8635   */\n      0x04\n        /* \"#utility.yul\":8627:8642   */\n      mstore\n        /* \"#utility.yul\":8661:8665   */\n      0x24\n        /* \"#utility.yul\":8658:8659   */\n      0x00\n        /* \"#utility.yul\":8651:8666   */\n      revert\n        /* \"#utility.yul\":8678:8911   */\n    tag_83:\n        /* \"#utility.yul\":8717:8720   */\n      0x00\n        /* \"#utility.yul\":8740:8764   */\n      tag_242\n        /* \"#utility.yul\":8758:8763   */\n      dup3\n        /* \"#utility.yul\":8740:8764   */\n      tag_119\n      jump\t// in\n    tag_242:\n        /* \"#utility.yul\":8731:8764   */\n      swap2\n      pop\n        /* \"#utility.yul\":8786:8852   */\n      0xffffffffffffffffffffffffffffffffffffffffffffffffffffffffffffffff\n        /* \"#utility.yul\":8779:8784   */\n      dup3\n        /* \"#utility.yul\":8776:8853   */\n      eq\n        /* \"#utility.yul\":8773:8876   */\n      iszero\n      tag_243\n      jumpi\n        /* \"#utility.yul\":8856:8874   */\n      tag_244\n      tag_138\n      jump\t// in\n    tag_244:\n        /* \"#utility.yul\":8773:8876   */\n    tag_243:\n        /* \"#utility.yul\":8903:8904   */\n      0x01\n        /* \"#utility.yul\":8896:8901   */\n      dup3\n        /* \"#utility.yul\":8892:8905   */\n      add\n        /* \"#utility.yul\":8885:8905   */\n      swap1\n      pop\n        /* \"#utility.yul\":8678:8911   */\n      swap2\n      swap1\n      pop\n      jump\t// out\n        /* \"#utility.yul\":8917:9085   */\n    tag_139:\n        /* \"#utility.yul\":9057:9077   */\n      0x616d6f756e742063616e6e6f7420626520300000000000000000000000000000\n        /* \"#utility.yul\":9053:9054   */\n      0x00\n        /* \"#utility.yul\":9045:9051   */\n      dup3\n        /* \"#utility.yul\":9041:9055   */\n      add\n        /* \"#utility.yul\":9034:9078   */\n      mstore\n        /* \"#utility.yul\":8917:9085   */\n      pop\n      jump\t// out\n        /* \"#utility.yul\":9091:9457   */\n    tag_140:\n        /* \"#utility.yul\":9233:9236   */\n      0x00\n        /* \"#utility.yul\":9254:9321   */\n      tag_247\n        /* \"#utility.yul\":9318:9320   */\n      0x12\n        /* \"#utility.yul\":9313:9316   */\n      dup4\n        /* \"#utility.yul\":9254:9321   */\n      tag_108\n      jump\t// in\n    tag_247:\n        /* \"#utility.yul\":9247:9321   */\n      swap2\n      pop\n        /* \"#utility.yul\":9330:9423   */\n      tag_248\n        /* \"#utility.yul\":9419:9422   */\n      dup3\n        /* \"#utility.yul\":9330:9423   */\n      tag_139\n      jump\t// in\n    tag_248:\n        /* \"#utility.yul\":9448:9450   */\n      0x20\n        /* \"#utility.yul\":9443:9446   */\n      dup3\n        /* \"#utility.yul\":9439:9451   */\n      add\n        /* \"#utility.yul\":9432:9451   */\n      swap1\n      pop\n        /* \"#utility.yul\":9091:9457   */\n      swap2\n      swap1\n      pop\n      jump\t// out\n        /* \"#utility.yul\":9463:9882   */\n    tag_87:\n        /* \"#utility.yul\":9629:9633   */\n      0x00\n        /* \"#utility.yul\":9667:9669   */\n      0x20\n        /* \"#utility.yul\":9656:9665   */\n      dup3\n        /* \"#utility.yul\":9652:9670   */\n      add\n        /* \"#utility.yul\":9644:9670   */\n      swap1\n      pop\n        /* \"#utility.yul\":9716:9725   */\n      dup2\n        /* \"#utility.yul\":9710:9714   */\n      dup2\n        /* \"#utility.yul\":9706:9726   */\n      sub\n        /* \"#utility.yul\":9702:9703   */\n      0x00\n        /* \"#utility.yul\":9691:9700   */\n      dup4\n        /* \"#utility.yul\":9687:9704   */\n      add\n        /* \"#utility.yul\":9680:9727   */\n      mstore\n        /* \"#utility.yul\":9744:9875   */\n      tag_250\n        /* \"#utility.yul\":9870:9874   */\n      dup2\n        /* \"#utility.yul\":9744:9875   */\n      tag_140\n      jump\t// in\n    tag_250:\n        /* \"#utility.yul\":9736:9875   */\n      swap1\n      pop\n        /* \"#utility.yul\":9463:9882   */\n      swap2\n      swap1\n      pop\n      jump\t// out\n        /* \"#utility.yul\":9888:10330   */\n    tag_89:\n        /* \"#utility.yul\":10037:10041   */\n      0x00\n        /* \"#utility.yul\":10075:10077   */\n      0x60\n        /* \"#utility.yul\":10064:10073   */\n      dup3\n        /* \"#utility.yul\":10060:10078   */\n      add\n        /* \"#utility.yul\":10052:10078   */\n      swap1\n      pop\n        /* \"#utility.yul\":10088:10159   */\n      tag_252\n        /* \"#utility.yul\":10156:10157   */\n      0x00\n        /* \"#utility.yul\":10145:10154   */\n      dup4\n        /* \"#utility.yul\":10141:10158   */\n      add\n        /* \"#utility.yul\":10132:10138   */\n      dup7\n        /* \"#utility.yul\":10088:10159   */\n      tag_130\n      jump\t// in\n    tag_252:\n        /* \"#utility.yul\":10169:10241   */\n      tag_253\n        /* \"#utility.yul\":10237:10239   */\n      0x20\n        /* \"#utility.yul\":10226:10235   */\n      dup4\n        /* \"#utility.yul\":10222:10240   */\n      add\n        /* \"#utility.yul\":10213:10219   */\n      dup6\n        /* \"#utility.yul\":10169:10241   */\n      tag_130\n      jump\t// in\n    tag_253:\n        /* \"#utility.yul\":10251:10323   */\n      tag_254\n        /* \"#utility.yul\":10319:10321   */\n      0x40\n        /* \"#utility.yul\":10308:10317   */\n      dup4\n        /* \"#utility.yul\":10304:10322   */\n      add\n        /* \"#utility.yul\":10295:10301   */\n      dup5\n        /* \"#utility.yul\":10251:10323   */\n      tag_120\n      jump\t// in\n    tag_254:\n        /* \"#utility.yul\":9888:10330   */\n      swap5\n      swap4\n      pop\n      pop\n      pop\n      pop\n      jump\t// out\n        /* \"#utility.yul\":10336:10641   */\n    tag_94:\n        /* \"#utility.yul\":10376:10379   */\n      0x00\n        /* \"#utility.yul\":10395:10415   */\n      tag_256\n        /* \"#utility.yul\":10413:10414   */\n      dup3\n        /* \"#utility.yul\":10395:10415   */\n      tag_119\n      jump\t// in\n    tag_256:\n        /* \"#utility.yul\":10390:10415   */\n      swap2\n      pop\n        /* \"#utility.yul\":10429:10449   */\n      tag_257\n        /* \"#utility.yul\":10447:10448   */\n      dup4\n        /* \"#utility.yul\":10429:10449   */\n      tag_119\n      jump\t// in\n    tag_257:\n        /* \"#utility.yul\":10424:10449   */\n      swap3\n      pop\n        /* \"#utility.yul\":10583:10584   */\n      dup3\n        /* \"#utility.yul\":10515:10581   */\n      0xffffffffffffffffffffffffffffffffffffffffffffffffffffffffffffffff\n        /* \"#utility.yul\":10511:10585   */\n      sub\n        /* \"#utility.yul\":10508:10509   */\n      dup3\n        /* \"#utility.yul\":10505:10586   */\n      gt\n        /* \"#utility.yul\":10502:10609   */\n      iszero\n      tag_258\n      jumpi\n        /* \"#utility.yul\":10589:10607   */\n      tag_259\n      tag_138\n      jump\t// in\n    tag_259:\n        /* \"#utility.yul\":10502:10609   */\n    tag_258:\n        /* \"#utility.yul\":10633:10634   */\n      dup3\n        /* \"#utility.yul\":10630:10631   */\n      dup3\n        /* \"#utility.yul\":10626:10635   */\n      add\n        /* \"#utility.yul\":10619:10635   */\n      swap1\n      pop\n        /* \"#utility.yul\":10336:10641   */\n      swap3\n      swap2\n      pop\n      pop\n      jump\t// out\n        /* \"#utility.yul\":10647:10824   */\n    tag_141:\n        /* \"#utility.yul\":10787:10816   */\n      0x7374616b696e672062616c616e63652063616e6e6f7420626520300000000000\n        /* \"#utility.yul\":10783:10784   */\n      0x00\n        /* \"#utility.yul\":10775:10781   */\n      dup3\n        /* \"#utility.yul\":10771:10785   */\n      add\n        /* \"#utility.yul\":10764:10817   */\n      mstore\n        /* \"#utility.yul\":10647:10824   */\n      pop\n      jump\t// out\n        /* \"#utility.yul\":10830:11196   */\n    tag_142:\n        /* \"#utility.yul\":10972:10975   */\n      0x00\n        /* \"#utility.yul\":10993:11060   */\n      tag_262\n        /* \"#utility.yul\":11057:11059   */\n      0x1b\n        /* \"#utility.yul\":11052:11055   */\n      dup4\n        /* \"#utility.yul\":10993:11060   */\n      tag_108\n      jump\t// in\n    tag_262:\n        /* \"#utility.yul\":10986:11060   */\n      swap2\n      pop\n        /* \"#utility.yul\":11069:11162   */\n      tag_263\n        /* \"#utility.yul\":11158:11161   */\n      dup3\n        /* \"#utility.yul\":11069:11162   */\n      tag_141\n      jump\t// in\n    tag_263:\n        /* \"#utility.yul\":11187:11189   */\n      0x20\n        /* \"#utility.yul\":11182:11185   */\n      dup3\n        /* \"#utility.yul\":11178:11190   */\n      add\n        /* \"#utility.yul\":11171:11190   */\n      swap1\n      pop\n        /* \"#utility.yul\":10830:11196   */\n      swap2\n      swap1\n      pop\n      jump\t// out\n        /* \"#utility.yul\":11202:11621   */\n    tag_100:\n        /* \"#utility.yul\":11368:11372   */\n      0x00\n        /* \"#utility.yul\":11406:11408   */\n      0x20\n        /* \"#utility.yul\":11395:11404   */\n      dup3\n        /* \"#utility.yul\":11391:11409   */\n      add\n        /* \"#utility.yul\":11383:11409   */\n      swap1\n      pop\n        /* \"#utility.yul\":11455:11464   */\n      dup2\n        /* \"#utility.yul\":11449:11453   */\n      dup2\n        /* \"#utility.yul\":11445:11465   */\n      sub\n        /* \"#utility.yul\":11441:11442   */\n      0x00\n        /* \"#utility.yul\":11430:11439   */\n      dup4\n        /* \"#utility.yul\":11426:11443   */\n      add\n        /* \"#utility.yul\":11419:11466   */\n      mstore\n        /* \"#utility.yul\":11483:11614   */\n      tag_265\n        /* \"#utility.yul\":11609:11613   */\n      dup2\n        /* \"#utility.yul\":11483:11614   */\n      tag_142\n      jump\t// in\n    tag_265:\n        /* \"#utility.yul\":11475:11614   */\n      swap1\n      pop\n        /* \"#utility.yul\":11202:11621   */\n      swap2\n      swap1\n      pop\n      jump\t// out\n\n    auxdata: 0xa2646970667358221220a1681fa88ed46686ebc9d2a70af5d119a89e969b4c0c26e12c027e0eba07d93764736f6c634300080c0033\n}\n",
				"bytecode": {
					"linkReferences": {},
					"object": "60806040526040518060400160405280601081526020017f52616e676520546f6b656e204661726d00000000000000000000000000000000815250600090805190602001906200005192919062000150565b503480156200005f57600080fd5b5060405162001439380380620014398339818101604052810190620000859190620002c3565b81600260006101000a81548173ffffffffffffffffffffffffffffffffffffffff021916908373ffffffffffffffffffffffffffffffffffffffff16021790555080600360006101000a81548173ffffffffffffffffffffffffffffffffffffffff021916908373ffffffffffffffffffffffffffffffffffffffff16021790555033600160006101000a81548173ffffffffffffffffffffffffffffffffffffffff021916908373ffffffffffffffffffffffffffffffffffffffff16021790555050506200036f565b8280546200015e9062000339565b90600052602060002090601f016020900481019282620001825760008555620001ce565b82601f106200019d57805160ff1916838001178555620001ce565b82800160010185558215620001ce579182015b82811115620001cd578251825591602001919060010190620001b0565b5b509050620001dd9190620001e1565b5090565b5b80821115620001fc576000816000905550600101620001e2565b5090565b600080fd5b600073ffffffffffffffffffffffffffffffffffffffff82169050919050565b6000620002328262000205565b9050919050565b6000620002468262000225565b9050919050565b620002588162000239565b81146200026457600080fd5b50565b60008151905062000278816200024d565b92915050565b60006200028b8262000225565b9050919050565b6200029d816200027e565b8114620002a957600080fd5b50565b600081519050620002bd8162000292565b92915050565b60008060408385031215620002dd57620002dc62000200565b5b6000620002ed8582860162000267565b92505060206200030085828601620002ac565b9150509250929050565b7f4e487b7100000000000000000000000000000000000000000000000000000000600052602260045260246000fd5b600060028204905060018216806200035257607f821691505b602082108114156200036957620003686200030a565b5b50919050565b6110ba806200037f6000396000f3fe608060405234801561001057600080fd5b50600436106100a95760003560e01c80637ac3cac8116100715780637ac3cac8146101525780638da5cb5b14610170578063a5ce413b1461018e578063c93c8f3414610198578063ce6e10b3146101c8578063fd5e6dd1146101e6576100a9565b806306fdde03146100ae57806345bc78ab146100cc57806360ab5852146100fc5780636f49712b146101065780637547c7a314610136575b600080fd5b6100b6610216565b6040516100c39190610ad4565b60405180910390f35b6100e660048036038101906100e19190610b59565b6102a4565b6040516100f39190610b9f565b60405180910390f35b6101046102bc565b005b610120600480360381019061011b9190610b59565b6104a6565b60405161012d9190610bd5565b60405180910390f35b610150600480360381019061014b9190610c1c565b6104c6565b005b61015a6107a2565b6040516101679190610ca8565b60405180910390f35b6101786107c8565b6040516101859190610cd2565b60405180910390f35b6101966107ee565b005b6101b260048036038101906101ad9190610b59565b6109b6565b6040516101bf9190610bd5565b60405180910390f35b6101d06109d6565b6040516101dd9190610d0e565b60405180910390f35b61020060048036038101906101fb9190610c1c565b6109fc565b60405161020d9190610cd2565b60405180910390f35b6000805461022390610d58565b80601f016020809104026020016040519081016040528092919081815260200182805461024f90610d58565b801561029c5780601f106102715761010080835404028352916020019161029c565b820191906000526020600020905b81548152906001019060200180831161027f57829003601f168201915b505050505081565b60056020528060005260406000206000915090505481565b600160009054906101000a900473ffffffffffffffffffffffffffffffffffffffff1673ffffffffffffffffffffffffffffffffffffffff163373ffffffffffffffffffffffffffffffffffffffff161461034c576040517f08c379a000000000000000000000000000000000000000000000000000000000815260040161034390610dd6565b60405180910390fd5b60005b6004805490508110156104a35760006004828154811061037257610371610df6565b5b9060005260206000200160009054906101000a900473ffffffffffffffffffffffffffffffffffffffff1690506000600560008373ffffffffffffffffffffffffffffffffffffffff1673ffffffffffffffffffffffffffffffffffffffff168152602001908152602001600020549050600081111561048e57600360009054906101000a900473ffffffffffffffffffffffffffffffffffffffff1673ffffffffffffffffffffffffffffffffffffffff1663a9059cbb83836040518363ffffffff1660e01b8152600401610449929190610e25565b6020604051808303816000875af1158015610468573d6000803e3d6000fd5b505050506040513d601f19601f8201168201806040525081019061048c9190610e7a565b505b5050808061049b90610ed6565b91505061034f565b50565b60076020528060005260406000206000915054906101000a900460ff1681565b60008111610509576040517f08c379a000000000000000000000000000000000000000000000000000000000815260040161050090610f6b565b60405180910390fd5b600260009054906101000a900473ffffffffffffffffffffffffffffffffffffffff1673ffffffffffffffffffffffffffffffffffffffff166323b872dd3330846040518463ffffffff1660e01b815260040161056893929190610f8b565b6020604051808303816000875af1158015610587573d6000803e3d6000fd5b505050506040513d601f19601f820116820180604052508101906105ab9190610e7a565b5080600560003373ffffffffffffffffffffffffffffffffffffffff1673ffffffffffffffffffffffffffffffffffffffff168152602001908152602001600020546105f79190610fc2565b600560003373ffffffffffffffffffffffffffffffffffffffff1673ffffffffffffffffffffffffffffffffffffffff16815260200190815260200160002081905550600660003373ffffffffffffffffffffffffffffffffffffffff1673ffffffffffffffffffffffffffffffffffffffff16815260200190815260200160002060009054906101000a900460ff166106ef576004339080600181540180825580915050600190039060005260206000200160009091909190916101000a81548173ffffffffffffffffffffffffffffffffffffffff021916908373ffffffffffffffffffffffffffffffffffffffff1602179055505b6001600760003373ffffffffffffffffffffffffffffffffffffffff1673ffffffffffffffffffffffffffffffffffffffff16815260200190815260200160002060006101000a81548160ff0219169083151502179055506001600660003373ffffffffffffffffffffffffffffffffffffffff1673ffffffffffffffffffffffffffffffffffffffff16815260200190815260200160002060006101000a81548160ff02191690831515021790555050565b600260009054906101000a900473ffffffffffffffffffffffffffffffffffffffff1681565b600160009054906101000a900473ffffffffffffffffffffffffffffffffffffffff1681565b6000600560003373ffffffffffffffffffffffffffffffffffffffff1673ffffffffffffffffffffffffffffffffffffffff16815260200190815260200160002054905060008111610875576040517f08c379a000000000000000000000000000000000000000000000000000000000815260040161086c90611064565b60405180910390fd5b600260009054906101000a900473ffffffffffffffffffffffffffffffffffffffff1673ffffffffffffffffffffffffffffffffffffffff1663a9059cbb33836040518363ffffffff1660e01b81526004016108d2929190610e25565b6020604051808303816000875af11580156108f1573d6000803e3d6000fd5b505050506040513d601f19601f820116820180604052508101906109159190610e7a565b506000600560003373ffffffffffffffffffffffffffffffffffffffff1673ffffffffffffffffffffffffffffffffffffffff168152602001908152602001600020819055506000600760003373ffffffffffffffffffffffffffffffffffffffff1673ffffffffffffffffffffffffffffffffffffffff16815260200190815260200160002060006101000a81548160ff02191690831515021790555050565b60066020528060005260406000206000915054906101000a900460ff1681565b600360009054906101000a900473ffffffffffffffffffffffffffffffffffffffff1681565b60048181548110610a0c57600080fd5b906000526020600020016000915054906101000a900473ffffffffffffffffffffffffffffffffffffffff1681565b600081519050919050565b600082825260208201905092915050565b60005b83811015610a75578082015181840152602081019050610a5a565b83811115610a84576000848401525b50505050565b6000601f19601f8301169050919050565b6000610aa682610a3b565b610ab08185610a46565b9350610ac0818560208601610a57565b610ac981610a8a565b840191505092915050565b60006020820190508181036000830152610aee8184610a9b565b905092915050565b600080fd5b600073ffffffffffffffffffffffffffffffffffffffff82169050919050565b6000610b2682610afb565b9050919050565b610b3681610b1b565b8114610b4157600080fd5b50565b600081359050610b5381610b2d565b92915050565b600060208284031215610b6f57610b6e610af6565b5b6000610b7d84828501610b44565b91505092915050565b6000819050919050565b610b9981610b86565b82525050565b6000602082019050610bb46000830184610b90565b92915050565b60008115159050919050565b610bcf81610bba565b82525050565b6000602082019050610bea6000830184610bc6565b92915050565b610bf981610b86565b8114610c0457600080fd5b50565b600081359050610c1681610bf0565b92915050565b600060208284031215610c3257610c31610af6565b5b6000610c4084828501610c07565b91505092915050565b6000819050919050565b6000610c6e610c69610c6484610afb565b610c49565b610afb565b9050919050565b6000610c8082610c53565b9050919050565b6000610c9282610c75565b9050919050565b610ca281610c87565b82525050565b6000602082019050610cbd6000830184610c99565b92915050565b610ccc81610b1b565b82525050565b6000602082019050610ce76000830184610cc3565b92915050565b6000610cf882610c75565b9050919050565b610d0881610ced565b82525050565b6000602082019050610d236000830184610cff565b92915050565b7f4e487b7100000000000000000000000000000000000000000000000000000000600052602260045260246000fd5b60006002820490506001821680610d7057607f821691505b60208210811415610d8457610d83610d29565b5b50919050565b7f63616c6c6572206d75737420626520746865206f776e65720000000000000000600082015250565b6000610dc0601883610a46565b9150610dcb82610d8a565b602082019050919050565b60006020820190508181036000830152610def81610db3565b9050919050565b7f4e487b7100000000000000000000000000000000000000000000000000000000600052603260045260246000fd5b6000604082019050610e3a6000830185610cc3565b610e476020830184610b90565b9392505050565b610e5781610bba565b8114610e6257600080fd5b50565b600081519050610e7481610e4e565b92915050565b600060208284031215610e9057610e8f610af6565b5b6000610e9e84828501610e65565b91505092915050565b7f4e487b7100000000000000000000000000000000000000000000000000000000600052601160045260246000fd5b6000610ee182610b86565b91507fffffffffffffffffffffffffffffffffffffffffffffffffffffffffffffffff821415610f1457610f13610ea7565b5b600182019050919050565b7f616d6f756e742063616e6e6f7420626520300000000000000000000000000000600082015250565b6000610f55601283610a46565b9150610f6082610f1f565b602082019050919050565b60006020820190508181036000830152610f8481610f48565b9050919050565b6000606082019050610fa06000830186610cc3565b610fad6020830185610cc3565b610fba6040830184610b90565b949350505050565b6000610fcd82610b86565b9150610fd883610b86565b9250827fffffffffffffffffffffffffffffffffffffffffffffffffffffffffffffffff0382111561100d5761100c610ea7565b5b828201905092915050565b7f7374616b696e672062616c616e63652063616e6e6f7420626520300000000000600082015250565b600061104e601b83610a46565b915061105982611018565b602082019050919050565b6000602082019050818103600083015261107d81611041565b905091905056fea2646970667358221220a1681fa88ed46686ebc9d2a70af5d119a89e969b4c0c26e12c027e0eba07d93764736f6c634300080c0033",
					"opcodes": "PUSH1 0x80 PUSH1 0x40 MSTORE PUSH1 0x40 MLOAD DUP1 PUSH1 0x40 ADD PUSH1 0x40 MSTORE DUP1 PUSH1 0x10 DUP2 MSTORE PUSH1 0x20 ADD PUSH32 0x52616E676520546F6B656E204661726D00000000000000000000000000000000 DUP2 MSTORE POP PUSH1 0x0 SWAP1 DUP1 MLOAD SWAP1 PUSH1 0x20 ADD SWAP1 PUSH3 0x51 SWAP3 SWAP2 SWAP1 PUSH3 0x150 JUMP JUMPDEST POP CALLVALUE DUP1 ISZERO PUSH3 0x5F JUMPI PUSH1 0x0 DUP1 REVERT JUMPDEST POP PUSH1 0x40 MLOAD PUSH3 0x1439 CODESIZE SUB DUP1 PUSH3 0x1439 DUP4 CODECOPY DUP2 DUP2 ADD PUSH1 0x40 MSTORE DUP2 ADD SWAP1 PUSH3 0x85 SWAP2 SWAP1 PUSH3 0x2C3 JUMP JUMPDEST DUP2 PUSH1 0x2 PUSH1 0x0 PUSH2 0x100 EXP DUP2 SLOAD DUP2 PUSH20 0xFFFFFFFFFFFFFFFFFFFFFFFFFFFFFFFFFFFFFFFF MUL NOT AND SWAP1 DUP4 PUSH20 0xFFFFFFFFFFFFFFFFFFFFFFFFFFFFFFFFFFFFFFFF AND MUL OR SWAP1 SSTORE POP DUP1 PUSH1 0x3 PUSH1 0x0 PUSH2 0x100 EXP DUP2 SLOAD DUP2 PUSH20 0xFFFFFFFFFFFFFFFFFFFFFFFFFFFFFFFFFFFFFFFF MUL NOT AND SWAP1 DUP4 PUSH20 0xFFFFFFFFFFFFFFFFFFFFFFFFFFFFFFFFFFFFFFFF AND MUL OR SWAP1 SSTORE POP CALLER PUSH1 0x1 PUSH1 0x0 PUSH2 0x100 EXP DUP2 SLOAD DUP2 PUSH20 0xFFFFFFFFFFFFFFFFFFFFFFFFFFFFFFFFFFFFFFFF MUL NOT AND SWAP1 DUP4 PUSH20 0xFFFFFFFFFFFFFFFFFFFFFFFFFFFFFFFFFFFFFFFF AND MUL OR SWAP1 SSTORE POP POP POP PUSH3 0x36F JUMP JUMPDEST DUP3 DUP1 SLOAD PUSH3 0x15E SWAP1 PUSH3 0x339 JUMP JUMPDEST SWAP1 PUSH1 0x0 MSTORE PUSH1 0x20 PUSH1 0x0 KECCAK256 SWAP1 PUSH1 0x1F ADD PUSH1 0x20 SWAP1 DIV DUP2 ADD SWAP3 DUP3 PUSH3 0x182 JUMPI PUSH1 0x0 DUP6 SSTORE PUSH3 0x1CE JUMP JUMPDEST DUP3 PUSH1 0x1F LT PUSH3 0x19D JUMPI DUP1 MLOAD PUSH1 0xFF NOT AND DUP4 DUP1 ADD OR DUP6 SSTORE PUSH3 0x1CE JUMP JUMPDEST DUP3 DUP1 ADD PUSH1 0x1 ADD DUP6 SSTORE DUP3 ISZERO PUSH3 0x1CE JUMPI SWAP2 DUP3 ADD JUMPDEST DUP3 DUP2 GT ISZERO PUSH3 0x1CD JUMPI DUP3 MLOAD DUP3 SSTORE SWAP2 PUSH1 0x20 ADD SWAP2 SWAP1 PUSH1 0x1 ADD SWAP1 PUSH3 0x1B0 JUMP JUMPDEST JUMPDEST POP SWAP1 POP PUSH3 0x1DD SWAP2 SWAP1 PUSH3 0x1E1 JUMP JUMPDEST POP SWAP1 JUMP JUMPDEST JUMPDEST DUP1 DUP3 GT ISZERO PUSH3 0x1FC JUMPI PUSH1 0x0 DUP2 PUSH1 0x0 SWAP1 SSTORE POP PUSH1 0x1 ADD PUSH3 0x1E2 JUMP JUMPDEST POP SWAP1 JUMP JUMPDEST PUSH1 0x0 DUP1 REVERT JUMPDEST PUSH1 0x0 PUSH20 0xFFFFFFFFFFFFFFFFFFFFFFFFFFFFFFFFFFFFFFFF DUP3 AND SWAP1 POP SWAP2 SWAP1 POP JUMP JUMPDEST PUSH1 0x0 PUSH3 0x232 DUP3 PUSH3 0x205 JUMP JUMPDEST SWAP1 POP SWAP2 SWAP1 POP JUMP JUMPDEST PUSH1 0x0 PUSH3 0x246 DUP3 PUSH3 0x225 JUMP JUMPDEST SWAP1 POP SWAP2 SWAP1 POP JUMP JUMPDEST PUSH3 0x258 DUP2 PUSH3 0x239 JUMP JUMPDEST DUP2 EQ PUSH3 0x264 JUMPI PUSH1 0x0 DUP1 REVERT JUMPDEST POP JUMP JUMPDEST PUSH1 0x0 DUP2 MLOAD SWAP1 POP PUSH3 0x278 DUP2 PUSH3 0x24D JUMP JUMPDEST SWAP3 SWAP2 POP POP JUMP JUMPDEST PUSH1 0x0 PUSH3 0x28B DUP3 PUSH3 0x225 JUMP JUMPDEST SWAP1 POP SWAP2 SWAP1 POP JUMP JUMPDEST PUSH3 0x29D DUP2 PUSH3 0x27E JUMP JUMPDEST DUP2 EQ PUSH3 0x2A9 JUMPI PUSH1 0x0 DUP1 REVERT JUMPDEST POP JUMP JUMPDEST PUSH1 0x0 DUP2 MLOAD SWAP1 POP PUSH3 0x2BD DUP2 PUSH3 0x292 JUMP JUMPDEST SWAP3 SWAP2 POP POP JUMP JUMPDEST PUSH1 0x0 DUP1 PUSH1 0x40 DUP4 DUP6 SUB SLT ISZERO PUSH3 0x2DD JUMPI PUSH3 0x2DC PUSH3 0x200 JUMP JUMPDEST JUMPDEST PUSH1 0x0 PUSH3 0x2ED DUP6 DUP3 DUP7 ADD PUSH3 0x267 JUMP JUMPDEST SWAP3 POP POP PUSH1 0x20 PUSH3 0x300 DUP6 DUP3 DUP7 ADD PUSH3 0x2AC JUMP JUMPDEST SWAP2 POP POP SWAP3 POP SWAP3 SWAP1 POP JUMP JUMPDEST PUSH32 0x4E487B7100000000000000000000000000000000000000000000000000000000 PUSH1 0x0 MSTORE PUSH1 0x22 PUSH1 0x4 MSTORE PUSH1 0x24 PUSH1 0x0 REVERT JUMPDEST PUSH1 0x0 PUSH1 0x2 DUP3 DIV SWAP1 POP PUSH1 0x1 DUP3 AND DUP1 PUSH3 0x352 JUMPI PUSH1 0x7F DUP3 AND SWAP2 POP JUMPDEST PUSH1 0x20 DUP3 LT DUP2 EQ ISZERO PUSH3 0x369 JUMPI PUSH3 0x368 PUSH3 0x30A JUMP JUMPDEST JUMPDEST POP SWAP2 SWAP1 POP JUMP JUMPDEST PUSH2 0x10BA DUP1 PUSH3 0x37F PUSH1 0x0 CODECOPY PUSH1 0x0 RETURN INVALID PUSH1 0x80 PUSH1 0x40 MSTORE CALLVALUE DUP1 ISZERO PUSH2 0x10 JUMPI PUSH1 0x0 DUP1 REVERT JUMPDEST POP PUSH1 0x4 CALLDATASIZE LT PUSH2 0xA9 JUMPI PUSH1 0x0 CALLDATALOAD PUSH1 0xE0 SHR DUP1 PUSH4 0x7AC3CAC8 GT PUSH2 0x71 JUMPI DUP1 PUSH4 0x7AC3CAC8 EQ PUSH2 0x152 JUMPI DUP1 PUSH4 0x8DA5CB5B EQ PUSH2 0x170 JUMPI DUP1 PUSH4 0xA5CE413B EQ PUSH2 0x18E JUMPI DUP1 PUSH4 0xC93C8F34 EQ PUSH2 0x198 JUMPI DUP1 PUSH4 0xCE6E10B3 EQ PUSH2 0x1C8 JUMPI DUP1 PUSH4 0xFD5E6DD1 EQ PUSH2 0x1E6 JUMPI PUSH2 0xA9 JUMP JUMPDEST DUP1 PUSH4 0x6FDDE03 EQ PUSH2 0xAE JUMPI DUP1 PUSH4 0x45BC78AB EQ PUSH2 0xCC JUMPI DUP1 PUSH4 0x60AB5852 EQ PUSH2 0xFC JUMPI DUP1 PUSH4 0x6F49712B EQ PUSH2 0x106 JUMPI DUP1 PUSH4 0x7547C7A3 EQ PUSH2 0x136 JUMPI JUMPDEST PUSH1 0x0 DUP1 REVERT JUMPDEST PUSH2 0xB6 PUSH2 0x216 JUMP JUMPDEST PUSH1 0x40 MLOAD PUSH2 0xC3 SWAP2 SWAP1 PUSH2 0xAD4 JUMP JUMPDEST PUSH1 0x40 MLOAD DUP1 SWAP2 SUB SWAP1 RETURN JUMPDEST PUSH2 0xE6 PUSH1 0x4 DUP1 CALLDATASIZE SUB DUP2 ADD SWAP1 PUSH2 0xE1 SWAP2 SWAP1 PUSH2 0xB59 JUMP JUMPDEST PUSH2 0x2A4 JUMP JUMPDEST PUSH1 0x40 MLOAD PUSH2 0xF3 SWAP2 SWAP1 PUSH2 0xB9F JUMP JUMPDEST PUSH1 0x40 MLOAD DUP1 SWAP2 SUB SWAP1 RETURN JUMPDEST PUSH2 0x104 PUSH2 0x2BC JUMP JUMPDEST STOP JUMPDEST PUSH2 0x120 PUSH1 0x4 DUP1 CALLDATASIZE SUB DUP2 ADD SWAP1 PUSH2 0x11B SWAP2 SWAP1 PUSH2 0xB59 JUMP JUMPDEST PUSH2 0x4A6 JUMP JUMPDEST PUSH1 0x40 MLOAD PUSH2 0x12D SWAP2 SWAP1 PUSH2 0xBD5 JUMP JUMPDEST PUSH1 0x40 MLOAD DUP1 SWAP2 SUB SWAP1 RETURN JUMPDEST PUSH2 0x150 PUSH1 0x4 DUP1 CALLDATASIZE SUB DUP2 ADD SWAP1 PUSH2 0x14B SWAP2 SWAP1 PUSH2 0xC1C JUMP JUMPDEST PUSH2 0x4C6 JUMP JUMPDEST STOP JUMPDEST PUSH2 0x15A PUSH2 0x7A2 JUMP JUMPDEST PUSH1 0x40 MLOAD PUSH2 0x167 SWAP2 SWAP1 PUSH2 0xCA8 JUMP JUMPDEST PUSH1 0x40 MLOAD DUP1 SWAP2 SUB SWAP1 RETURN JUMPDEST PUSH2 0x178 PUSH2 0x7C8 JUMP JUMPDEST PUSH1 0x40 MLOAD PUSH2 0x185 SWAP2 SWAP1 PUSH2 0xCD2 JUMP JUMPDEST PUSH1 0x40 MLOAD DUP1 SWAP2 SUB SWAP1 RETURN JUMPDEST PUSH2 0x196 PUSH2 0x7EE JUMP JUMPDEST STOP JUMPDEST PUSH2 0x1B2 PUSH1 0x4 DUP1 CALLDATASIZE SUB DUP2 ADD SWAP1 PUSH2 0x1AD SWAP2 SWAP1 PUSH2 0xB59 JUMP JUMPDEST PUSH2 0x9B6 JUMP JUMPDEST PUSH1 0x40 MLOAD PUSH2 0x1BF SWAP2 SWAP1 PUSH2 0xBD5 JUMP JUMPDEST PUSH1 0x40 MLOAD DUP1 SWAP2 SUB SWAP1 RETURN JUMPDEST PUSH2 0x1D0 PUSH2 0x9D6 JUMP JUMPDEST PUSH1 0x40 MLOAD PUSH2 0x1DD SWAP2 SWAP1 PUSH2 0xD0E JUMP JUMPDEST PUSH1 0x40 MLOAD DUP1 SWAP2 SUB SWAP1 RETURN JUMPDEST PUSH2 0x200 PUSH1 0x4 DUP1 CALLDATASIZE SUB DUP2 ADD SWAP1 PUSH2 0x1FB SWAP2 SWAP1 PUSH2 0xC1C JUMP JUMPDEST PUSH2 0x9FC JUMP JUMPDEST PUSH1 0x40 MLOAD PUSH2 0x20D SWAP2 SWAP1 PUSH2 0xCD2 JUMP JUMPDEST PUSH1 0x40 MLOAD DUP1 SWAP2 SUB SWAP1 RETURN JUMPDEST PUSH1 0x0 DUP1 SLOAD PUSH2 0x223 SWAP1 PUSH2 0xD58 JUMP JUMPDEST DUP1 PUSH1 0x1F ADD PUSH1 0x20 DUP1 SWAP2 DIV MUL PUSH1 0x20 ADD PUSH1 0x40 MLOAD SWAP1 DUP2 ADD PUSH1 0x40 MSTORE DUP1 SWAP3 SWAP2 SWAP1 DUP2 DUP2 MSTORE PUSH1 0x20 ADD DUP3 DUP1 SLOAD PUSH2 0x24F SWAP1 PUSH2 0xD58 JUMP JUMPDEST DUP1 ISZERO PUSH2 0x29C JUMPI DUP1 PUSH1 0x1F LT PUSH2 0x271 JUMPI PUSH2 0x100 DUP1 DUP4 SLOAD DIV MUL DUP4 MSTORE SWAP2 PUSH1 0x20 ADD SWAP2 PUSH2 0x29C JUMP JUMPDEST DUP3 ADD SWAP2 SWAP1 PUSH1 0x0 MSTORE PUSH1 0x20 PUSH1 0x0 KECCAK256 SWAP1 JUMPDEST DUP2 SLOAD DUP2 MSTORE SWAP1 PUSH1 0x1 ADD SWAP1 PUSH1 0x20 ADD DUP1 DUP4 GT PUSH2 0x27F JUMPI DUP3 SWAP1 SUB PUSH1 0x1F AND DUP3 ADD SWAP2 JUMPDEST POP POP POP POP POP DUP2 JUMP JUMPDEST PUSH1 0x5 PUSH1 0x20 MSTORE DUP1 PUSH1 0x0 MSTORE PUSH1 0x40 PUSH1 0x0 KECCAK256 PUSH1 0x0 SWAP2 POP SWAP1 POP SLOAD DUP2 JUMP JUMPDEST PUSH1 0x1 PUSH1 0x0 SWAP1 SLOAD SWAP1 PUSH2 0x100 EXP SWAP1 DIV PUSH20 0xFFFFFFFFFFFFFFFFFFFFFFFFFFFFFFFFFFFFFFFF AND PUSH20 0xFFFFFFFFFFFFFFFFFFFFFFFFFFFFFFFFFFFFFFFF AND CALLER PUSH20 0xFFFFFFFFFFFFFFFFFFFFFFFFFFFFFFFFFFFFFFFF AND EQ PUSH2 0x34C JUMPI PUSH1 0x40 MLOAD PUSH32 0x8C379A000000000000000000000000000000000000000000000000000000000 DUP2 MSTORE PUSH1 0x4 ADD PUSH2 0x343 SWAP1 PUSH2 0xDD6 JUMP JUMPDEST PUSH1 0x40 MLOAD DUP1 SWAP2 SUB SWAP1 REVERT JUMPDEST PUSH1 0x0 JUMPDEST PUSH1 0x4 DUP1 SLOAD SWAP1 POP DUP2 LT ISZERO PUSH2 0x4A3 JUMPI PUSH1 0x0 PUSH1 0x4 DUP3 DUP2 SLOAD DUP2 LT PUSH2 0x372 JUMPI PUSH2 0x371 PUSH2 0xDF6 JUMP JUMPDEST JUMPDEST SWAP1 PUSH1 0x0 MSTORE PUSH1 0x20 PUSH1 0x0 KECCAK256 ADD PUSH1 0x0 SWAP1 SLOAD SWAP1 PUSH2 0x100 EXP SWAP1 DIV PUSH20 0xFFFFFFFFFFFFFFFFFFFFFFFFFFFFFFFFFFFFFFFF AND SWAP1 POP PUSH1 0x0 PUSH1 0x5 PUSH1 0x0 DUP4 PUSH20 0xFFFFFFFFFFFFFFFFFFFFFFFFFFFFFFFFFFFFFFFF AND PUSH20 0xFFFFFFFFFFFFFFFFFFFFFFFFFFFFFFFFFFFFFFFF AND DUP2 MSTORE PUSH1 0x20 ADD SWAP1 DUP2 MSTORE PUSH1 0x20 ADD PUSH1 0x0 KECCAK256 SLOAD SWAP1 POP PUSH1 0x0 DUP2 GT ISZERO PUSH2 0x48E JUMPI PUSH1 0x3 PUSH1 0x0 SWAP1 SLOAD SWAP1 PUSH2 0x100 EXP SWAP1 DIV PUSH20 0xFFFFFFFFFFFFFFFFFFFFFFFFFFFFFFFFFFFFFFFF AND PUSH20 0xFFFFFFFFFFFFFFFFFFFFFFFFFFFFFFFFFFFFFFFF AND PUSH4 0xA9059CBB DUP4 DUP4 PUSH1 0x40 MLOAD DUP4 PUSH4 0xFFFFFFFF AND PUSH1 0xE0 SHL DUP2 MSTORE PUSH1 0x4 ADD PUSH2 0x449 SWAP3 SWAP2 SWAP1 PUSH2 0xE25 JUMP JUMPDEST PUSH1 0x20 PUSH1 0x40 MLOAD DUP1 DUP4 SUB DUP2 PUSH1 0x0 DUP8 GAS CALL ISZERO DUP1 ISZERO PUSH2 0x468 JUMPI RETURNDATASIZE PUSH1 0x0 DUP1 RETURNDATACOPY RETURNDATASIZE PUSH1 0x0 REVERT JUMPDEST POP POP POP POP PUSH1 0x40 MLOAD RETURNDATASIZE PUSH1 0x1F NOT PUSH1 0x1F DUP3 ADD AND DUP3 ADD DUP1 PUSH1 0x40 MSTORE POP DUP2 ADD SWAP1 PUSH2 0x48C SWAP2 SWAP1 PUSH2 0xE7A JUMP JUMPDEST POP JUMPDEST POP POP DUP1 DUP1 PUSH2 0x49B SWAP1 PUSH2 0xED6 JUMP JUMPDEST SWAP2 POP POP PUSH2 0x34F JUMP JUMPDEST POP JUMP JUMPDEST PUSH1 0x7 PUSH1 0x20 MSTORE DUP1 PUSH1 0x0 MSTORE PUSH1 0x40 PUSH1 0x0 KECCAK256 PUSH1 0x0 SWAP2 POP SLOAD SWAP1 PUSH2 0x100 EXP SWAP1 DIV PUSH1 0xFF AND DUP2 JUMP JUMPDEST PUSH1 0x0 DUP2 GT PUSH2 0x509 JUMPI PUSH1 0x40 MLOAD PUSH32 0x8C379A000000000000000000000000000000000000000000000000000000000 DUP2 MSTORE PUSH1 0x4 ADD PUSH2 0x500 SWAP1 PUSH2 0xF6B JUMP JUMPDEST PUSH1 0x40 MLOAD DUP1 SWAP2 SUB SWAP1 REVERT JUMPDEST PUSH1 0x2 PUSH1 0x0 SWAP1 SLOAD SWAP1 PUSH2 0x100 EXP SWAP1 DIV PUSH20 0xFFFFFFFFFFFFFFFFFFFFFFFFFFFFFFFFFFFFFFFF AND PUSH20 0xFFFFFFFFFFFFFFFFFFFFFFFFFFFFFFFFFFFFFFFF AND PUSH4 0x23B872DD CALLER ADDRESS DUP5 PUSH1 0x40 MLOAD DUP5 PUSH4 0xFFFFFFFF AND PUSH1 0xE0 SHL DUP2 MSTORE PUSH1 0x4 ADD PUSH2 0x568 SWAP4 SWAP3 SWAP2 SWAP1 PUSH2 0xF8B JUMP JUMPDEST PUSH1 0x20 PUSH1 0x40 MLOAD DUP1 DUP4 SUB DUP2 PUSH1 0x0 DUP8 GAS CALL ISZERO DUP1 ISZERO PUSH2 0x587 JUMPI RETURNDATASIZE PUSH1 0x0 DUP1 RETURNDATACOPY RETURNDATASIZE PUSH1 0x0 REVERT JUMPDEST POP POP POP POP PUSH1 0x40 MLOAD RETURNDATASIZE PUSH1 0x1F NOT PUSH1 0x1F DUP3 ADD AND DUP3 ADD DUP1 PUSH1 0x40 MSTORE POP DUP2 ADD SWAP1 PUSH2 0x5AB SWAP2 SWAP1 PUSH2 0xE7A JUMP JUMPDEST POP DUP1 PUSH1 0x5 PUSH1 0x0 CALLER PUSH20 0xFFFFFFFFFFFFFFFFFFFFFFFFFFFFFFFFFFFFFFFF AND PUSH20 0xFFFFFFFFFFFFFFFFFFFFFFFFFFFFFFFFFFFFFFFF AND DUP2 MSTORE PUSH1 0x20 ADD SWAP1 DUP2 MSTORE PUSH1 0x20 ADD PUSH1 0x0 KECCAK256 SLOAD PUSH2 0x5F7 SWAP2 SWAP1 PUSH2 0xFC2 JUMP JUMPDEST PUSH1 0x5 PUSH1 0x0 CALLER PUSH20 0xFFFFFFFFFFFFFFFFFFFFFFFFFFFFFFFFFFFFFFFF AND PUSH20 0xFFFFFFFFFFFFFFFFFFFFFFFFFFFFFFFFFFFFFFFF AND DUP2 MSTORE PUSH1 0x20 ADD SWAP1 DUP2 MSTORE PUSH1 0x20 ADD PUSH1 0x0 KECCAK256 DUP2 SWAP1 SSTORE POP PUSH1 0x6 PUSH1 0x0 CALLER PUSH20 0xFFFFFFFFFFFFFFFFFFFFFFFFFFFFFFFFFFFFFFFF AND PUSH20 0xFFFFFFFFFFFFFFFFFFFFFFFFFFFFFFFFFFFFFFFF AND DUP2 MSTORE PUSH1 0x20 ADD SWAP1 DUP2 MSTORE PUSH1 0x20 ADD PUSH1 0x0 KECCAK256 PUSH1 0x0 SWAP1 SLOAD SWAP1 PUSH2 0x100 EXP SWAP1 DIV PUSH1 0xFF AND PUSH2 0x6EF JUMPI PUSH1 0x4 CALLER SWAP1 DUP1 PUSH1 0x1 DUP2 SLOAD ADD DUP1 DUP3 SSTORE DUP1 SWAP2 POP POP PUSH1 0x1 SWAP1 SUB SWAP1 PUSH1 0x0 MSTORE PUSH1 0x20 PUSH1 0x0 KECCAK256 ADD PUSH1 0x0 SWAP1 SWAP2 SWAP1 SWAP2 SWAP1 SWAP2 PUSH2 0x100 EXP DUP2 SLOAD DUP2 PUSH20 0xFFFFFFFFFFFFFFFFFFFFFFFFFFFFFFFFFFFFFFFF MUL NOT AND SWAP1 DUP4 PUSH20 0xFFFFFFFFFFFFFFFFFFFFFFFFFFFFFFFFFFFFFFFF AND MUL OR SWAP1 SSTORE POP JUMPDEST PUSH1 0x1 PUSH1 0x7 PUSH1 0x0 CALLER PUSH20 0xFFFFFFFFFFFFFFFFFFFFFFFFFFFFFFFFFFFFFFFF AND PUSH20 0xFFFFFFFFFFFFFFFFFFFFFFFFFFFFFFFFFFFFFFFF AND DUP2 MSTORE PUSH1 0x20 ADD SWAP1 DUP2 MSTORE PUSH1 0x20 ADD PUSH1 0x0 KECCAK256 PUSH1 0x0 PUSH2 0x100 EXP DUP2 SLOAD DUP2 PUSH1 0xFF MUL NOT AND SWAP1 DUP4 ISZERO ISZERO MUL OR SWAP1 SSTORE POP PUSH1 0x1 PUSH1 0x6 PUSH1 0x0 CALLER PUSH20 0xFFFFFFFFFFFFFFFFFFFFFFFFFFFFFFFFFFFFFFFF AND PUSH20 0xFFFFFFFFFFFFFFFFFFFFFFFFFFFFFFFFFFFFFFFF AND DUP2 MSTORE PUSH1 0x20 ADD SWAP1 DUP2 MSTORE PUSH1 0x20 ADD PUSH1 0x0 KECCAK256 PUSH1 0x0 PUSH2 0x100 EXP DUP2 SLOAD DUP2 PUSH1 0xFF MUL NOT AND SWAP1 DUP4 ISZERO ISZERO MUL OR SWAP1 SSTORE POP POP JUMP JUMPDEST PUSH1 0x2 PUSH1 0x0 SWAP1 SLOAD SWAP1 PUSH2 0x100 EXP SWAP1 DIV PUSH20 0xFFFFFFFFFFFFFFFFFFFFFFFFFFFFFFFFFFFFFFFF AND DUP2 JUMP JUMPDEST PUSH1 0x1 PUSH1 0x0 SWAP1 SLOAD SWAP1 PUSH2 0x100 EXP SWAP1 DIV PUSH20 0xFFFFFFFFFFFFFFFFFFFFFFFFFFFFFFFFFFFFFFFF AND DUP2 JUMP JUMPDEST PUSH1 0x0 PUSH1 0x5 PUSH1 0x0 CALLER PUSH20 0xFFFFFFFFFFFFFFFFFFFFFFFFFFFFFFFFFFFFFFFF AND PUSH20 0xFFFFFFFFFFFFFFFFFFFFFFFFFFFFFFFFFFFFFFFF AND DUP2 MSTORE PUSH1 0x20 ADD SWAP1 DUP2 MSTORE PUSH1 0x20 ADD PUSH1 0x0 KECCAK256 SLOAD SWAP1 POP PUSH1 0x0 DUP2 GT PUSH2 0x875 JUMPI PUSH1 0x40 MLOAD PUSH32 0x8C379A000000000000000000000000000000000000000000000000000000000 DUP2 MSTORE PUSH1 0x4 ADD PUSH2 0x86C SWAP1 PUSH2 0x1064 JUMP JUMPDEST PUSH1 0x40 MLOAD DUP1 SWAP2 SUB SWAP1 REVERT JUMPDEST PUSH1 0x2 PUSH1 0x0 SWAP1 SLOAD SWAP1 PUSH2 0x100 EXP SWAP1 DIV PUSH20 0xFFFFFFFFFFFFFFFFFFFFFFFFFFFFFFFFFFFFFFFF AND PUSH20 0xFFFFFFFFFFFFFFFFFFFFFFFFFFFFFFFFFFFFFFFF AND PUSH4 0xA9059CBB CALLER DUP4 PUSH1 0x40 MLOAD DUP4 PUSH4 0xFFFFFFFF AND PUSH1 0xE0 SHL DUP2 MSTORE PUSH1 0x4 ADD PUSH2 0x8D2 SWAP3 SWAP2 SWAP1 PUSH2 0xE25 JUMP JUMPDEST PUSH1 0x20 PUSH1 0x40 MLOAD DUP1 DUP4 SUB DUP2 PUSH1 0x0 DUP8 GAS CALL ISZERO DUP1 ISZERO PUSH2 0x8F1 JUMPI RETURNDATASIZE PUSH1 0x0 DUP1 RETURNDATACOPY RETURNDATASIZE PUSH1 0x0 REVERT JUMPDEST POP POP POP POP PUSH1 0x40 MLOAD RETURNDATASIZE PUSH1 0x1F NOT PUSH1 0x1F DUP3 ADD AND DUP3 ADD DUP1 PUSH1 0x40 MSTORE POP DUP2 ADD SWAP1 PUSH2 0x915 SWAP2 SWAP1 PUSH2 0xE7A JUMP JUMPDEST POP PUSH1 0x0 PUSH1 0x5 PUSH1 0x0 CALLER PUSH20 0xFFFFFFFFFFFFFFFFFFFFFFFFFFFFFFFFFFFFFFFF AND PUSH20 0xFFFFFFFFFFFFFFFFFFFFFFFFFFFFFFFFFFFFFFFF AND DUP2 MSTORE PUSH1 0x20 ADD SWAP1 DUP2 MSTORE PUSH1 0x20 ADD PUSH1 0x0 KECCAK256 DUP2 SWAP1 SSTORE POP PUSH1 0x0 PUSH1 0x7 PUSH1 0x0 CALLER PUSH20 0xFFFFFFFFFFFFFFFFFFFFFFFFFFFFFFFFFFFFFFFF AND PUSH20 0xFFFFFFFFFFFFFFFFFFFFFFFFFFFFFFFFFFFFFFFF AND DUP2 MSTORE PUSH1 0x20 ADD SWAP1 DUP2 MSTORE PUSH1 0x20 ADD PUSH1 0x0 KECCAK256 PUSH1 0x0 PUSH2 0x100 EXP DUP2 SLOAD DUP2 PUSH1 0xFF MUL NOT AND SWAP1 DUP4 ISZERO ISZERO MUL OR SWAP1 SSTORE POP POP JUMP JUMPDEST PUSH1 0x6 PUSH1 0x20 MSTORE DUP1 PUSH1 0x0 MSTORE PUSH1 0x40 PUSH1 0x0 KECCAK256 PUSH1 0x0 SWAP2 POP SLOAD SWAP1 PUSH2 0x100 EXP SWAP1 DIV PUSH1 0xFF AND DUP2 JUMP JUMPDEST PUSH1 0x3 PUSH1 0x0 SWAP1 SLOAD SWAP1 PUSH2 0x100 EXP SWAP1 DIV PUSH20 0xFFFFFFFFFFFFFFFFFFFFFFFFFFFFFFFFFFFFFFFF AND DUP2 JUMP JUMPDEST PUSH1 0x4 DUP2 DUP2 SLOAD DUP2 LT PUSH2 0xA0C JUMPI PUSH1 0x0 DUP1 REVERT JUMPDEST SWAP1 PUSH1 0x0 MSTORE PUSH1 0x20 PUSH1 0x0 KECCAK256 ADD PUSH1 0x0 SWAP2 POP SLOAD SWAP1 PUSH2 0x100 EXP SWAP1 DIV PUSH20 0xFFFFFFFFFFFFFFFFFFFFFFFFFFFFFFFFFFFFFFFF AND DUP2 JUMP JUMPDEST PUSH1 0x0 DUP2 MLOAD SWAP1 POP SWAP2 SWAP1 POP JUMP JUMPDEST PUSH1 0x0 DUP3 DUP3 MSTORE PUSH1 0x20 DUP3 ADD SWAP1 POP SWAP3 SWAP2 POP POP JUMP JUMPDEST PUSH1 0x0 JUMPDEST DUP4 DUP2 LT ISZERO PUSH2 0xA75 JUMPI DUP1 DUP3 ADD MLOAD DUP2 DUP5 ADD MSTORE PUSH1 0x20 DUP2 ADD SWAP1 POP PUSH2 0xA5A JUMP JUMPDEST DUP4 DUP2 GT ISZERO PUSH2 0xA84 JUMPI PUSH1 0x0 DUP5 DUP5 ADD MSTORE JUMPDEST POP POP POP POP JUMP JUMPDEST PUSH1 0x0 PUSH1 0x1F NOT PUSH1 0x1F DUP4 ADD AND SWAP1 POP SWAP2 SWAP1 POP JUMP JUMPDEST PUSH1 0x0 PUSH2 0xAA6 DUP3 PUSH2 0xA3B JUMP JUMPDEST PUSH2 0xAB0 DUP2 DUP6 PUSH2 0xA46 JUMP JUMPDEST SWAP4 POP PUSH2 0xAC0 DUP2 DUP6 PUSH1 0x20 DUP7 ADD PUSH2 0xA57 JUMP JUMPDEST PUSH2 0xAC9 DUP2 PUSH2 0xA8A JUMP JUMPDEST DUP5 ADD SWAP2 POP POP SWAP3 SWAP2 POP POP JUMP JUMPDEST PUSH1 0x0 PUSH1 0x20 DUP3 ADD SWAP1 POP DUP2 DUP2 SUB PUSH1 0x0 DUP4 ADD MSTORE PUSH2 0xAEE DUP2 DUP5 PUSH2 0xA9B JUMP JUMPDEST SWAP1 POP SWAP3 SWAP2 POP POP JUMP JUMPDEST PUSH1 0x0 DUP1 REVERT JUMPDEST PUSH1 0x0 PUSH20 0xFFFFFFFFFFFFFFFFFFFFFFFFFFFFFFFFFFFFFFFF DUP3 AND SWAP1 POP SWAP2 SWAP1 POP JUMP JUMPDEST PUSH1 0x0 PUSH2 0xB26 DUP3 PUSH2 0xAFB JUMP JUMPDEST SWAP1 POP SWAP2 SWAP1 POP JUMP JUMPDEST PUSH2 0xB36 DUP2 PUSH2 0xB1B JUMP JUMPDEST DUP2 EQ PUSH2 0xB41 JUMPI PUSH1 0x0 DUP1 REVERT JUMPDEST POP JUMP JUMPDEST PUSH1 0x0 DUP2 CALLDATALOAD SWAP1 POP PUSH2 0xB53 DUP2 PUSH2 0xB2D JUMP JUMPDEST SWAP3 SWAP2 POP POP JUMP JUMPDEST PUSH1 0x0 PUSH1 0x20 DUP3 DUP5 SUB SLT ISZERO PUSH2 0xB6F JUMPI PUSH2 0xB6E PUSH2 0xAF6 JUMP JUMPDEST JUMPDEST PUSH1 0x0 PUSH2 0xB7D DUP5 DUP3 DUP6 ADD PUSH2 0xB44 JUMP JUMPDEST SWAP2 POP POP SWAP3 SWAP2 POP POP JUMP JUMPDEST PUSH1 0x0 DUP2 SWAP1 POP SWAP2 SWAP1 POP JUMP JUMPDEST PUSH2 0xB99 DUP2 PUSH2 0xB86 JUMP JUMPDEST DUP3 MSTORE POP POP JUMP JUMPDEST PUSH1 0x0 PUSH1 0x20 DUP3 ADD SWAP1 POP PUSH2 0xBB4 PUSH1 0x0 DUP4 ADD DUP5 PUSH2 0xB90 JUMP JUMPDEST SWAP3 SWAP2 POP POP JUMP JUMPDEST PUSH1 0x0 DUP2 ISZERO ISZERO SWAP1 POP SWAP2 SWAP1 POP JUMP JUMPDEST PUSH2 0xBCF DUP2 PUSH2 0xBBA JUMP JUMPDEST DUP3 MSTORE POP POP JUMP JUMPDEST PUSH1 0x0 PUSH1 0x20 DUP3 ADD SWAP1 POP PUSH2 0xBEA PUSH1 0x0 DUP4 ADD DUP5 PUSH2 0xBC6 JUMP JUMPDEST SWAP3 SWAP2 POP POP JUMP JUMPDEST PUSH2 0xBF9 DUP2 PUSH2 0xB86 JUMP JUMPDEST DUP2 EQ PUSH2 0xC04 JUMPI PUSH1 0x0 DUP1 REVERT JUMPDEST POP JUMP JUMPDEST PUSH1 0x0 DUP2 CALLDATALOAD SWAP1 POP PUSH2 0xC16 DUP2 PUSH2 0xBF0 JUMP JUMPDEST SWAP3 SWAP2 POP POP JUMP JUMPDEST PUSH1 0x0 PUSH1 0x20 DUP3 DUP5 SUB SLT ISZERO PUSH2 0xC32 JUMPI PUSH2 0xC31 PUSH2 0xAF6 JUMP JUMPDEST JUMPDEST PUSH1 0x0 PUSH2 0xC40 DUP5 DUP3 DUP6 ADD PUSH2 0xC07 JUMP JUMPDEST SWAP2 POP POP SWAP3 SWAP2 POP POP JUMP JUMPDEST PUSH1 0x0 DUP2 SWAP1 POP SWAP2 SWAP1 POP JUMP JUMPDEST PUSH1 0x0 PUSH2 0xC6E PUSH2 0xC69 PUSH2 0xC64 DUP5 PUSH2 0xAFB JUMP JUMPDEST PUSH2 0xC49 JUMP JUMPDEST PUSH2 0xAFB JUMP JUMPDEST SWAP1 POP SWAP2 SWAP1 POP JUMP JUMPDEST PUSH1 0x0 PUSH2 0xC80 DUP3 PUSH2 0xC53 JUMP JUMPDEST SWAP1 POP SWAP2 SWAP1 POP JUMP JUMPDEST PUSH1 0x0 PUSH2 0xC92 DUP3 PUSH2 0xC75 JUMP JUMPDEST SWAP1 POP SWAP2 SWAP1 POP JUMP JUMPDEST PUSH2 0xCA2 DUP2 PUSH2 0xC87 JUMP JUMPDEST DUP3 MSTORE POP POP JUMP JUMPDEST PUSH1 0x0 PUSH1 0x20 DUP3 ADD SWAP1 POP PUSH2 0xCBD PUSH1 0x0 DUP4 ADD DUP5 PUSH2 0xC99 JUMP JUMPDEST SWAP3 SWAP2 POP POP JUMP JUMPDEST PUSH2 0xCCC DUP2 PUSH2 0xB1B JUMP JUMPDEST DUP3 MSTORE POP POP JUMP JUMPDEST PUSH1 0x0 PUSH1 0x20 DUP3 ADD SWAP1 POP PUSH2 0xCE7 PUSH1 0x0 DUP4 ADD DUP5 PUSH2 0xCC3 JUMP JUMPDEST SWAP3 SWAP2 POP POP JUMP JUMPDEST PUSH1 0x0 PUSH2 0xCF8 DUP3 PUSH2 0xC75 JUMP JUMPDEST SWAP1 POP SWAP2 SWAP1 POP JUMP JUMPDEST PUSH2 0xD08 DUP2 PUSH2 0xCED JUMP JUMPDEST DUP3 MSTORE POP POP JUMP JUMPDEST PUSH1 0x0 PUSH1 0x20 DUP3 ADD SWAP1 POP PUSH2 0xD23 PUSH1 0x0 DUP4 ADD DUP5 PUSH2 0xCFF JUMP JUMPDEST SWAP3 SWAP2 POP POP JUMP JUMPDEST PUSH32 0x4E487B7100000000000000000000000000000000000000000000000000000000 PUSH1 0x0 MSTORE PUSH1 0x22 PUSH1 0x4 MSTORE PUSH1 0x24 PUSH1 0x0 REVERT JUMPDEST PUSH1 0x0 PUSH1 0x2 DUP3 DIV SWAP1 POP PUSH1 0x1 DUP3 AND DUP1 PUSH2 0xD70 JUMPI PUSH1 0x7F DUP3 AND SWAP2 POP JUMPDEST PUSH1 0x20 DUP3 LT DUP2 EQ ISZERO PUSH2 0xD84 JUMPI PUSH2 0xD83 PUSH2 0xD29 JUMP JUMPDEST JUMPDEST POP SWAP2 SWAP1 POP JUMP JUMPDEST PUSH32 0x63616C6C6572206D75737420626520746865206F776E65720000000000000000 PUSH1 0x0 DUP3 ADD MSTORE POP JUMP JUMPDEST PUSH1 0x0 PUSH2 0xDC0 PUSH1 0x18 DUP4 PUSH2 0xA46 JUMP JUMPDEST SWAP2 POP PUSH2 0xDCB DUP3 PUSH2 0xD8A JUMP JUMPDEST PUSH1 0x20 DUP3 ADD SWAP1 POP SWAP2 SWAP1 POP JUMP JUMPDEST PUSH1 0x0 PUSH1 0x20 DUP3 ADD SWAP1 POP DUP2 DUP2 SUB PUSH1 0x0 DUP4 ADD MSTORE PUSH2 0xDEF DUP2 PUSH2 0xDB3 JUMP JUMPDEST SWAP1 POP SWAP2 SWAP1 POP JUMP JUMPDEST PUSH32 0x4E487B7100000000000000000000000000000000000000000000000000000000 PUSH1 0x0 MSTORE PUSH1 0x32 PUSH1 0x4 MSTORE PUSH1 0x24 PUSH1 0x0 REVERT JUMPDEST PUSH1 0x0 PUSH1 0x40 DUP3 ADD SWAP1 POP PUSH2 0xE3A PUSH1 0x0 DUP4 ADD DUP6 PUSH2 0xCC3 JUMP JUMPDEST PUSH2 0xE47 PUSH1 0x20 DUP4 ADD DUP5 PUSH2 0xB90 JUMP JUMPDEST SWAP4 SWAP3 POP POP POP JUMP JUMPDEST PUSH2 0xE57 DUP2 PUSH2 0xBBA JUMP JUMPDEST DUP2 EQ PUSH2 0xE62 JUMPI PUSH1 0x0 DUP1 REVERT JUMPDEST POP JUMP JUMPDEST PUSH1 0x0 DUP2 MLOAD SWAP1 POP PUSH2 0xE74 DUP2 PUSH2 0xE4E JUMP JUMPDEST SWAP3 SWAP2 POP POP JUMP JUMPDEST PUSH1 0x0 PUSH1 0x20 DUP3 DUP5 SUB SLT ISZERO PUSH2 0xE90 JUMPI PUSH2 0xE8F PUSH2 0xAF6 JUMP JUMPDEST JUMPDEST PUSH1 0x0 PUSH2 0xE9E DUP5 DUP3 DUP6 ADD PUSH2 0xE65 JUMP JUMPDEST SWAP2 POP POP SWAP3 SWAP2 POP POP JUMP JUMPDEST PUSH32 0x4E487B7100000000000000000000000000000000000000000000000000000000 PUSH1 0x0 MSTORE PUSH1 0x11 PUSH1 0x4 MSTORE PUSH1 0x24 PUSH1 0x0 REVERT JUMPDEST PUSH1 0x0 PUSH2 0xEE1 DUP3 PUSH2 0xB86 JUMP JUMPDEST SWAP2 POP PUSH32 0xFFFFFFFFFFFFFFFFFFFFFFFFFFFFFFFFFFFFFFFFFFFFFFFFFFFFFFFFFFFFFFFF DUP3 EQ ISZERO PUSH2 0xF14 JUMPI PUSH2 0xF13 PUSH2 0xEA7 JUMP JUMPDEST JUMPDEST PUSH1 0x1 DUP3 ADD SWAP1 POP SWAP2 SWAP1 POP JUMP JUMPDEST PUSH32 0x616D6F756E742063616E6E6F7420626520300000000000000000000000000000 PUSH1 0x0 DUP3 ADD MSTORE POP JUMP JUMPDEST PUSH1 0x0 PUSH2 0xF55 PUSH1 0x12 DUP4 PUSH2 0xA46 JUMP JUMPDEST SWAP2 POP PUSH2 0xF60 DUP3 PUSH2 0xF1F JUMP JUMPDEST PUSH1 0x20 DUP3 ADD SWAP1 POP SWAP2 SWAP1 POP JUMP JUMPDEST PUSH1 0x0 PUSH1 0x20 DUP3 ADD SWAP1 POP DUP2 DUP2 SUB PUSH1 0x0 DUP4 ADD MSTORE PUSH2 0xF84 DUP2 PUSH2 0xF48 JUMP JUMPDEST SWAP1 POP SWAP2 SWAP1 POP JUMP JUMPDEST PUSH1 0x0 PUSH1 0x60 DUP3 ADD SWAP1 POP PUSH2 0xFA0 PUSH1 0x0 DUP4 ADD DUP7 PUSH2 0xCC3 JUMP JUMPDEST PUSH2 0xFAD PUSH1 0x20 DUP4 ADD DUP6 PUSH2 0xCC3 JUMP JUMPDEST PUSH2 0xFBA PUSH1 0x40 DUP4 ADD DUP5 PUSH2 0xB90 JUMP JUMPDEST SWAP5 SWAP4 POP POP POP POP JUMP JUMPDEST PUSH1 0x0 PUSH2 0xFCD DUP3 PUSH2 0xB86 JUMP JUMPDEST SWAP2 POP PUSH2 0xFD8 DUP4 PUSH2 0xB86 JUMP JUMPDEST SWAP3 POP DUP3 PUSH32 0xFFFFFFFFFFFFFFFFFFFFFFFFFFFFFFFFFFFFFFFFFFFFFFFFFFFFFFFFFFFFFFFF SUB DUP3 GT ISZERO PUSH2 0x100D JUMPI PUSH2 0x100C PUSH2 0xEA7 JUMP JUMPDEST JUMPDEST DUP3 DUP3 ADD SWAP1 POP SWAP3 SWAP2 POP POP JUMP JUMPDEST PUSH32 0x7374616B696E672062616C616E63652063616E6E6F7420626520300000000000 PUSH1 0x0 DUP3 ADD MSTORE POP JUMP JUMPDEST PUSH1 0x0 PUSH2 0x104E PUSH1 0x1B DUP4 PUSH2 0xA46 JUMP JUMPDEST SWAP2 POP PUSH2 0x1059 DUP3 PUSH2 0x1018 JUMP JUMPDEST PUSH1 0x20 DUP3 ADD SWAP1 POP SWAP2 SWAP1 POP JUMP JUMPDEST PUSH1 0x0 PUSH1 0x20 DUP3 ADD SWAP1 POP DUP2 DUP2 SUB PUSH1 0x0 DUP4 ADD MSTORE PUSH2 0x107D DUP2 PUSH2 0x1041 JUMP JUMPDEST SWAP1 POP SWAP2 SWAP1 POP JUMP INVALID LOG2 PUSH5 0x6970667358 0x22 SLT KECCAK256 LOG1 PUSH9 0x1FA88ED46686EBC9D2 0xA7 EXP CREATE2 0xD1 NOT 0xA8 SWAP15 SWAP7 SWAP12 0x4C 0xC 0x26 0xE1 0x2C MUL PUSH31 0xEBA07D93764736F6C634300080C0033000000000000000000000000000000 "
				},
				"gasEstimates": {
					"creation": {
						"codeDepositCost": "856400",
						"executionCost": "infinite",
						"totalCost": "infinite"
					},
					"external": {
						"hasStaked(address)": "2911",
						"isStaking(address)": "2912",
						"issueTokens()": "infinite",
						"mRangeToken()": "infinite",
						"name()": "infinite",
						"owner()": "2536",
						"rangeToken()": "infinite",
						"stakeTokens(uint256)": "infinite",
						"stakers(uint256)": "5066",
						"stakingBalance(address)": "2837",
						"unstakeTokens()": "infinite"
					}
				},
				"methodIdentifiers": {
					"hasStaked(address)": "c93c8f34",
					"isStaking(address)": "6f49712b",
					"issueTokens()": "60ab5852",
					"mRangeToken()": "ce6e10b3",
					"name()": "06fdde03",
					"owner()": "8da5cb5b",
					"rangeToken()": "7ac3cac8",
					"stakeTokens(uint256)": "7547c7a3",
					"stakers(uint256)": "fd5e6dd1",
					"stakingBalance(address)": "45bc78ab",
					"unstakeTokens()": "a5ce413b"
				}
			},
			"userdoc": {
				"kind": "user",
				"methods": {},
				"version": 1
			}
		}
	}
}