{
	"data": {
		"bytecode": {
			"linkReferences": {},
			"object": "6080604052606460025534801561001557600080fd5b506040516106b73803806106b783398101604081905261003491610081565b600180546001600160a01b039384166001600160a01b031991821617909155600080549290931691161790556100b4565b80516001600160a01b038116811461007c57600080fd5b919050565b6000806040838503121561009457600080fd5b61009d83610065565b91506100ab60208401610065565b90509250929050565b6105f4806100c36000396000f3fe608060405234801561001057600080fd5b50600436106100b35760003560e01c80638b876347116100715780638b8763471461014f578063a694fc3a1461016f578063c8f33c9114610182578063cd3daf9d1461018b578063d1af0c7d14610193578063df136d65146101a657600080fd5b80628cc262146100b85780630700037d146100de5780632e1a7d4d146100fe5780633d18b9121461011357806372f702f31461011b5780637b0a47ee14610146575b600080fd5b6100cb6100c63660046104cd565b6101af565b6040519081526020015b60405180910390f35b6100cb6100ec3660046104cd565b60066020526000908152604090205481565b61011161010c3660046104fd565b61022c565b005b610111610329565b60015461012e906001600160a01b031681565b6040516001600160a01b0390911681526020016100d5565b6100cb60025481565b6100cb61015d3660046104cd565b60056020526000908152604090205481565b61011161017d3660046104fd565b6103af565b6100cb60035481565b6100cb61046e565b60005461012e906001600160a01b031681565b6100cb60045481565b6001600160a01b0381166000908152600660209081526040808320546005909252822054670de0b6b3a7640000906101e561046e565b6101ef919061052c565b6001600160a01b0385166000908152600860205260409020546102129190610543565b61021c9190610562565b6102269190610584565b92915050565b3361023561046e565b60045542600355610245816101af565b6001600160a01b0382166000908152600660209081526040808320939093556004546005909152918120919091556007805484929061028590849061052c565b909155505033600090815260086020526040812080548492906102a990849061052c565b909155505060015460405163a9059cbb60e01b8152336004820152602481018490526001600160a01b039091169063a9059cbb906044015b6020604051808303816000875af1158015610300573d6000803e3d6000fd5b505050506040513d601f19601f82011682018060405250810190610324919061059c565b505050565b3361033261046e565b60045542600355610342816101af565b6001600160a01b0382811660009081526006602081815260408084209590955560048054600583528685205533808552929091528483208054908490559254945163a9059cbb60e01b8152908101919091526024810182905290929091169063a9059cbb906044016102e1565b336103b861046e565b600455426003556103c8816101af565b6001600160a01b03821660009081526006602090815260408083209390935560045460059091529181209190915560078054849290610408908490610584565b9091555050336000908152600860205260408120805484929061042c908490610584565b90915550506001546040516323b872dd60e01b8152336004820152306024820152604481018490526001600160a01b03909116906323b872dd906064016102e1565b600060075460001415610482575060045490565b600754600254600354610495904261052c565b61049f9190610543565b6104b190670de0b6b3a7640000610543565b6104bb9190610562565b6004546104c89190610584565b905090565b6000602082840312156104df57600080fd5b81356001600160a01b03811681146104f657600080fd5b9392505050565b60006020828403121561050f57600080fd5b5035919050565b634e487b7160e01b600052601160045260246000fd5b60008282101561053e5761053e610516565b500390565b600081600019048311821515161561055d5761055d610516565b500290565b60008261057f57634e487b7160e01b600052601260045260246000fd5b500490565b6000821982111561059757610597610516565b500190565b6000602082840312156105ae57600080fd5b815180151581146104f657600080fdfea2646970667358221220f3e7936a5ecf522ba8cd882a1689ef701aecf24d814cd4bea56dc15d9a1b40bd64736f6c634300080a0033",
			"opcodes": "PUSH1 0x80 PUSH1 0x40 MSTORE PUSH1 0x64 PUSH1 0x2 SSTORE CALLVALUE DUP1 ISZERO PUSH2 0x15 JUMPI PUSH1 0x0 DUP1 REVERT JUMPDEST POP PUSH1 0x40 MLOAD PUSH2 0x6B7 CODESIZE SUB DUP1 PUSH2 0x6B7 DUP4 CODECOPY DUP2 ADD PUSH1 0x40 DUP2 SWAP1 MSTORE PUSH2 0x34 SWAP2 PUSH2 0x81 JUMP JUMPDEST PUSH1 0x1 DUP1 SLOAD PUSH1 0x1 PUSH1 0x1 PUSH1 0xA0 SHL SUB SWAP4 DUP5 AND PUSH1 0x1 PUSH1 0x1 PUSH1 0xA0 SHL SUB NOT SWAP2 DUP3 AND OR SWAP1 SWAP2 SSTORE PUSH1 0x0 DUP1 SLOAD SWAP3 SWAP1 SWAP4 AND SWAP2 AND OR SWAP1 SSTORE PUSH2 0xB4 JUMP JUMPDEST DUP1 MLOAD PUSH1 0x1 PUSH1 0x1 PUSH1 0xA0 SHL SUB DUP2 AND DUP2 EQ PUSH2 0x7C JUMPI PUSH1 0x0 DUP1 REVERT JUMPDEST SWAP2 SWAP1 POP JUMP JUMPDEST PUSH1 0x0 DUP1 PUSH1 0x40 DUP4 DUP6 SUB SLT ISZERO PUSH2 0x94 JUMPI PUSH1 0x0 DUP1 REVERT JUMPDEST PUSH2 0x9D DUP4 PUSH2 0x65 JUMP JUMPDEST SWAP2 POP PUSH2 0xAB PUSH1 0x20 DUP5 ADD PUSH2 0x65 JUMP JUMPDEST SWAP1 POP SWAP3 POP SWAP3 SWAP1 POP JUMP JUMPDEST PUSH2 0x5F4 DUP1 PUSH2 0xC3 PUSH1 0x0 CODECOPY PUSH1 0x0 RETURN INVALID PUSH1 0x80 PUSH1 0x40 MSTORE CALLVALUE DUP1 ISZERO PUSH2 0x10 JUMPI PUSH1 0x0 DUP1 REVERT JUMPDEST POP PUSH1 0x4 CALLDATASIZE LT PUSH2 0xB3 JUMPI PUSH1 0x0 CALLDATALOAD PUSH1 0xE0 SHR DUP1 PUSH4 0x8B876347 GT PUSH2 0x71 JUMPI DUP1 PUSH4 0x8B876347 EQ PUSH2 0x14F JUMPI DUP1 PUSH4 0xA694FC3A EQ PUSH2 0x16F JUMPI DUP1 PUSH4 0xC8F33C91 EQ PUSH2 0x182 JUMPI DUP1 PUSH4 0xCD3DAF9D EQ PUSH2 0x18B JUMPI DUP1 PUSH4 0xD1AF0C7D EQ PUSH2 0x193 JUMPI DUP1 PUSH4 0xDF136D65 EQ PUSH2 0x1A6 JUMPI PUSH1 0x0 DUP1 REVERT JUMPDEST DUP1 PUSH3 0x8CC262 EQ PUSH2 0xB8 JUMPI DUP1 PUSH4 0x700037D EQ PUSH2 0xDE JUMPI DUP1 PUSH4 0x2E1A7D4D EQ PUSH2 0xFE JUMPI DUP1 PUSH4 0x3D18B912 EQ PUSH2 0x113 JUMPI DUP1 PUSH4 0x72F702F3 EQ PUSH2 0x11B JUMPI DUP1 PUSH4 0x7B0A47EE EQ PUSH2 0x146 JUMPI JUMPDEST PUSH1 0x0 DUP1 REVERT JUMPDEST PUSH2 0xCB PUSH2 0xC6 CALLDATASIZE PUSH1 0x4 PUSH2 0x4CD JUMP JUMPDEST PUSH2 0x1AF JUMP JUMPDEST PUSH1 0x40 MLOAD SWAP1 DUP2 MSTORE PUSH1 0x20 ADD JUMPDEST PUSH1 0x40 MLOAD DUP1 SWAP2 SUB SWAP1 RETURN JUMPDEST PUSH2 0xCB PUSH2 0xEC CALLDATASIZE PUSH1 0x4 PUSH2 0x4CD JUMP JUMPDEST PUSH1 0x6 PUSH1 0x20 MSTORE PUSH1 0x0 SWAP1 DUP2 MSTORE PUSH1 0x40 SWAP1 KECCAK256 SLOAD DUP2 JUMP JUMPDEST PUSH2 0x111 PUSH2 0x10C CALLDATASIZE PUSH1 0x4 PUSH2 0x4FD JUMP JUMPDEST PUSH2 0x22C JUMP JUMPDEST STOP JUMPDEST PUSH2 0x111 PUSH2 0x329 JUMP JUMPDEST PUSH1 0x1 SLOAD PUSH2 0x12E SWAP1 PUSH1 0x1 PUSH1 0x1 PUSH1 0xA0 SHL SUB AND DUP2 JUMP JUMPDEST PUSH1 0x40 MLOAD PUSH1 0x1 PUSH1 0x1 PUSH1 0xA0 SHL SUB SWAP1 SWAP2 AND DUP2 MSTORE PUSH1 0x20 ADD PUSH2 0xD5 JUMP JUMPDEST PUSH2 0xCB PUSH1 0x2 SLOAD DUP2 JUMP JUMPDEST PUSH2 0xCB PUSH2 0x15D CALLDATASIZE PUSH1 0x4 PUSH2 0x4CD JUMP JUMPDEST PUSH1 0x5 PUSH1 0x20 MSTORE PUSH1 0x0 SWAP1 DUP2 MSTORE PUSH1 0x40 SWAP1 KECCAK256 SLOAD DUP2 JUMP JUMPDEST PUSH2 0x111 PUSH2 0x17D CALLDATASIZE PUSH1 0x4 PUSH2 0x4FD JUMP JUMPDEST PUSH2 0x3AF JUMP JUMPDEST PUSH2 0xCB PUSH1 0x3 SLOAD DUP2 JUMP JUMPDEST PUSH2 0xCB PUSH2 0x46E JUMP JUMPDEST PUSH1 0x0 SLOAD PUSH2 0x12E SWAP1 PUSH1 0x1 PUSH1 0x1 PUSH1 0xA0 SHL SUB AND DUP2 JUMP JUMPDEST PUSH2 0xCB PUSH1 0x4 SLOAD DUP2 JUMP JUMPDEST PUSH1 0x1 PUSH1 0x1 PUSH1 0xA0 SHL SUB DUP2 AND PUSH1 0x0 SWAP1 DUP2 MSTORE PUSH1 0x6 PUSH1 0x20 SWAP1 DUP2 MSTORE PUSH1 0x40 DUP1 DUP4 KECCAK256 SLOAD PUSH1 0x5 SWAP1 SWAP3 MSTORE DUP3 KECCAK256 SLOAD PUSH8 0xDE0B6B3A7640000 SWAP1 PUSH2 0x1E5 PUSH2 0x46E JUMP JUMPDEST PUSH2 0x1EF SWAP2 SWAP1 PUSH2 0x52C JUMP JUMPDEST PUSH1 0x1 PUSH1 0x1 PUSH1 0xA0 SHL SUB DUP6 AND PUSH1 0x0 SWAP1 DUP2 MSTORE PUSH1 0x8 PUSH1 0x20 MSTORE PUSH1 0x40 SWAP1 KECCAK256 SLOAD PUSH2 0x212 SWAP2 SWAP1 PUSH2 0x543 JUMP JUMPDEST PUSH2 0x21C SWAP2 SWAP1 PUSH2 0x562 JUMP JUMPDEST PUSH2 0x226 SWAP2 SWAP1 PUSH2 0x584 JUMP JUMPDEST SWAP3 SWAP2 POP POP JUMP JUMPDEST CALLER PUSH2 0x235 PUSH2 0x46E JUMP JUMPDEST PUSH1 0x4 SSTORE TIMESTAMP PUSH1 0x3 SSTORE PUSH2 0x245 DUP2 PUSH2 0x1AF JUMP JUMPDEST PUSH1 0x1 PUSH1 0x1 PUSH1 0xA0 SHL SUB DUP3 AND PUSH1 0x0 SWAP1 DUP2 MSTORE PUSH1 0x6 PUSH1 0x20 SWAP1 DUP2 MSTORE PUSH1 0x40 DUP1 DUP4 KECCAK256 SWAP4 SWAP1 SWAP4 SSTORE PUSH1 0x4 SLOAD PUSH1 0x5 SWAP1 SWAP2 MSTORE SWAP2 DUP2 KECCAK256 SWAP2 SWAP1 SWAP2 SSTORE PUSH1 0x7 DUP1 SLOAD DUP5 SWAP3 SWAP1 PUSH2 0x285 SWAP1 DUP5 SWAP1 PUSH2 0x52C JUMP JUMPDEST SWAP1 SWAP2 SSTORE POP POP CALLER PUSH1 0x0 SWAP1 DUP2 MSTORE PUSH1 0x8 PUSH1 0x20 MSTORE PUSH1 0x40 DUP2 KECCAK256 DUP1 SLOAD DUP5 SWAP3 SWAP1 PUSH2 0x2A9 SWAP1 DUP5 SWAP1 PUSH2 0x52C JUMP JUMPDEST SWAP1 SWAP2 SSTORE POP POP PUSH1 0x1 SLOAD PUSH1 0x40 MLOAD PUSH4 0xA9059CBB PUSH1 0xE0 SHL DUP2 MSTORE CALLER PUSH1 0x4 DUP3 ADD MSTORE PUSH1 0x24 DUP2 ADD DUP5 SWAP1 MSTORE PUSH1 0x1 PUSH1 0x1 PUSH1 0xA0 SHL SUB SWAP1 SWAP2 AND SWAP1 PUSH4 0xA9059CBB SWAP1 PUSH1 0x44 ADD JUMPDEST PUSH1 0x20 PUSH1 0x40 MLOAD DUP1 DUP4 SUB DUP2 PUSH1 0x0 DUP8 GAS CALL ISZERO DUP1 ISZERO PUSH2 0x300 JUMPI RETURNDATASIZE PUSH1 0x0 DUP1 RETURNDATACOPY RETURNDATASIZE PUSH1 0x0 REVERT JUMPDEST POP POP POP POP PUSH1 0x40 MLOAD RETURNDATASIZE PUSH1 0x1F NOT PUSH1 0x1F DUP3 ADD AND DUP3 ADD DUP1 PUSH1 0x40 MSTORE POP DUP2 ADD SWAP1 PUSH2 0x324 SWAP2 SWAP1 PUSH2 0x59C JUMP JUMPDEST POP POP POP JUMP JUMPDEST CALLER PUSH2 0x332 PUSH2 0x46E JUMP JUMPDEST PUSH1 0x4 SSTORE TIMESTAMP PUSH1 0x3 SSTORE PUSH2 0x342 DUP2 PUSH2 0x1AF JUMP JUMPDEST PUSH1 0x1 PUSH1 0x1 PUSH1 0xA0 SHL SUB DUP3 DUP2 AND PUSH1 0x0 SWAP1 DUP2 MSTORE PUSH1 0x6 PUSH1 0x20 DUP2 DUP2 MSTORE PUSH1 0x40 DUP1 DUP5 KECCAK256 SWAP6 SWAP1 SWAP6 SSTORE PUSH1 0x4 DUP1 SLOAD PUSH1 0x5 DUP4 MSTORE DUP7 DUP6 KECCAK256 SSTORE CALLER DUP1 DUP6 MSTORE SWAP3 SWAP1 SWAP2 MSTORE DUP5 DUP4 KECCAK256 DUP1 SLOAD SWAP1 DUP5 SWAP1 SSTORE SWAP3 SLOAD SWAP5 MLOAD PUSH4 0xA9059CBB PUSH1 0xE0 SHL DUP2 MSTORE SWAP1 DUP2 ADD SWAP2 SWAP1 SWAP2 MSTORE PUSH1 0x24 DUP2 ADD DUP3 SWAP1 MSTORE SWAP1 SWAP3 SWAP1 SWAP2 AND SWAP1 PUSH4 0xA9059CBB SWAP1 PUSH1 0x44 ADD PUSH2 0x2E1 JUMP JUMPDEST CALLER PUSH2 0x3B8 PUSH2 0x46E JUMP JUMPDEST PUSH1 0x4 SSTORE TIMESTAMP PUSH1 0x3 SSTORE PUSH2 0x3C8 DUP2 PUSH2 0x1AF JUMP JUMPDEST PUSH1 0x1 PUSH1 0x1 PUSH1 0xA0 SHL SUB DUP3 AND PUSH1 0x0 SWAP1 DUP2 MSTORE PUSH1 0x6 PUSH1 0x20 SWAP1 DUP2 MSTORE PUSH1 0x40 DUP1 DUP4 KECCAK256 SWAP4 SWAP1 SWAP4 SSTORE PUSH1 0x4 SLOAD PUSH1 0x5 SWAP1 SWAP2 MSTORE SWAP2 DUP2 KECCAK256 SWAP2 SWAP1 SWAP2 SSTORE PUSH1 0x7 DUP1 SLOAD DUP5 SWAP3 SWAP1 PUSH2 0x408 SWAP1 DUP5 SWAP1 PUSH2 0x584 JUMP JUMPDEST SWAP1 SWAP2 SSTORE POP POP CALLER PUSH1 0x0 SWAP1 DUP2 MSTORE PUSH1 0x8 PUSH1 0x20 MSTORE PUSH1 0x40 DUP2 KECCAK256 DUP1 SLOAD DUP5 SWAP3 SWAP1 PUSH2 0x42C SWAP1 DUP5 SWAP1 PUSH2 0x584 JUMP JUMPDEST SWAP1 SWAP2 SSTORE POP POP PUSH1 0x1 SLOAD PUSH1 0x40 MLOAD PUSH4 0x23B872DD PUSH1 0xE0 SHL DUP2 MSTORE CALLER PUSH1 0x4 DUP3 ADD MSTORE ADDRESS PUSH1 0x24 DUP3 ADD MSTORE PUSH1 0x44 DUP2 ADD DUP5 SWAP1 MSTORE PUSH1 0x1 PUSH1 0x1 PUSH1 0xA0 SHL SUB SWAP1 SWAP2 AND SWAP1 PUSH4 0x23B872DD SWAP1 PUSH1 0x64 ADD PUSH2 0x2E1 JUMP JUMPDEST PUSH1 0x0 PUSH1 0x7 SLOAD PUSH1 0x0 EQ ISZERO PUSH2 0x482 JUMPI POP PUSH1 0x4 SLOAD SWAP1 JUMP JUMPDEST PUSH1 0x7 SLOAD PUSH1 0x2 SLOAD PUSH1 0x3 SLOAD PUSH2 0x495 SWAP1 TIMESTAMP PUSH2 0x52C JUMP JUMPDEST PUSH2 0x49F SWAP2 SWAP1 PUSH2 0x543 JUMP JUMPDEST PUSH2 0x4B1 SWAP1 PUSH8 0xDE0B6B3A7640000 PUSH2 0x543 JUMP JUMPDEST PUSH2 0x4BB SWAP2 SWAP1 PUSH2 0x562 JUMP JUMPDEST PUSH1 0x4 SLOAD PUSH2 0x4C8 SWAP2 SWAP1 PUSH2 0x584 JUMP JUMPDEST SWAP1 POP SWAP1 JUMP JUMPDEST PUSH1 0x0 PUSH1 0x20 DUP3 DUP5 SUB SLT ISZERO PUSH2 0x4DF JUMPI PUSH1 0x0 DUP1 REVERT JUMPDEST DUP2 CALLDATALOAD PUSH1 0x1 PUSH1 0x1 PUSH1 0xA0 SHL SUB DUP2 AND DUP2 EQ PUSH2 0x4F6 JUMPI PUSH1 0x0 DUP1 REVERT JUMPDEST SWAP4 SWAP3 POP POP POP JUMP JUMPDEST PUSH1 0x0 PUSH1 0x20 DUP3 DUP5 SUB SLT ISZERO PUSH2 0x50F JUMPI PUSH1 0x0 DUP1 REVERT JUMPDEST POP CALLDATALOAD SWAP2 SWAP1 POP JUMP JUMPDEST PUSH4 0x4E487B71 PUSH1 0xE0 SHL PUSH1 0x0 MSTORE PUSH1 0x11 PUSH1 0x4 MSTORE PUSH1 0x24 PUSH1 0x0 REVERT JUMPDEST PUSH1 0x0 DUP3 DUP3 LT ISZERO PUSH2 0x53E JUMPI PUSH2 0x53E PUSH2 0x516 JUMP JUMPDEST POP SUB SWAP1 JUMP JUMPDEST PUSH1 0x0 DUP2 PUSH1 0x0 NOT DIV DUP4 GT DUP3 ISZERO ISZERO AND ISZERO PUSH2 0x55D JUMPI PUSH2 0x55D PUSH2 0x516 JUMP JUMPDEST POP MUL SWAP1 JUMP JUMPDEST PUSH1 0x0 DUP3 PUSH2 0x57F JUMPI PUSH4 0x4E487B71 PUSH1 0xE0 SHL PUSH1 0x0 MSTORE PUSH1 0x12 PUSH1 0x4 MSTORE PUSH1 0x24 PUSH1 0x0 REVERT JUMPDEST POP DIV SWAP1 JUMP JUMPDEST PUSH1 0x0 DUP3 NOT DUP3 GT ISZERO PUSH2 0x597 JUMPI PUSH2 0x597 PUSH2 0x516 JUMP JUMPDEST POP ADD SWAP1 JUMP JUMPDEST PUSH1 0x0 PUSH1 0x20 DUP3 DUP5 SUB SLT ISZERO PUSH2 0x5AE JUMPI PUSH1 0x0 DUP1 REVERT JUMPDEST DUP2 MLOAD DUP1 ISZERO ISZERO DUP2 EQ PUSH2 0x4F6 JUMPI PUSH1 0x0 DUP1 REVERT INVALID LOG2 PUSH5 0x6970667358 0x22 SLT KECCAK256 RETURN 0xE7 SWAP4 PUSH11 0x5ECF522BA8CD882A1689EF PUSH17 0x1AECF24D814CD4BEA56DC15D9A1B40BD64 PUSH20 0x6F6C634300080A00330000000000000000000000 "
		},
		"gasEstimates": {
			"creation": {
				"codeDepositCost": "304800",
				"executionCost": "infinite",
				"totalCost": "infinite"
			},
			"external": {
				"earned(address)": "infinite",
				"getReward()": "infinite",
				"lastUpdateTime()": "2328",
				"rewardPerToken()": "infinite",
				"rewardPerTokenStored()": "2394",
				"rewardRate()": "2395",
				"rewards(address)": "2496",
				"rewardsToken()": "2425",
				"stake(uint256)": "infinite",
				"stakingToken()": "2426",
				"userRewardPerTokenPaid(address)": "2473",
				"withdraw(uint256)": "infinite"
			}
		},
		"methodIdentifiers": {
			"earned(address)": "008cc262",
			"getReward()": "3d18b912",
			"lastUpdateTime()": "c8f33c91",
			"rewardPerToken()": "cd3daf9d",
			"rewardPerTokenStored()": "df136d65",
			"rewardRate()": "7b0a47ee",
			"rewards(address)": "0700037d",
			"rewardsToken()": "d1af0c7d",
			"stake(uint256)": "a694fc3a",
			"stakingToken()": "72f702f3",
			"userRewardPerTokenPaid(address)": "8b876347",
			"withdraw(uint256)": "2e1a7d4d"
		}
	},
	"abi": [
		{
			"inputs": [
				{
					"internalType": "address",
					"name": "_stakingToken",
					"type": "address"
				},
				{
					"internalType": "address",
					"name": "_rewardsToken",
					"type": "address"
				}
			],
			"stateMutability": "nonpayable",
			"type": "constructor"
		},
		{
			"inputs": [
				{
					"internalType": "address",
					"name": "account",
					"type": "address"
				}
			],
			"name": "earned",
			"outputs": [
				{
					"internalType": "uint256",
					"name": "",
					"type": "uint256"
				}
			],
			"stateMutability": "view",
			"type": "function"
		},
		{
			"inputs": [],
			"name": "getReward",
			"outputs": [],
			"stateMutability": "nonpayable",
			"type": "function"
		},
		{
			"inputs": [],
			"name": "lastUpdateTime",
			"outputs": [
				{
					"internalType": "uint256",
					"name": "",
					"type": "uint256"
				}
			],
			"stateMutability": "view",
			"type": "function"
		},
		{
			"inputs": [],
			"name": "rewardPerToken",
			"outputs": [
				{
					"internalType": "uint256",
					"name": "",
					"type": "uint256"
				}
			],
			"stateMutability": "view",
			"type": "function"
		},
		{
			"inputs": [],
			"name": "rewardPerTokenStored",
			"outputs": [
				{
					"internalType": "uint256",
					"name": "",
					"type": "uint256"
				}
			],
			"stateMutability": "view",
			"type": "function"
		},
		{
			"inputs": [],
			"name": "rewardRate",
			"outputs": [
				{
					"internalType": "uint256",
					"name": "",
					"type": "uint256"
				}
			],
			"stateMutability": "view",
			"type": "function"
		},
		{
			"inputs": [
				{
					"internalType": "address",
					"name": "",
					"type": "address"
				}
			],
			"name": "rewards",
			"outputs": [
				{
					"internalType": "uint256",
					"name": "",
					"type": "uint256"
				}
			],
			"stateMutability": "view",
			"type": "function"
		},
		{
			"inputs": [],
			"name": "rewardsToken",
			"outputs": [
				{
					"internalType": "contract IERC20",
					"name": "",
					"type": "address"
				}
			],
			"stateMutability": "view",
			"type": "function"
		},
		{
			"inputs": [
				{
					"internalType": "uint256",
					"name": "_amount",
					"type": "uint256"
				}
			],
			"name": "stake",
			"outputs": [],
			"stateMutability": "nonpayable",
			"type": "function"
		},
		{
			"inputs": [],
			"name": "stakingToken",
			"outputs": [
				{
					"internalType": "contract IERC20",
					"name": "",
					"type": "address"
				}
			],
			"stateMutability": "view",
			"type": "function"
		},
		{
			"inputs": [
				{
					"internalType": "address",
					"name": "",
					"type": "address"
				}
			],
			"name": "userRewardPerTokenPaid",
			"outputs": [
				{
					"internalType": "uint256",
					"name": "",
					"type": "uint256"
				}
			],
			"stateMutability": "view",
			"type": "function"
		},
		{
			"inputs": [
				{
					"internalType": "uint256",
					"name": "_amount",
					"type": "uint256"
				}
			],
			"name": "withdraw",
			"outputs": [],
			"stateMutability": "nonpayable",
			"type": "function"
		}
	]
}